:020000040800F2
:100000000000022075250008591F00085B1F00082A
:100010005D1F00085F1F0008611F0008000000004E
:1000200000000000000000000000000071740008E3
:10003000631F000800000000117500081D71000812
:10004000C5250008C5250008C5250008C5250008E8
:10005000C5250008C5250008C5250008C5250008D8
:10006000C5250008C5250008C5250008651F00082E
:10007000C5250008751F0008C5250008851F000854
:10008000C5250008C5250008951F0008A51F000804
:10009000B51F0008C51F0008D51F0008C5250008AA
:1000A000C5250008C5250008C5250008C525000888
:1000B000C5250008C5250008C5250008C525000878
:1000C000C5250008C5250008C5250008C525000868
:1000D000C5250008E51F0008C5250008C52500083E
:1000E000C5250008C5250008C5250008C525000848
:1000F000F51F000805200008C52500081520000888
:10010000C5250008C5250008C5250008C525000827
:10011000252000083520000845200008C5250008D6
:1001200055200008C525000865200008C5250008E1
:10013000C525000800000000000000007520000830
:100140008520000895200008A5200008B52000089B
:10015000C5250008C5250008C5200008C5250008DC
:10016000C5250008C5250008C5250008C5250008C7
:10017000C5250008C525000800000000000000009B
:08018000C5250008C525000893
:1001900010B5054C237833B9044B13B10448AFF3C1
:1001A00000800123237010BD2C05002000000000FA
:1001B0001C98000808B5034B1BB103490348AFF373
:1001C000008008BD00000000300500201C980008D9
:1001D00053B94AB9002908BF00281CBF4FF0FF31AE
:1001E0004FF0FF3001F0DEB8ADF1080C6DE904CE40
:1001F00000F006F8DDF804E0DDE9022304B0704702
:100200002DE9F047089D04468E46002B4DD18A42C9
:10021000944669D9B2FA82F252B101FA02F3C2F1FC
:10022000200120FA01F10CFA02FC41EA030E94408D
:100230004FEA1C48210CBEFBF8F61FFA8CF708FBAE
:1002400016E341EA034306FB07F199420AD91CEB86
:10025000030306F1FF3080F01F81994240F21C81B8
:10026000023E63445B1AA4B2B3FBF8F008FB103300
:1002700044EA034400FB07F7A7420AD91CEB040435
:1002800000F1FF3380F00A81A74240F20781644405
:10029000023840EA0640E41B00261DB1D44000238A
:1002A000C5E900433146BDE8F0878B4209D9002DEE
:1002B00000F0EF800026C5E9000130463146BDE878
:1002C000F087B3FA83F6002E4AD18B4202D38242E2
:1002D00000F2F980841A61EB030301209E46002D91
:1002E000E0D0C5E9004EDDE702B9FFDEB2FA82F2E6
:1002F000002A40F09280A1EB0C014FEA1C471FFA44
:100300008CFE0126200CB1FBF7F307FB131140EA2A
:1003100001410EFB03F0884208D91CEB010103F1F7
:10032000FF3802D2884200F2CB804346091AA4B2B9
:10033000B1FBF7F007FB101144EA01440EFB00FE8D
:10034000A64508D91CEB040400F1FF3102D2A645F2
:1003500000F2BB800846A4EB0E0440EA03409CE791
:10036000C6F12007B34022FA07FC4CEA030C20FA3E
:1003700007F401FA06F31C43F9404FEA1C4900FA5E
:1003800006F3B1FBF9F8200C1FFA8CFE09FB1811DB
:1003900040EA014108FB0EF0884202FA06F20BD94E
:1003A0001CEB010108F1FF3A80F08880884240F29E
:1003B0008580A8F102086144091AA4B2B1FBF9F0E2
:1003C00009FB101144EA014100FB0EFE8E4508D9DD
:1003D0001CEB010100F1FF346CD28E456AD9023862
:1003E000614440EA0840A0FB0294A1EB0E01A14247
:1003F000C846A64656D353D05DB1B3EB080261EBB5
:100400000E0101FA07F722FA06F3F1401F43C5E98E
:10041000007100263146BDE8F087C2F12003D840C4
:100420000CFA02FC21FA03F3914001434FEA1C4706
:100430001FFA8CFEB3FBF7F007FB10360B0C43EAF8
:10044000064300FB0EF69E4204FA02F408D91CEBA8
:10045000030300F1FF382FD29E422DD902386344A6
:100460009B1B89B2B3FBF7F607FB163341EA034146
:1004700006FB0EF38B4208D91CEB010106F1FF3895
:1004800016D28B4214D9023E6144C91A46EA00468C
:1004900038E72E46284605E70646E3E61846F8E61E
:1004A0004B45A9D2B9EB020864EB0C0E0138A3E767
:1004B0004646EAE7204694E74046D1E7D0467BE748
:1004C000023B614432E7304609E76444023842E7C0
:1004D00003685A004CBF43F0004323F00043184424
:1004E000704700BF2DE9F84329B34F1E0446154657
:1004F0003E464FF0000808EB060101EBD1714910B0
:1005000004EBC1094846FFF7E3FF0346C800083083
:100510008F42204409D0AB4209D8FFF7D9FF0138F8
:10052000A8420AD201F10108E5E7AB4205D98845A6
:1005300001D04E1EDFE74FF000094846BDE8F883C2
:10054000012807D0022807D0044B00280CBF18460A
:10055000002070470248704702487047190C000895
:100560001D0C0008210C000830B5234B83B0044655
:100570008D1E3BB301A92846AFF30080E8B1019975
:100580002A46FFF7AFFF0146B8B1FFF7A1FF4B685E
:10059000A064012B2CD0002B01F1040024DBFFF719
:1005A00097FF0023C4E913030368002B11DBFFF757
:1005B0008FFF2061002003B030BD0023092023619C
:1005C00003B030BD0D4B0E49C91AC9101846019130
:1005D000D6E7C3F30360FFF7B3FF0028206114BF21
:1005E0000020092003B030BD0123C4E91303DBE779
:1005F000002323610520DEE7000000008C9900083D
:100600005C9A00080368DA0710B5044606D49B0715
:1006100000F1480009D500F05BFC2368590709D5B3
:100620001A070ED5DB0613D510BD00F049FC236870
:100630005907F5D404F1D00000F052FC23681A07E2
:10064000F0D404F5A87000F053FC2368DB06EBD46B
:1006500004F5E870BDE8104000F08EBC092070473A
:100660000346006800B11844704700BF704700BFE0
:1006700070B504460E46316C2046FFF775FF0546FF
:1006800088B9326C6261236932462146012098475D
:100690000828F0D0072806D12846316CFFF7E6FF7E
:1006A000301D00F001FC08F07FFF00BF2DE9F0478E
:1006B0000D1DD0F80C80D0F81890074614460FCDC9
:1006C000ADF5727D0DF10C0CACE80F000FCDACE870
:1006D0000F000FCDACE80F0095E80F0002AE4FF011
:1006E000000E8CE80F00C6F800E020E0336C7B6160
:1006F0004FF4F07231467AA800F056FE3B697AAAB0
:10070000394650469847889B73642146CDE9006975
:1007100005463B463A460120C0470446E0B94FF43F
:10072000F0727AA9304600F03FFE082D1AD1316CE4
:100730003846FFF719FF09345FFA84FA05460028A6
:10074000D4D0B36B73643A46CDE900693B464AF0B6
:1007500010010120C04700B1092528460DF5727D22
:10076000BDE8F087072DF7D12046316CFFF77EFFFB
:1007700003A800F099FB00BF406C7047F0B5CB6B4D
:100780000B6401F1040C0E460546BCE80F00F9B0FD
:1007900001AC0FC4BCE80F000FC4BCE80F000FC4CD
:1007A0009CE80F004FF0FF3784E80F00009706E049
:1007B0002B696A46294698470828044608D11099AB
:1007C0002846FFF7D1FE0028F2D0092079B0F0BD0D
:1007D0006846FFF717FF062CF7D131462846FFF78A
:1007E00047FF00BFC160D96B8261196400221946BE
:1007F0005CE700BF70B5C66843690B64AEB90369B6
:100800000A4604460D46014602209847072805D0AF
:1008100008280FD129462046FFF72AFF3046296CC9
:10082000FFF724FF281D00F03FFB0122FFF73EFFEA
:1008300008F0BAFE08F0B8FEC2681AB1CA6B0A64C2
:10084000002233E79AE700BF704700BF8368014684
:100850000BB1012018477047012912D009D873B98C
:100860000F2A0CD800EB820218465368009A1360D6
:1008700070470339012994BF0120022070470220EC
:1008800070470846704700BF00B585B00A46002390
:1008900003A900911946FFF7DFFF039805B05DF843
:1008A00004FB00BF012912D009D873B90F2A0CD854
:1008B00000EB8200009A12684260184670470339C4
:1008C000012994BF0120022070470220704708468A
:1008D000704700BF10B584B0002303AC03920094AE
:1008E0000A461946FFF7DEFF04B010BD70B5D36BA2
:1008F000136402F1040C05460C46BCE80F00ADF58C
:100900000E7D0DF15C0EAEE80F00BCE80F00AEE806
:100910000F00BCE80F00AEE80F009CE80F004FF09E
:10092000FF368EE80F00169610E0FFF7D3FF214642
:1009300016A8A847034616AA6946082083B9049B4F
:100940009847052806460CD0092809D026996846FC
:10095000FFF70AFE03466A460C2116A8002BE4D0D6
:10096000092616A8FFF74EFE30460DF50E7D70BD28
:100970002DE9F04FCC6C89B01E4654F8043B069428
:100980000D46174600F00308002E79D01A0C1B0400
:1009900005938DF81D200223D2B204EB82048DF85A
:1009A0001C302B6DB8F1020F08BFAC6B13F00103C4
:1009B0000CD005A9384600F079FB18B9082009B019
:1009C000BDE8F08F092009B0BDE8F08FD4F800A091
:1009D000BAF1000FEDD0019300F008030293022E4C
:1009E0004AD0B4F800A0B4F802900434AB6C29F0FB
:1009F000010B0F2138469B44FFF746FF834539D84A
:100A00002AF001039B44834594BF002001204FEA54
:100A1000490303F002030AF0010A43EA0A03012B27
:100A200049D0022B32D0002BCCD1B8F1000F02D02C
:100A3000002840F0CD800434D4F800A0BAF1000FB3
:100A4000CDD105A9384600F031FB0028BAD1019B71
:100A5000002BB3D00F213846FFF716FF0E210246B8
:100A60003846FFF737FF38466A4A0F21FFF732FF53
:100A70000720A8E70020CAE7D4F804900834B5E7B7
:100A80001B0205930323ADF81C308AE7236823F08B
:100A9000004BB8F1000F45D128B1029A002A5CD072
:100AA000BBF1000F74D0002B00DA04340BF1010B02
:100AB00004EB8B04C0E7B8F1000F19D1B0B1636843
:100AC0002268991C4FEAD2723FF47CAF05F15801BD
:100AD0000133049100F09080201DFFF7C1FD04ABAD
:100AE00001462846AFF3008000285BD10834A3E715
:100AF0000D213846D5F82090FFF7C6FE8145F5D187
:100B0000AB6A9C42F2D12046FFF7E2FC0F2102467D
:100B10003846FFF7DFFE38462A460021FFF7DAFEA7
:100B2000072050E70D213846D5F82090FFF7ACFE9E
:100B3000814501D02368B6E7AB6A9C42FAD1042311
:100B40000022C5E90B23E318C5F828B06B632368BE
:100B5000002B59DB01230193A8E705F15803CDF8D9
:100B60000C8004F1040AB04691461E460EE0504641
:100B70000496FFF775FD0022014604AB284609F1F3
:100B800001090AF1040AAFF30080E0B9D945EED1BA
:100B90000D213846FFF778FE049BAC62C5E90803D7
:100BA000062010E781460D213846FFF76DFEB9F1AA
:100BB000020F286225D12B46049A43F82C2F6B6232
:100BC000AC620620FFE646462368DDF80C806AE743
:100BD0002046FFF77DFC04340246AC6328461446E9
:100BE000AFF3008000283FF4EDAE384622460F21D7
:100BF000FFF770FE0720E6E60D213846FFF744FEBA
:100C00002862049B6B62DBE70BF1010004EB8000C0
:100C10007AE700BF000000000023A9E60123A7E651
:100C20000223A5E62DE9F0430646C3B015461C464F
:100C3000042900F2BF80DFE801F09E57BD2D0300BC
:100C4000002C40F0B780102A00F2B4800368D80668
:100C500000F1F98020AF384600F098F9B46B3946BE
:100C600000234FF0010C0CFA03F22A42204603F154
:100C7000010303D050F8042B0A600446042B01F151
:100C80000401F0D13846B46300F076F9002043B097
:100C9000BDE8F083032C40F08D8094B204EB124346
:100CA000102B4FEA124500F2858003681F0700F100
:100CB000D28020AF384600F03DF9B26B07EBC5019A
:100CC00054B10B46D01A01EBC401E4001D5843F89F
:100CD000045B8B42FAD122443846B26300F008F933
:100CE000002043B0BDE8F083012C4FEA124895B2D2
:100CF0005CD0052C5ED108EB0509B9F1200F59D85D
:100D0000B8F10F0F79D9A946002D40F08A80B36B56
:100D10006DB320AF4FF0000907EBC807043F03EBAA
:100D2000C50553F8041B47F8041FAB42F9D1B9F1CC
:100D3000000F0FD06F464146102938BF102107EB36
:100D4000C101843903EBC90553F8040B41F8040FC2
:100D5000AB42F9D1012C00F08680B8F10F0FB563DA
:100D600047D9B9F1000F02D0684600F0B9F8002069
:100D700043B0BDE8F083ECB9806B23461FFA82FCD8
:100D80000124371D04FA03F212EA0C0F014604D0C5
:100D900051F8042B47F8232008460133102BF1D1DA
:100DA00015F40055E3D1B063284604E008EB0503D1
:100DB000102B03D9022043B0BDE8F083B8F10F0F28
:100DC000F8D83368DA0706D5304623F0030340F835
:100DD000483B00F079F820AF384600F075F8B36B67
:100DE000002D97D11D460435B563384600F068F8EC
:100DF000BDE720A800F06CF8B3E7B9F1100F40D9B7
:100E0000A9F110093368D90708D523F0010330464A
:100E100043F0020340F8483B00F05EF8B9F1000FE0
:100E200032D033685A0720D4B8F10F0F25D96F4656
:100E30003846C8F1100500F057F8002DB36B7FF766
:100E40007AAF20AF68E723F01003336006F5E8704F
:100E500000F09CF8FEE623F00803036000F5A8709C
:100E600000F068F825E720AFBDE7304623F0040323
:100E700040F8D03B00F038F8D6E720A800F02CF876
:100E8000D5E74FF00009BDE7B8F10F0F3FF63FAFD0
:100E900020AF384600F020F8B36B002D7FF43AAF56
:100EA000384600F015F862E700F1340191E83800A7
:100EB0009C46A6464CF8045D90E8FF0FE54600BD51
:100EC00090EC210B704700BF80EC210B704700BFF6
:100ED00090EC200B704700BF80EC200B704700BFE8
:100EE000D0EC200B704700BFC0EC200B704700BF58
:100EF000F0EC0201F0EC0211F0EC0221F0EC023116
:100F0000F0EC0241F0EC0251F0EC0261F0EC027105
:100F1000F0EC0281F0EC0291F0EC02A1F0EC02B1F5
:100F2000F0EC02C1F0EC02D1F0EC02E1F0EC02F1E5
:100F3000704700BFE0EC0201E0EC0211E0EC02219E
:100F4000E0EC0231E0EC0241E0EC0251E0EC026145
:100F5000E0EC0271E0EC0281E0EC0291E0EC02A135
:100F6000E0EC02B1E0EC02C1E0EC02D1E0EC02E125
:100F7000E0EC02F1704700BFB0FC0181B0FC0191D0
:100F8000B0FC01A1B0FC01B1704700BFA0FC018121
:100F9000A0FC0191A0FC01A1A0FC01B1704700BF21
:100FA000EC4600B52DE900502DE9FF1F4FF000037E
:100FB0002DE90C0001A9FFF7E1FBDDF840E012B0DC
:100FC000704700BFEC4600B52DE900502DE9FF1F2A
:100FD0004FF000032DE90C0001A9FFF70BFCDDF831
:100FE00040E012B0704700BFEC4600B52DE900505C
:100FF0002DE9FF1F4FF000032DE90C0001A9FFF7B9
:101000001BFCDDF840E012B0704700BFEC4600B5B5
:101010002DE900502DE9FF1F4FF000032DE90C00D2
:1010200001ABFFF7DFFBDDF840E012B0704700BF17
:10103000EC4600B52DE900502DE9FF1F4FF00003ED
:101040002DE90C0001AAFFF751FCDDF840E012B0D9
:10105000704700BF027A03467AB9427AA2B141686A
:10106000013A10B44272086803220C1D1A7202027F
:101070005C60000E10BC1A6070470068013A1A727A
:1010800002021A60000E7047B020704700B585B0AC
:10109000002303AA009219460C22FFF7DDFB0398F8
:1010A00005B05DF804FB00BFF0E700BF2DE9F04399
:1010B000054685B00E464FF000083046FFF7CAFFE0
:1010C000B028044600F0BA80070620D500F0F003EF
:1010D000802B4DD0902B36D0A02B60D0B02B74D06D
:1010E000C02B00F08B8000F0F803D02B0BD100F068
:1010F00007020132052342F4002201212846FFF7AE
:1011000091FD0028D9D0092005B0BDE8F083830007
:10111000DBB21F1D0DF10C0900231946CDF800901C
:101120000D222846FFF798FB039BCDF80090600640
:101130004CBFDF1BFF1800230D22194628460397DA
:10114000FFF7B0FBB9E700F00D030D2BDBD003AFC9
:10115000002300F00F02194600972846FFF77CFB9A
:10116000002300970D2219462846FFF79BFBA4E7B2
:101170003046FFF76FFF24022043B0F5004FC2D086
:1011800004010023A2B219462846FFF74BFD0028B0
:10119000B9D114F4004F18BF4FF001088DE7C243D6
:1011A00002F007034FF47F621A41010702F47F62E5
:1011B0004FF0000348BF42F4804219462846FFF72B
:1011C00031FD00283FF479AF9DE7B1283BD0B2282C
:1011D00000F09380B32841D000F0FC03B42B92D0F0
:1011E00000F007020132012342F40022194628468A
:1011F000FFF718FD00283FF460AF84E7C6284AD007
:10120000C72854D000F0F803C02B63D0C82868D09A
:10121000C9287FF478AF3046FFF71CFF020300F0C7
:101220000F0002F4702201300243012105232846F9
:10123000FFF7F8FC00283FF440AF64E7B8F1000F77
:1012400018D0002060E73046FFF704FF0246002870
:101250003FF459AF10F0F003C8D054E73046FFF721
:10126000F9FE020300F00F03013302F470221A4367
:101270000123BBE703AC43460E22414600942846B7
:10128000FFF7EAFA009443460F2241462846FFF74B
:1012900009FB404638E73046FFF7DCFE020300F06A
:1012A0000F03013302F470221A4303239EE73046F2
:1012B000FFF7D0FE024600283FF425AF10F0F00300
:1012C0007FF421AF04212846FFF7ACFC00283FF44F
:1012D000F4AE18E700F00F020132032342F420229B
:1012E00084E73046FFF7B6FE00F0F00200F00F038F
:1012F0001032013343EA023297E700230DF10C0963
:101300000D221946CDF800902846FFF7A5FA304681
:10131000FFF7A0FE02064FF002040CD5039B00F07D
:101320007F00A040184403903046FFF793FE030669
:1013300004F10704F2D4039BCDF8009000F07F0283
:10134000A24003F501731A440023039219460D22AB
:101350002846FFF7A7FAB0E610B5C26C536884B010
:101360004FF0030C08321C0208461B0E01A9019421
:1013700002928DF80CC08DF80D30FFF797FE04B087
:1013800010BD00BF08B5FFF78FFE806C08BD00BF21
:1013900008B5FFF789FEC06CC379023300EB830008
:1013A00008BD00BF704700BF844641EA000313F048
:1013B00003036DD1403A41D351F8043B40F8043B5C
:1013C00051F8043B40F8043B51F8043B40F8043B1F
:1013D00051F8043B40F8043B51F8043B40F8043B0F
:1013E00051F8043B40F8043B51F8043B40F8043BFF
:1013F00051F8043B40F8043B51F8043B40F8043BEF
:1014000051F8043B40F8043B51F8043B40F8043BDE
:1014100051F8043B40F8043B51F8043B40F8043BCE
:1014200051F8043B40F8043B51F8043B40F8043BBE
:1014300051F8043B40F8043B403ABDD2303211D35E
:1014400051F8043B40F8043B51F8043B40F8043B9E
:1014500051F8043B40F8043B51F8043B40F8043B8E
:10146000103AEDD20C3205D351F8043B40F8043B5E
:10147000043AF9D2043208D0D2071CBF11F8013B5C
:1014800000F8013B01D30B8803806046704700BF22
:10149000082A13D38B078DD010F003038AD0C3F131
:1014A0000403D21ADB071CBF11F8013B00F8013B13
:1014B00080D331F8023B20F8023B7BE7043AD9D3D2
:1014C000013A11F8013B00F8013BF9D20B780370A7
:1014D0004B7843708B7883706046704700B585B059
:1014E000002300930193029303933548354A026029
:1014F0004FF480324260836001220261037680F8FB
:101500002030C36230498162C3600621C16180F826
:101510003030426101F032F900283BD10C230093B6
:1015200001230193022302936946254801F0F6F94D
:10153000002832D10D2300930223019369462048ED
:1015400001F0ECF960BB0E2300930323019369467D
:101550001B4801F0E3F930BB0F23009304230193F0
:101560006946174801F0DAF900BB10230093052300
:1015700001936946124801F0D1F9D0B911230093C3
:101580000623019369460E4801F0C8F9A0B905B0D9
:101590005DF804FB00F034FBC0E700F031FBC9E765
:1015A00000F02EFBCFE700F02BFBD5E700F028FB87
:1015B000DBE700F025FBE1E700F022FBE7E700BFF7
:1015C00048050020002001400100000F30B589B01F
:1015D000002303930493059306930793026803F192
:1015E000804303F590339A4201D009B030BD0446E0
:1015F0000025019503F58C335A6C42F480725A64CD
:101600005A6C02F480720192019A02951A6B42F0B0
:1016100004021A631B6B03F004030293029B3C2336
:1016200003930323049303A9134801F091FE134885
:10163000134B036045608560C5604FF480630361B0
:101640004FF4006343614FF400538361C561056249
:10165000456201F0CBFC58B9084BA3639C630022A0
:101660000521122001F012FC122001F047FCBCE71A
:1016700000F0C6FAF0E700BF000802409005002025
:101680001064024008B50E480E4B03600723436008
:1016900000238360C3604FF4003202614FF4801274
:1016A00042610376437601228276C37603774277DE
:1016B00001F001FA00B908BD00F0A2FAFBE700BF93
:1016C000F40500200064004008B50E480E4B03608E
:1016D0000723436000238360C3604FF4003202613C
:1016E0004FF4801242610376437601228276C376FC
:1016F0000377427701F0DFF900B908BD00F080FA06
:10170000FBE700BF1C0600200068004010B58AB04F
:101710000023059306930793089309930368574A98
:10172000934204D0564A93424ED00AB010BD554A57
:10173000136801331360012B39D000240194524BFC
:101740001A6B42F002021A631B6B03F0020301934F
:10175000019B4FF4407305930223069303230893E0
:101760000923099305A9494801F0F2FD2246052104
:10177000132001F08BFB132001F0C0FB2246052152
:10178000142001F083FB142001F0B8FB2246052150
:10179000152001F07BFB152001F0B0FB224605214E
:1017A000162001F073FB162001F0A8FBBDE7002313
:1017B0000093354B1A6C42F000721A641B6C03F0F4
:1017C00000730093009BB8E7002302932E4B1A6C22
:1017D00042F080621A641B6C03F080630293029BE8
:1017E000284A136801331360012B39D00024049474
:1017F000254B1A6B42F002021A631B6B03F00203C3
:101800000493049B4FF44053059302230693032350
:1018100008930923099305A91C4801F099FD224664
:1018200005213F2001F032FB3F2001F067FB2246FB
:101830000521402001F02AFB402001F05FFB2246F9
:101840000521412001F022FB412001F057FB2246F7
:101850000521422001F01AFB422001F04FFB64E712
:1018600000230393084B1A6C42F000721A641B6C3D
:1018700003F000730393039BB8E700BF00640040CC
:1018800000680040F00500200038024000040240DB
:1018900010B582B000240094264B1A6B42F48002EB
:1018A0001A631A6B02F480020092009A01941A6B78
:1018B00042F400121A631B6B03F400130193019BA3
:1018C000224605210B2001F0E1FA0B2001F016FB66
:1018D000224605210D2001F0D9FA0D2001F00EFB62
:1018E000224605210F2001F0D1FA0F2001F006FB5E
:1018F000224605212F2001F0C9FA2F2001F0FEFA1F
:1019000022460521382001F0C1FA382001F0F6FA0C
:10191000224605213A2001F0B9FA3A2001F0EEFA08
:1019200022460521462001F0B1FA462001F0E6FAF0
:1019300002B010BD0038024008B507F059FB07F0AF
:1019400013FE024B186806F0F9FD08BD440600209E
:1019500008B5044A0021044805F01AFC034B18603E
:1019600008BD00BFB09800083919000844060020DF
:1019700086B0002201921A4B196B41F08001196365
:10198000196B01F08001019101990292196B41F0EC
:1019900004011963196B01F0040102910299039289
:1019A000196B41F001011963196B01F001010391F9
:1019B00003990492196B41F002011963196B01F04C
:1019C00002010491049905921A6B42F008021A630D
:1019D0001B6B03F008030593059B06B0704700BF1F
:1019E0000038024008B50B480B4B03600B4B4360BB
:1019F00000238360C3604FF48042026143618361CE
:101A0000C361036201F096FD00B908BD00F0F8F86B
:101A1000FBE700BF4806002000540040801A060083
:101A200008B50B480B4B03600B4B436000238360EE
:101A3000C3604FF48042026143618361C36103620A
:101A400001F078FD00B908BD00F0DAF8FBE700BF4F
:101A50009C06002000580040801A060008B50B487C
:101A60000B4B03600B4B436000238360C3604FF458
:101A70008042026143618361C361036201F05AFDE8
:101A800000B908BD00F0BCF8FBE700BFF00600207D
:101A9000005C0040801A06002DE9F0418CB0002364
:101AA0000793089309930A930B930368474A934259
:101AB00008D0474A934228D0464A934249D00CB0B6
:101AC000BDE8F08100250095434C236B43F00203F1
:101AD0002363236B03F002030093009BC02307934F
:101AE0001223089303230A9304230B9307A93B486B
:101AF00001F02EFC0195236C43F400132364236C46
:101B000003F400130193019BD9E700250295324CA1
:101B1000236B43F002032363236B03F0020302935E
:101B2000029B4FF4406307931223089303230A9305
:101B300004230B9307A9294801F00AFC0395236CA1
:101B400043F480032364236C03F480030393039B17
:101B5000B5E700250495204C236B43F00403236371
:101B6000236B03F004030493049B0595236B43F05C
:101B700001032363236B03F001030593059B4FF4DB
:101B8000007307934FF01208CDF8208003270A97BF
:101B900004260B9607A9124801F0DAFB4FF4807374
:101BA0000793CDF8208009950A970B9607A90D4851
:101BB00001F0CEFB0695236C43F400032364236CF1
:101BC00003F400030693069B79E700BF005400402E
:101BD00000580040005C0040003802400004024011
:101BE000000802400000024008B50268034B9A4218
:101BF00000D008BD00F002FDFBE700BF0010004070
:101C000072B6FEE700B595B03022002108A807F0B3
:101C1000FDFC00230393049305930693079301931C
:101C2000204A116C41F080511164126C02F0805214
:101C30000192019A02931C4B1A6842F480421A6086
:101C40001B6803F480430293029B012308934FF423
:101C50008033099302230E934FF480020F920622E1
:101C60001092A822119212930723139308A802F04E
:101C7000A9FB98B90F230393022304930023059330
:101C80004FF4A05306934FF480530793052103A804
:101C900002F0E6FD20B915B05DF804FBFFF7B0FFD8
:101CA000FFF7AEFF003802400070004008B500F0BA
:101CB0008BFCFFF7A7FFFFF75BFEFFF7E9FDFFF7E0
:101CC000E1FCFFF701FDFFF78DFE00F0BBFAFFF727
:101CD000A7FE00F031FA00F09BFA00F07FFAFFF760
:101CE000FDFBFFF7BBFE00F00BF800F029F800F059
:101CF0000BFA05F01FFAFFF72BFE05F02DFAFEE7B1
:101D000008B50D480D4B03604FF482734360002308
:101D10008360C360036143614FF400728261C361F9
:101D20000362436283620A23C36202F08DFE00B93C
:101D300008BDFFF765FFFBE74407002000300140C6
:101D400008B50D480D4B03604FF4827343600023C8
:101D50008360C360036143614FF400728261C361B9
:101D60000362436283620A23C36202F06DFE00B91C
:101D700008BDFFF745FFFBE79C070020003C004043
:101D8000F0B58BB00023059306930793089309934E
:101D90000368314A934204D0304A934224D00BB0B6
:101DA000F0BD002100912E4B5A6C42F480525A64CF
:101DB0005A6C02F480520092009A01911A6B42F020
:101DC00001021A631B6B03F001030193019BE023E3
:101DD000059302230693032308930523099305A97A
:101DE000204801F0B5FADAE7002402941C4B1A6C83
:101DF00042F400421A641A6C02F400420292029AFF
:101E000003941A6B42F004021A631A6B02F0040284
:101E10000392039A04941A6B42F002021A631B6B3A
:101E200003F002030493049B4FF4406305930227DD
:101E30000697032608960625099505A90A4801F084
:101E400087FA20230593069707940896099505A914
:101E5000064801F07DFAA2E700300140003C004056
:101E60000038024000000240000802400004024026
:101E700000B583B0002200920D4B596C41F48041B3
:101E80005964596C01F48041009100990192196CD8
:101E900041F0805119641B6C03F080530193019B46
:101EA0000F216FF0010000F0F1FF03B05DF804FBBB
:101EB0000038024030B589B0044600230193214B1D
:101EC0001A6C42F010021A641B6C03F010030193A9
:101ED000019B02A903A802F099FD069BCBB902F071
:101EE00075FD03461848A0FB03239B0C013B1748D4
:101EF000174A026040F2E732C26043600023036188
:101F00008360836102F06AFF054630B1284609B05C
:101F100030BD02F05BFD4300E4E70C4802F0F4FD45
:101F200005460028F2D1362000F0E8FF0F2C01D939
:101F30000125EBE700222146362000F0A7FF054BE4
:101F40001C60E3E70038024083DE1B43F4070020F7
:101F50000010004008000020FEE7FEE7FEE7FEE775
:101F6000FEE7704708B5024801F004F908BD00BF5C
:101F70008C09002008B5024801F0FCF808BD00BF3C
:101F8000CC08002008B5024801F0F4F808BD00BFF5
:101F90002C09002008B5024800F01EFC08BD00BF57
:101FA0004805002008B5024800F038FE08BD00BF13
:101FB000F405002008B5024800F030FE08BD00BF5F
:101FC000F405002008B5024800F028FE08BD00BF57
:101FD000F405002008B5024800F020FE08BD00BF4F
:101FE000F405002008B5024803F0C6F808BD00BF9C
:101FF0000C0B002008B5024802F0CEFD08BD00BF62
:102000003C08002008B5024802F0C6FD08BD00BF2C
:102010008408002008B5024801F0ACF808BD00BFF4
:10202000EC09002008B5024803F0A6F808BD00BF7F
:10203000500B002008B5024803F09EF808BD00BF11
:10204000940B002008B5024802F0A6FD08BD00BFB1
:10205000F407002008B5024801F08CF808BD00BF65
:102060009005002008B5024801F084F808BD00BFC3
:102070004C0A002008B5024800F0D0FD08BD00BFA2
:102080001C06002008B5024800F0C8FD08BD00BFCE
:102090001C06002008B5024800F0C0FD08BD00BFC6
:1020A0001C06002008B5024800F0B8FD08BD00BFBE
:1020B0001C06002008B5024801F076FE08BD00BFEE
:1020C0000C2E012008B5024801F054F808BD00BFED
:1020D000AC0A00200120704708B507F06DFA1623FE
:1020E00003604FF0FF3008BD08B54FF0FF31FFF738
:1020F000F3FFFEE7034AD2F8883043F47003C2F8D6
:102100008830704700ED00E008B50948094B0360CE
:10211000532343600023836042F20F72C260036165
:10212000836102F05BFE00B908BDFFF769FDFBE7C4
:102130003C080020001C004008B50948094B03601A
:10214000532343600023836042F20F72C260036135
:10215000836102F043FE00B908BDFFF751FDFBE7C4
:10216000840800200020004000B583B00368184AAE
:10217000934205D0174A934216D003B05DF804FB92
:1021800000220092144B196C41F0800119641B6C01
:1021900003F080030093009B05212C2000F076FEC5
:1021A0002C2000F0ABFEE8E7002201920A4B196CEC
:1021B00041F4807119641B6C03F480730193019BDB
:1021C00005212D2000F062FE2D2000F097FED4E7BF
:1021D000001C0040002000400038024008B50A48BA
:1021E0000A4B03604FF4E133436000238360C36014
:1021F00003610C2242618361C36102F003FF00B9F5
:1022000008BDFFF7FDFCFBE7500B0020004C004031
:1022100008B50A480A4B03604FF4E13343600023DA
:102220008360C36003610C2242618361C36102F079
:10223000E9FE00B908BDFFF7E3FCFBE7940B0020C3
:102240000050004008B50A480A4B03604FF4E133E0
:10225000436000238360C36003610C224261836199
:10226000C36102F0CFFE00B908BDFFF7C9FCFBE770
:102270000C0B0020001001402DE9F0418CB0044609
:1022800000230793089309930A930B930368734AF7
:10229000934209D0724A934266D0724A934200F048
:1022A000FB800CB0BDE8F081002500956E4B1A6CE8
:1022B00042F400221A641A6C02F400220092009A7E
:1022C00001951A6B42F001021A631B6B03F00103C4
:1022D0000193019B03230793022208920A93082388
:1022E0000B9307A9614801F033F86148614B036023
:1022F0004FF0006343608560C5604FF48063036105
:10230000456185614FF48073C3610562456200F0E9
:102310006DFE18BB564BA3639C635748574B036035
:102320004FF000634360402383600023C3604FF499
:102330008062026143618361C3610362436200F0B2
:1023400055FE70B94C4B63639C6300220521342019
:1023500000F09CFD342000F0D1FDA2E7FFF750FC17
:10236000D8E7FFF74DFCEDE7002502953E4B1A6CD0
:1023700042F480121A641A6C02F480120292029AD9
:1023800003951A6B42F004021A631A6B02F00402FE
:102390000392039A04951A6B42F008021A631B6BAE
:1023A00003F008030493049B4FF4805307934FF00A
:1023B0000208CDF8208003270A9708260B9607A964
:1023C0002F4800F0C5FF04230793CDF8208009951E
:1023D0000A970B9607A92B4800F0BAFF2A482B4B07
:1023E00003604FF0006343608560C5604FF4806315
:1023F0000361456185614FF48073C3610562456285
:1024000000F0F4FD18BB204BA3639C632048214BD4
:1024100003604FF000634360402383600023C36088
:102420004FF48062026143618361C361036243626E
:1024300000F0DCFD70B9164B63639C63002205213C
:10244000352000F023FD352000F058FD29E7FFF787
:10245000D7FBD8E7FFF7D4FBEDE700BF004C004007
:1024600000500040001001400038024000000240CF
:10247000CC080020406002402C090020706002401F
:1024800000080240000C02408C090020106002404D
:10249000EC090020B8600240002505952F4B5A6CCE
:1024A00042F010025A645A6C02F010020592059A2A
:1024B00006951A6B42F001021A631B6B03F00103CD
:1024C0000693069B4FF4C0630793022308930323EC
:1024D0000A9307230B9307A9214800F039FF2148ED
:1024E000214B03604FF0006343608560C5604FF48B
:1024F00080630361456185614FF48073C361056248
:10250000456200F073FD18BB164BA3639C6317482C
:10251000174B03604FF00063436040238360002348
:10252000C3604FF48062026143618361C3610362EF
:10253000436200F05BFD70B90C4B63639C63002247
:102540000521252000F0A2FC252000F0D7FCA8E6FC
:10255000FFF756FBD8E7FFF753FBEDE700380240E3
:10256000000002404C0A002040640240AC0A0020F7
:10257000B8640240DFF834D00D480E490E4A0023FB
:1025800002E0D458C4500433C4188C42F9D30B4A27
:102590000B4C002301E013600432A242FBD3FFF78F
:1025A000A9FD07F00FF8FFF781FB7047000002203C
:1025B000000000202C050020689A00082C0500204F
:1025C00090370120FEE7000008B50B4B1A6842F473
:1025D00000721A601A6842F480621A601A6842F443
:1025E00080721A60032000F03FFC0F20FFF762FCAE
:1025F000FFF73EFC002008BD003C0240034A116882
:10260000034B1B780B441360704700BFD80B0020AE
:1026100004000020014B1868704700BFD80B002051
:1026200038B50446FFF7F6FF0546B4F1FF3F02D088
:10263000044B1B781C44FFF7EDFF401BA042FAD36C
:1026400038BD00BF040000204A4B5A6822F44032D3
:102650005A605A6841680A435A600268536823F412
:102660008073536002685368016943EA0123536031
:102670000268536823F040735360026853688168AE
:102680000B4353600268936823F40063936002680D
:102690009368C1680B439360826A374B9A4257D064
:1026A0000268936823F07063936002689368816A9C
:1026B0000B4393600268936823F040539360026871
:1026C0009368C16A0B4393600268936823F0020326
:1026D000936002689368017E43EA4103936090F837
:1026E0002030002B3FD00268536843F400635360EE
:1026F0000268536823F46043536001684B68426A80
:10270000013A43EA42334B600268D36A23F4700310
:10271000D3620168CB6AC269013A43EA0253CB62D1
:102720000268936823F4007393600268936890F8DA
:10273000301043EA412393600268936823F4806376
:10274000936002689368416943EA8123936070470C
:102750000268936823F0706393600268936823F0C3
:1027600040539360B0E70268536823F400635360FA
:10277000CAE700BF002301400100000F38B310B5C5
:102780000446036C43B1236C13F0100F0BD00120EF
:10279000002384F83C3010BDFEF718FF002363646B
:1027A00084F83C30EFE7236C23F4885323F00203D2
:1027B00043F0020323642046FFF746FF00206064D5
:1027C000236C23F0030343F001032364E0E70120BB
:1027D000704770477047704770B5044603681E68BD
:1027E0005D6816F0020F2FD005F0200262B3026C74
:1027F00012F0100F03D1026C42F4007202649A6866
:1028000012F0405F19D1227EBAB9DA6A12F4700F61
:1028100003D09A6812F4806F0FD15A6822F0200218
:102820005A60236C23F480732364236C13F4805F59
:1028300003D1236C43F0010323642046FFF7C9FF53
:1028400023686FF012021A6005F0800316F0040F7F
:1028500037D0002B35D0236C13F0100F03D1236C2D
:1028600043F40053236423689A6812F4401F21D173
:102870009A6B12F4401F03D09A6812F4806F19D13A
:102880005A6812F4806F15D19A6812F0405F11D126
:10289000227E7AB95A6822F080025A60236C23F4AF
:1028A00080532364236C13F4807F03D1236C43F0A3
:1028B00001032364204600F0FDF823686FF00C024A
:1028C0001A6005F0400316F0010F05D023B123680C
:1028D0001B6813F0010F06D105F0806516F0200F7C
:1028E00000D065B970BD236C43F480332364204667
:1028F000FFF770FF23686FF001021A60ECE7636C6A
:1029000043F00203636423686FF020051D602046D6
:10291000FFF761FF23681D60E4E7000030B482B078
:102920000023019390F83C30012B00F0BB80012381
:1029300080F83C300B68092B41D90468E2689BB2EF
:1029400003EB43031E3B4FF0070C0CFA03F322EAA0
:102950000303E3600468E2680B8803EB43031E3B58
:102960008D6805FA03F31343E3604B68062B3DD8EB
:102970000468626B03EB8303053B4FF01F0C0CFAFA
:1029800003F322EA030363630468626B4B6803EB9F
:102990008303053BB1F800C00CFA03F313436363F0
:1029A0000268414B9A4251D002683F4B9A4256D03E
:1029B000002380F83C30184602B030BC70470468F1
:1029C00022699BB203EB43034FF0070C0CFA03F3AD
:1029D00022EA03032361046822690B8803EB4303A3
:1029E0008D6805FA03F313432361BEE70C2B16D859
:1029F00005682A6B03EB8303233B1F2404FA03F3CC
:102A000022EA03032B6305682A6B4B6803EB8303FD
:102A1000233B0C8804FA03F313432B63C0E70568D8
:102A2000EA6A03EB8303413B1F2404FA03F322EA1F
:102A30000303EB620568EA6A4B6803EB8303413BDF
:102A40000C8804FA03F31343EB62A9E70B68122B1B
:102A5000AAD1164A536843F480035360A4E70B6875
:102A6000103B012BA4D8114A536843F40003536070
:102A70000B68102B9CD10E4B1B6802F1467202F5BD
:102A80002E3202F28332A2FB03239B0C03EB83035F
:102A90005B00019302E0019B013B0193019B002B32
:102AA000F9D185E7022087E700200140002301409B
:102AB000000000207047002800F0A18038B50446CF
:102AC00090F82030D3B12268136843F001031360FB
:102AD000FFF7A0FD054623685A6812F0010F10D1D8
:102AE000FFF798FD401B0A28F5D9636A43F40033C9
:102AF0006362052384F82030012038BDFEF706FE0E
:102B0000E1E71A6822F002021A60FFF783FD05462A
:102B100023685A6812F0020F0DD0FFF77BFD401BAF
:102B20000A28F5D9636A43F400336362052384F805
:102B300020300120E1E7227E012A3DD01A6822F0F0
:102B400080021A60637E012B3BD02268136823F059
:102B500040031360A37E012B39D02268136823F051
:102B600020031360E37E012B37D02268136843F003
:102B700010031360237F012B35D02268136823F0E4
:102B800008031360637F012B33D02268136823F09E
:102B900004031360A368E268134322691343626964
:102BA00013436268013A21681343CB6100206062DD
:102BB000012384F82030A0E71A6842F080021A60EE
:102BC000C0E72268136843F040031360C2E722683D
:102BD000136843F020031360C4E72268136823F0EE
:102BE00010031360C6E72268136843F008031360FC
:102BF000C8E72268136843F004031360CAE70120A2
:102C0000704770477047704770477047704770470C
:102C10007047704770477047704770472DE9F84F0D
:102C2000054603685C69D3F804809F68D3F80CB04C
:102C3000D3F810A0D3F8189014F001063BD017F089
:102C4000010616D001229A6017F0020F08D117F082
:102C5000040F0CD117F0080606D04FF4805608E098
:102C6000FFF7CFFF002604E0FFF7CEFF01E04FF4AF
:102C7000006617F4807F0DD02B684FF480729A6045
:102C800017F4007F40F0868017F4806F00F0868094
:102C900046F4005617F4803F0DD02B684FF4803275
:102CA0009A6017F4003F40F0838017F4802F00F003
:102CB000838046F4004614F0080F07D01BF0100F75
:102CC00004D046F400762B681022DA6014F0040F6A
:102CD00002D01BF0080F79D114F0020F04D02B683A
:102CE000DB6813F0030F78D114F0400F07D01AF00F
:102CF000100F04D046F480662B6810221A6114F07D
:102D0000200F02D01AF0080F6BD114F0100F04D06E
:102D10002B681B6913F0030F6AD114F4003F02D033
:102D200018F0100F68D114F4803F02D018F0080F8B
:102D300069D114F4004F7AD018F0040F74D014F451
:102D4000807F04D019F0010F01D046F0010614F481
:102D5000007F04D019F0020F01D046F0020614F4EF
:102D6000806F04D019F0040F01D046F0040614F46B
:102D7000006F59D019F0700956D0B9F1400F65D0E5
:102D800058D8B9F1200F5ED0B9F1300F42D146F0DA
:102D9000200644E02846FFF735FF7BE717F4006F75
:102DA00002D046F4804675E72846FFF72EFF71E70C
:102DB0002846FFF728FF7EE717F4002F02D046F4DD
:102DC000803678E72846FFF721FF74E72B68082252
:102DD000DA602846FFF71CFF7EE72846FFF717FF5B
:102DE00082E72B6808221A612846FFF713FF8CE759
:102DF0002846FFF70EFF90E72B6810225A602846FE
:102E0000FFF709FF8FE72B6808225A602846FFF773
:102E100003FF8EE7B9F1100F01D146F008062A68CA
:102E2000936923F0700393612B6804225A609EB962
:102E3000BDE8F88FB9F1500F0BD0B9F1600FEED1AA
:102E400046F48076EBE746F01006E8E746F04006E9
:102E5000E5E746F08006E2E76B6A1E436E622846AD
:102E6000FFF7DBFEE4E70000074AD36823F4E063E2
:102E70001B041B0C000200F4E060034343F0BF633B
:102E800043F40033D360704700ED00E000B5194B08
:102E9000DB68C3F30223C3F1070CBCF1040F28BFA6
:102EA0004FF0040C03F1040EBEF1060F18D9033BDA
:102EB0004FF0FF3E0EFA0CFC21EA0C0199400EFA8D
:102EC00003F322EA0303194300280BDB0901C9B20B
:102ED00000F1604000F5614080F800135DF804FBEC
:102EE0000023E5E700F00F000901C9B2024B1954B5
:102EF000F4E700BF00ED00E014ED00E0002807DB80
:102F000000F01F02400901239340024A42F820309A
:102F1000704700BF00E100E010B40368D9B2103977
:102F20000C4AA2FB014212090B4CA25CC2655F294C
:102F300009D923F47F7323F0030304338365806D81
:102F40005DF8044B704723F47F7323F0030383651C
:102F5000F5E700BFABAAAAAAEC980008836A8269C9
:102F600092B9012B0AD0022B02D00BB1002070477E
:102F7000C36A13F0807F28D100207047C36AB3F181
:102F8000C07F24D000207047B2F5005F09D0022B2B
:102F900025D9032B25D1C36A13F0807F23D10020CC
:102FA0007047032B03D8DFE803F01404140A002051
:102FB0007047C36A13F0807F0DD100207047C36A49
:102FC000B3F1C07F09D00020704701207047012075
:102FD0007047012070470120704701207047012091
:102FE00070470020704701207047000070B504460C
:102FF000FFF710FB002C5BD00546022384F8353028
:10300000002384F834302268136823F0010313602E
:1030100023681A6812F0010F0AD0FFF7FBFA431B6E
:10302000052BF5D920236365032084F8350070BD96
:103030001A68204810406168A2680A43E1680A43A0
:1030400021690A4361690A43A1690A43E1690A43A4
:10305000216A0A430243616A04291ED01A60266865
:10306000756925F00705636A1D43042B07D1A36A20
:103070001D43E36A1BB12046FFF770FF90B97561ED
:103080002046FFF749FFE26D3F2393408360002015
:103090006065012384F83530C9E7E16A206B01439C
:1030A0000A43DBE740236365012084F83500BEE76F
:1030B0000120BCE73F8010F070B50446866DFFF735
:1030C000A9FA94F83530DBB2022B06D08023636571
:1030D000002384F83430012070BD0546226813684F
:1030E00023F0160313602268536923F080035361B1
:1030F000236CE3B12268136823F00803136022688D
:10310000136823F00103136023681B6813F0010F99
:1031100011D0FFF77FFA431B052BF5D920236365F8
:10312000032084F83500002384F83430D4E7A36CFE
:10313000002BDFD1E3E7E26D3F239340B36001232F
:1031400084F83530002084F83400C5E790F8353035
:10315000DBB2022B03D08023436501207047052397
:1031600080F835300268136823F0010313600020F3
:1031700070470000F0B583B0044600230193724B02
:103180001D68724BA3FB0535AD0A876D3E68C26DA5
:1031900008239340334210D003681A6812F0040FDA
:1031A0000BD01A6822F004021A60C26D0823934003
:1031B000BB60436D43F001034365E26D012393401F
:1031C000334209D02268526912F0800F04D0BB60EC
:1031D000636D43F002036365E26D04239340334261
:1031E00009D02268126812F0020F04D0BB60636D30
:1031F00043F004036365E26D10239340334224D00F
:103200002268126812F0080F1FD0BB6023681A688A
:1032100012F4802F0DD01B6813F4002F04D1236CFF
:103220009BB12046984710E0A36C73B120469847A5
:103230000BE01A6812F4807F03D11A6822F00802AA
:103240001A60236C0BB120469847E26D202393400F
:10325000334255D02268126812F0100F50D0BB6074
:1032600094F83530DBB2052B0ED023681A6812F4BF
:10327000802F33D01B6813F4002F2AD1636C002BEE
:103280003ED0204698473BE02268136823F016039F
:1032900013602268536923F080035361236CA3B148
:1032A0002268136823F008031360E26D3F23934004
:1032B000BB60012384F83530002384F83430236D5B
:1032C000002B3FD0204698473CE0A36C002BE7D171
:1032D000EBE7E36BA3B12046984711E01A6812F4BC
:1032E000807F09D11A6822F010021A60012384F845
:1032F0003530002384F83430E36B0BB12046984717
:10330000636DFBB1636D13F0010F17D0052384F8D3
:1033100035302268136823F001031360019B0133E9
:103320000193AB4204D823681B6813F0010FF5D159
:10333000012384F83530002384F83430E36C0BB17A
:103340002046984703B0F0BD00000020B5814E1B19
:1033500000230F2B00F2E48070B582B060E0856836
:103360005E000324B44025EA0405CC68B4402C4335
:103370008460456825EA02054C68C4F300129A404F
:103380002A4342605AE0DC08083450F8246003F015
:10339000070295000F22AA4026EA020E0A69AA40F7
:1033A00042EA0E0240F824205CE0072200E00022FE
:1033B00002FA0EF22A4302345A4D45F824205A4AA2
:1033C00094686FEA0C0224EA0C054E6816F4801F1C
:1033D00001D04CEA0405544CA560E46802EA0405F7
:1033E0004E6816F4001F01D04CEA04054E4CE5600F
:1033F000646802EA04054E6816F4003F01D04CEA06
:103400000405494C6560246822404D6815F4803FEE
:1034100001D04CEA0402444C226001330F2B7DD8CA
:1034200001229A400C6804EA020C32EA0404F4D146
:103430004C6804F00304013C012C90D94A6802F066
:103440000302032A09D0C4685D000322AA4024EACB
:1034500002048A68AA402243C2604A6802F003025A
:10346000022A90D004684FEA430E032202FA0EF2B9
:1034700024EA02044A6802F0030202FA0EF222432E
:1034800002604A6812F4403FC7D000220192274AE6
:10349000546C44F480445464526C02F480420192AF
:1034A000019A9C08A51C1F4A52F8255003F00302FC
:1034B0004FEA820E0F2202FA0EF225EA02051C4A9A
:1034C00090423FF474AF02F5806290421AD002F548
:1034D0008062904218D002F58062904216D002F5C8
:1034E0008062904214D002F58062904212D002F5C0
:1034F0008062904210D002F5806290423FF455AF56
:10350000082255E7012253E7022251E703224FE741
:1035100004224DE705224BE7062249E702B070BDC1
:10352000704700BF00380140003C014000380240B5
:1035300000000240002800F0CC8070B5044690F8EE
:103540003D30002B77D0242384F83D302268136867
:1035500023F0010313602268136843F400431360EF
:103560002268136823F40043136001F02FFA6268A5
:103570005A4B9A4264D85A4B98428CBF002301237D
:10358000002B40F0A8805749A1FB00318B0C256827
:103590006A6822F03F0242EA91426A6021680A6A40
:1035A00022F03F0266684D4DAE424FD801331343BF
:1035B0000B622168CA6922F44F4222F0FF0266685A
:1035C000464B9E424CD8431E7600B3FBF6F30133C4
:1035D00040F6FC70034278D0C3F30B031343CB6176
:1035E00021680B6823F0C003E269206A0243134399
:1035F0000B6021688B6823F4034323F0FF032269E7
:10360000E068024313438B602168CB6823F0FF031B
:103610006269A06902431343CB602268136843F0D8
:103620000103136000202064202384F83D302063D0
:1036300084F83E0070BD80F83C30FEF72DFA82E73A
:10364000294B98428CBF0023012399E74FF49675CC
:1036500005FB03F3254DA5FB03539B090133A6E7A7
:10366000A368BBB9451E06EB460CB5FBFCF501355E
:10367000C5F30B05B5FA85F56D0945BBC3B901382E
:1036800006EB4603B0FBF3F30133C3F30B0343F440
:103690000043A3E7451E06EB860C0CEB8C0CB5FB38
:1036A000FCF50135C5F30B05B5FA85F56D09E4E7C1
:1036B000013806EB860303EB8303B0FBF3F301331E
:1036C000C3F30B0343F4404388E7042386E7012355
:1036D00084E7012070470120ACE700BFA08601000D
:1036E0007F841E0083DE1B43FF083D00D34D621024
:1036F0002DE9F04383B0D0F8008001EBC10300EB6B
:103700008303DA6D5B6D9A4254D807460C469B1AC8
:1037100001EBC10200EB8202926C9A4200D31A467E
:1037200002F103094FEA990915E006F103094FEA8E
:10373000990904EBC40507EB8505E96C3B7C009314
:10374000B3B2E2B2404602F022FAEB6C3344EB64CF
:10375000EB6D3344EB6508EB441303F510639B6991
:103760009BB24B4512D304EBC40207EB8202D16D2E
:10377000536D99420AD24BB15B1A04EBC40207EBBA
:103780008202966C9E42D0D31E46CEE704EBC40064
:1037900007EB80077A6DFB6D9A420FD804F00F0497
:1037A0000123A340D8F8344824EA0304C8F8344875
:1037B000002000E0012003B0BDE8F0830020FAE71C
:1037C00070B58AB0002800F090800546046890F833
:1037D000BD343BB3032385F8BD34E36B13F4807F22
:1037E00001D100232B61286801F0ECFE2C4654F82F
:1037F000106BEC460FCCACE80F000FCCACE80F0020
:1038000094E803008CE803002B1D0ECB304601F03A
:103810001BFE044658B1022385F8BD34012420461E
:103820000AB070BD80F8BC3405F0CEFCD2E70021B0
:10383000286802F0C3FB234616E003EBC30205EB46
:103840008202012182F83D1082F83C30A2F8443017
:10385000002182F840109164D16403EBC30205EBB0
:10386000820251650133DBB269688B42E5D316E011
:1038700004EBC40305EB8303002283F87D2283F865
:103880007C4283F88022C3F88822C3F88C2204EBA0
:10389000C40305EB8303C3F894220134E4B2A142CC
:1038A000E6D82C4654F8106BEC460FCCACE80F0071
:1038B0000FCCACE80F0094E803008CE803002B1D4C
:1038C0000ECB304601F0DAFE044620B1022385F823
:1038D000BD340124A3E7002385F83830012385F89F
:1038E000BD34286802F027FB99E7012497E70268B6
:1038F00090F8BC34012B19D010B50446012380F890
:10390000BC34836A012B09D0206801F055FE206881
:1039100002F003FB002084F8BC0410BD8369012B76
:10392000F2D0936B43F480339363EDE7022070474A
:1039300070B504460D460068066C00EB411303F5B4
:1039400030639A682169012911D038498E4256D0D6
:103950003DB905EBC50304EB8303D3F89432002B88
:103960005ED0E9B2204605F079FC002070BD12F06F
:10397000080F09D02E498E42F7D912F4004FF4D027
:103980004FF400429A60F0E712F0200F02D020229C
:103990009A60EAE712F0280FE7D125498E4206D94E
:1039A00012F4004F03D04FF400429A60DDE705EBBC
:1039B000C50204EB8202D2F898121B69C3F312030A
:1039C000CB1AC2F89C327DB905EBC50204EB82022A
:1039D000D2F894226AB105EBC50204EB8202D2F858
:1039E0008C120B44C2F88C32E9B2204605F036FC4A
:1039F000BBE704F2C442012102F022FBF4E712F417
:103A0000004F03D04FF400429A60AEE712F0200F4F
:103A100001D020229A60E9B2204605F01FFCA4E7FD
:103A200004F2C442002102F00BFB9AE70A31544F22
:103A30000A30544F38B5044603681D6C03EB41133C
:103A4000D3F8081B0E4A954207D903F5306311F4E9
:103A5000004F02D04FF400429A60204605F0F6FB7A
:103A6000074B9D4202D92369012B01D0002038BDAC
:103A700004F2C4420121206802F0E2FAF6E700BF36
:103A80000A30544F90F8BC34012B0DD010B50446C9
:103A9000012380F8BC3480F83810006802F02DFA59
:103AA000002084F8BC0410BD0220704738B50546DC
:103AB0008C4611F0800F29D101F00F0E0EEBCE04D1
:103AC000A40004F51E740444211D0EEBCE0E00EB81
:103AD0008E0E00208EF87D020CF00F0C81F800C0D5
:103AE000CA600B714A780AB1A1F808C0022B1DD038
:103AF00095F8BC34012B1CD0012385F8BC34286810
:103B000001F095FE002085F8BC0438BD01F00F00DF
:103B100000EBC001890038312944043100EBC000BA
:103B200005EB8000012480F83D40D5E700234B7170
:103B3000DEE70220E9E710B504460A4611F0800FDF
:103B400020D101F00F0000EBC0039B0003F51E73B2
:103B50002344191D00EBC00004EB8000002380F813
:103B60007D3202F00F020A7094F8BC34012B19D098
:103B7000012384F8BC34206801F0A8FE002084F8FA
:103B8000BC0410BD01F00F0000EBC0039B003833F4
:103B90002344191D00EBC00004EB8000012380F8D2
:103BA0003D30DEE70220ECE710B501F00F0404EB36
:103BB000C401890001F51E710144043104EBC40CF9
:103BC00000EB8C0CCCF88C22CCF894320023CCF88F
:103BD0009C328CF87D328CF87C420369012B06D034
:103BE00064B9DAB2006801F0E1FE002010BD04EB18
:103BF000C40C00EB8C0CCCF89022F1E7DAB2006830
:103C000001F0DCFFF1E701F00F0101EBC10100EB76
:103C10008101D1F89C02704710B501F00F0404EB4C
:103C2000C401890038310144043104EBC40C00EBB9
:103C30008C0CCCF84C20CCF854300023CCF85C3001
:103C400001238CF83D308CF83C400369012B06D0F1
:103C500064B9DAB2006801F0A9FE002010BD04EBDF
:103C6000C40C00EB8C0CCCF85020F1E7DAB2006801
:103C700001F0A4FFF1E738B501F00F054268954265
:103C800039D804460B4611F0800F1FD101EBC1015A
:103C9000890001F51E710144043103EBC30300EBFD
:103CA0008303002283F87D2201238B700D7094F82A
:103CB000BC34012B21D0012384F8BC34206802F0ED
:103CC000C1F88DB1002084F8BC0438BD05EBC501F6
:103CD000890038310144043105EBC50300EB83034F
:103CE000012283F83D20DFE704F2C442217C2068F2
:103CF00002F0A6F9E6E70120E7E70220E5E701F098
:103D00000F034268934231D810B5044611F0800F7A
:103D10001ED103EBC301890001F51E71014404317A
:103D200003EBC30200EB8202002082F87D02002236
:103D30008A700B7094F8BC34012B19D0012384F8DD
:103D4000BC34206802F0ABF8002084F8BC0410BD3D
:103D500003EBC301890038310144043103EBC30292
:103D600000EB8202012082F83D00E0E7012070476D
:103D70000220ECE708B511F0800F0CD101F00F0123
:103D800001EBC101890001F51E7101440431006895
:103D900001F09EFE08BD01F00F0101EBC101890099
:103DA000383101440431F2E72DE9F04F83B0044685
:103DB0000568284602F0FEF810B103B0BDE8F08FA8
:103DC0000646206802F0C5F80028F6D005F5006721
:103DD000BB68C3F30D23C4F8FC34206802F0B9F8C3
:103DE00010F0020F04D02268536903F002035361FC
:103DF000206802F0AEF810F0100F13D0226893691B
:103E000023F010039361D5F8208008F00F09C8F360
:103E10004343022B4BD0062B6FD02268936943F0AB
:103E200010039361206802F094F810F4002F76D10B
:103E3000206802F08EF810F4802F40F0E0802068B7
:103E400002F087F80028C0F26381206802F081F850
:103E500010F4006F09D0BB6813F0010F40F07081BF
:103E60002268536903F400635361206802F071F81B
:103E700010F4805F40F06881206802F06AF810F466
:103E8000005F40F0B581206802F063F810F0080F81
:103E900040F0C681206802F05CF810F0800F00F05E
:103EA000D981AB6923F08003AB610126C2E147F6FB
:103EB000F07318EA030FB0D04FEA181B4FEAC9039A
:103EC000019309EBC90A04EB8A0AC8F30A12DAF86B
:103ED0008C12284601F08CFFCBF30A0BDAF88C32F7
:103EE0005B44CAF88C32019B4B4404EB8303D3F848
:103EF0009C325B44CAF89C328FE7082204F2C4412A
:103F0000284601F075FFC8F30A1809EBC90204EB53
:103F10008202D2F89C324344C2F89C327DE720688A
:103F200002F01BF88046B14635E005EB491301224B
:103F3000C3F8082B49462046FFF7FAFC3CE005EBA6
:103F400049130822C3F8082B49462046FFF772FDA3
:103F500035E009EBC90304EB830393F87F32012BAF
:103F600041D005EB49130222C3F8082B1AF0200FA9
:103F700004D005EB49132022C3F8082B1AF4005F84
:103F800005D005EB49134FF40052C3F8082B09F193
:103F900001094FEA5808B8F1000F3FF449AF18F093
:103FA000010FF4D05FFA89FB5946206801F0E5FF64
:103FB000824610F0010FB8D11AF0080FBFD11AF0E5
:103FC000100F04D005EB49131022C3F8082B1AF088
:103FD000020FCBD06B6913F0800FBAD07B6843F42B
:103FE00080637B60B5E709EBC90304EB8303002220
:103FF00083F87F225946204605F082F9B1E7206810
:1040000001F0B3FF8046B14625E05946204605F051
:1040100031F91AF0080F04D005EB49130822C3F850
:1040200008291AF0100F04D005EB49131022C3F829
:1040300008291AF0400F04D005EB49134022C3F8B9
:1040400008291AF0020F40D11AF0800F5BD109F154
:1040500001094FEA5808B8F1000F3FF4F0AE18F02C
:10406000010FF4D05FFA89FB5946206801F08EFFFA
:10407000824610F0010FCCD009F00F03012101FAA4
:1040800003F27B6B23EA02037B6305EB4913C3F85E
:10409000081923698B42B8D109EBC90304EB8303E8
:1040A000996CDA6C0A44DA64B9F1000FADD109EB0E
:1040B000C90304EB83035B6D002BA6D104F2C44259
:1040C0000121206801F0BCFF9FE74946284601F026
:1040D0007FFA09EBC90304EB830393F83F30012B0C
:1040E00005D005EB49130222C3F80829ACE709EB18
:1040F000C90304EB8303002283F83F20594620467E
:1041000005F004F9EDE749462046FFF7F1FA9EE78E
:104110007B6823F001037B6094F8F434012B08D012
:10412000204605F0E7F82268536903F00043536125
:104130008BE6002184F8F414204600F041F9F2E700
:10414000204605F0BFF88BE67B6823F001037B6017
:104150001021206801F03CFA1AE005EB46134FF6F7
:104160007F31C3F80819D3F8002922F40012C3F8EC
:104170000029C3F8081BD3F8002B22F40012C3F85F
:10418000002BD3F8002B42F00062C3F8002B01365D
:104190006368B342E1D8FB6943F00113FB61236B11
:1041A000DBB1D7F8843043F00B03C7F884307B6C65
:1041B00043F00B037B64D5F8003823F4FE63C5F8A5
:1041C000003804F2C442217C206801F039FF2268E3
:1041D000536903F4805353614EE67B6943F4005303
:1041E00043F02B037B613B6943F00B033B61E2E748
:1041F000206801F014FF206801F008FBE0602668E9
:1042000000F0DEFB0146227B304601F063F92046D8
:1042100005F041F82268536903F40053536132E614
:10422000204605F032F82268536903F00803536111
:1042300030E601366368B3420CD906EBC60304EBE3
:10424000830393F87F32012BF3D1F1B22046FFF7BD
:1042500091FDEEE7206801F07CFE10F4801F27D16D
:10426000206801F076FE10F4001F5BD0012328E0E7
:1042700001366368B3421DD905EB4613D3F8002914
:1042800006EBC60304EB830393F84030012BEFD118
:10429000002AEDDA06EBC60304EB8303012283F860
:1042A0003F2066F07F01C9B22046FFF763FDDFE7DC
:1042B0000126DEE72268536903F480135361CFE7D8
:1042C000013362689A4228D905EB4312D2F8001BE9
:1042D00003EBC30204EB820292F88022012AEFD1A1
:1042E0000029EDDA01F48031D4F8FC2402F0010257
:1042F0009142E5D103EBC30204EB8202012182F873
:104300007F12AA6942F08002AA616A6912F0800FE6
:10431000D6D17B6843F400737B602268536903F451
:1043200000135361206801F014FE10F0804F10D18B
:10433000206801F00EFE10F0040F3FF43EAD23683C
:104340005D6815F0040F0DD1226853682B4353604C
:1043500033E5204604F0E0FF2268536903F0804310
:104360005361E5E7204604F0DDFFEDE710B4046893
:10437000606A31B940EA0240A06200205DF8044B57
:1043800070478C46A36A00EB1340002308E003F15A
:10439000400104EB8101496800EB11400133DBB2BD
:1043A0000CF1FF318B42F2D340EA02400CF13F01A5
:1043B00004EB81014860E0E7036859620020704720
:1043C00070470000002800F0E08170B582B004461C
:1043D000036813F0010F3BD09F4B9B6803F00C0365
:1043E000042B2CD09C4B9B6803F00C03082B21D092
:1043F0006368B3F5803F4FD0B3F5A02F52D0964BF2
:104400001A6822F480321A601A6822F480221A6034
:104410006368002B50D0FEF7FDF805468E4B1B68F5
:1044200013F4003F14D1FEF7F5F8401B6428F5D9CA
:104430000320B1E1884B5B6813F4800FD8D0864B22
:104440001B6813F4003F03D06368002B00F09F81CA
:10445000236813F0020F54D07F4B9B6813F00C0FAE
:104460003ED07D4B9B6803F00C03082B33D0E368F0
:10447000002B68D0794B01221A60FEF7CBF8054675
:10448000754B1B6813F0020F54D1FEF7C3F8401BA5
:104490000228F5D903207FE16F4A136843F4803383
:1044A0001360B5E76C4B1A6842F480221A601A68F0
:1044B00042F480321A60ABE7FEF7ACF80546664B73
:1044C0001B6813F4003FC3D0FEF7A4F8401B642818
:1044D000F5D9032060E1604B5B6813F4800FC6D10F
:1044E0005D4B1B6813F0020F03D0E368012B40F013
:1044F0005081594A136823F0F803216943EAC10344
:104500001360236813F0080F42D063696BB3534BF9
:104510000122C3F8802EFEF77DF805464E4B5B6FF7
:1045200013F0020F34D1FEF775F8401B0228F5D9BD
:10453000032031E1484A136823F0F803216943EA74
:10454000C1031360DDE7454B00221A60FEF762F8F5
:104550000546414B1B6813F0020FD2D0FEF75AF804
:10456000401B0228F5D9032016E13C4B0022C3F87A
:10457000802EFEF74FF80546374B5B6F13F0020FA6
:1045800006D0FEF747F8401B0228F5D9032003E1C7
:10459000236813F0040F77D02F4B1B6C13F0805F50
:1045A00033D1002301932C4B1A6C42F080521A64D1
:1045B0001B6C03F080530193019B0125284B1B6862
:1045C00013F4807F23D0A368012B34D0052B38D07F
:1045D000214B1A6F22F001021A671A6F22F00402AF
:1045E0001A67A368002B3DD0FEF714F806461A4B55
:1045F0001B6F13F0020F46D1FEF70CF8801B41F23F
:1046000088339842F3D90320C6E00025D6E7144A40
:10461000136843F480731360FDF7FCFF0646104BEC
:104620001B6813F4807FCED1FDF7F4FF801B0228B6
:10463000F5D90320B0E0084A136F43F00103136774
:10464000CFE7054B1A6F42F004021A671A6F42F067
:1046500001021A67C5E700BF003802400000474268
:1046600000700040FDF7D6FF0646524B1B6F13F05B
:10467000020F08D0FDF7CEFF801B41F2883398422D
:10468000F3D9032088E0EDB9A369002B00F0838003
:10469000484A926802F00C02082A51D0022B17D027
:1046A000454B00221A66FDF7B5FF0446414B1B68D7
:1046B00013F0007F42D0FDF7ADFF001B0228F5D9B3
:1046C000032069E03B4A136C23F080531364DBE75B
:1046D000394B00221A66FDF79DFF0546354B1B68D6
:1046E00013F0007F06D0FDF795FF401B0228F5D997
:1046F000032051E0E369226A1343626A43EA8213AA
:10470000A26A5208013A43EA0243E26A43EA0263B8
:10471000284A5360284B01221A66FDF77BFF0446A6
:10472000244B1B6813F0007F06D1FDF773FF001BBD
:104730000228F5D903202FE000202DE000202BE0F7
:10474000012B2BD01B4B5B6803F48001E269914283
:1047500026D103F03F02216A8A4223D1616A47F6DB
:10476000C0721A40B2EB811F1ED103F44031A26A1D
:104770005208013AB1EB024F18D103F07063E26ABC
:10478000B3EB026F14D1002006E001207047012036
:1047900002E0012000E0002002B070BD0120FBE734
:1047A0000120F9E70120F7E70120F5E70120F3E711
:1047B0000120F1E7003802400000474208B5254BD0
:1047C0009B6803F00C03042B3FD0082B3FD1214BF7
:1047D0005A6802F03F025B6813F4800F12D01D4B41
:1047E0005968C1F388111C480023A1FB0001FBF7A5
:1047F000EFFC184B5B68C3F3014301335B00B0FB74
:10480000F3F025E0134B5968C1F3881C4FEA4C11B3
:10481000B1EB0C006EEB0E0E4FEA8E1343EA906381
:104820008101091A63EB0E03DB0043EA5173C900EF
:1048300011EB0C0C43F10003990200234FEA8C208A
:1048400041EA9C51FBF7C4FCD3E7034800E003486E
:1048500008BD00BF00380240001BB7000024F40070
:10486000002800F09B8070B50D4604464F4B1B6836
:1048700003F007038B4208D2CBB24C4A1370136883
:1048800003F007038B4240F08B80236813F0020F84
:1048900017D013F0040F04D0454A936843F4E05353
:1048A0009360236813F0080F04D0414A936843F4DF
:1048B000604393603E4A936823F0F003A1680B4382
:1048C0009360236813F0010F32D06368012B21D06D
:1048D0009A1E012A25D9364A126812F0020F61D0B9
:1048E00033498A6822F0030213438B60FDF792FE7E
:1048F00006462F4B9B6803F00C036268B3EB820FF4
:1049000016D0FDF787FE801B41F288339842F0D91C
:10491000032042E0264A126812F4003FE0D1012051
:104920003BE0234A126812F0007FD9D1012034E025
:104930001E4B1B6803F00703AB4207D9EAB21B4BBF
:104940001A701B6803F00703AB422DD1236813F0E4
:10495000040F06D0164A936823F4E053E1680B4332
:104960009360236813F0080F07D0114A936823F46B
:104970006043216943EAC1039360FFF71FFF0C4BBB
:104980009B68C3F303130B4AD35CD8400A4B1860EF
:104990000A4B1868FDF78EFA002070BD01207047A1
:1049A0000120FAE70120F8E70120F6E7003C024089
:1049B00000380240D49800080000002008000020C1
:1049C000014B1868704700BF0000002008B5FFF7D2
:1049D000F7FF044B9B68C3F38223034AD35CD840A0
:1049E00008BD00BF00380240E498000808B5FFF792
:1049F000E7FF044B9B68C3F34233034AD35CD840C0
:104A000008BD00BF00380240E49800080F2303608F
:104A10000B4B9A6802F0030242609A6802F0F002BF
:104A200082609A6802F4E052C2609B68DB0803F47B
:104A3000E0530361034B1B6803F007030B607047EF
:104A400000380240003C024000285AD010B504460D
:104A5000436A33B94368B3F5827F05D00023C3614D
:104A600002E00023036143610023A36294F8513004
:104A7000002B40D0022384F851302268136823F0C1
:104A800040031360636803F48273A26802F4044273
:104A90001343E26802F400621343226902F0020247
:104AA0001343626902F001021343A26902F4007227
:104AB0001343E26902F038021343226A02F08002D3
:104AC0001343A26A02F40052216813430B60638B04
:104AD00003F00403626A02F01002216813434B6082
:104AE0002268D36923F40063D36100206065012349
:104AF00084F8513010BD84F850302046FDF740F95D
:104B0000B8E701207047000090F83D30DBB2012B80
:104B100037D1022380F83D300268D36843F00103A7
:104B2000D3600368194A934220D0B3F1804F1DD05F
:104B3000A2F57C42934219D002F58062934215D0CF
:104B400002F58062934211D002F5784293420DD073
:104B500002F57052934209D0A2F59432934205D0E7
:104B60001A6842F001021A60002070479A6802F049
:104B70000702062A07D01A6842F001021A600020D4
:104B80007047012070470020704700BF00000140BF
:104B9000704770477047704710B5044603681A693C
:104BA00012F0020F11D0DA6812F0020F0DD06FF080
:104BB00002021A610123037703689B6913F0030F54
:104BC00070D0FFF7E6FF0023237723681A6912F0FD
:104BD000040F12D0DA6812F0040F0ED06FF0040246
:104BE0001A610223237723689B6913F4407F5FD007
:104BF0002046FFF7CEFF0023237723681A6912F0BF
:104C0000080F12D0DA6812F0080F0ED06FF0080209
:104C10001A61042323772368DB6913F0030F4ED056
:104C20002046FFF7B6FF0023237723681A6912F0A6
:104C3000100F12D0DA6812F0100F0ED06FF01002C1
:104C40001A61082323772368DB6913F4407F3DD082
:104C50002046FFF79EFF0023237723681A6912F08E
:104C6000010F03D0DA6812F0010F36D123681A69F8
:104C700012F0800F03D0DA6812F0800F34D123686D
:104C80001A6912F0400F03D0DA6812F0400F32D1E7
:104C900023681A6912F0200F03D0DA6812F0200F8F
:104CA00030D110BDFFF774FF2046FFF773FF8AE78E
:104CB0002046FFF76DFF2046FFF76CFF9BE720467D
:104CC000FFF766FF2046FFF765FFACE72046FFF7DA
:104CD0005FFF2046FFF75EFFBDE76FF001021A613C
:104CE0002046FCF781FFC1E76FF080021A61204681
:104CF00000F0A1F8C3E76FF040021A612046FFF709
:104D00004AFFC5E76FF020021A61204600F092F8D2
:104D1000C7E700000368304A904212D0B0F1804FDC
:104D20000FD0A2F57C4290420BD002F580629042F7
:104D300007D002F58062904203D002F5784290429B
:104D400003D123F070034A681343234A90422AD0C8
:104D5000B0F1804F27D0A2F57C42904223D002F5DB
:104D6000806290421FD002F5806290421BD002F513
:104D70007842904217D002F57052904213D002F55B
:104D8000806290420FD002F5806290420BD0A2F573
:104D90009832904207D002F58062904203D002F52B
:104DA0008062904203D123F44073CA68134323F016
:104DB00080034A69134303608B68C3620B68836294
:104DC000054B984203D003F58063984201D10B69EB
:104DD00003630123436170470000014040B310B5F5
:104DE000044690F83D30F3B1022384F83D3021466B
:104DF00051F8040BFFF78EFF012384F8463084F846
:104E00003E3084F83F3084F8403084F8413084F8F4
:104E1000423084F8433084F8443084F8453084F8D4
:104E20003D30002010BD80F83C30FDF79DF9DBE7F8
:104E30000120704770477047026802F10C0353E885
:104E4000003F23F490730C3242E800310029F3D183
:104E5000026802F1140353E8003F23F00103143207
:104E600042E800310029F3D1036B012B05D0202348
:104E700080F83E30002303637047026802F10C03A0
:104E800053E8003F23F010030C3242E800310029C0
:104E9000F3D1ECE790F83D30DBB2212B01D00220BA
:104EA00070478368B3F5805F17D0036A5A1C0262AB
:104EB0001A7803685A60C38C9BB2013B9BB2C384CF
:104EC0004BB90268D36823F08003D3600268D368CB
:104ED00043F04003D360002070470369002BE4D106
:104EE000036A1B880268C3F308035360036A023332
:104EF0000362E0E738B504460268136923F44053BF
:104F0000C1680B4313618368026913434269134309
:104F1000C2691A430168CB6823F4164323F00C03DB
:104F20001343CB600268536923F4407381690B43D8
:104F300053610368314A934206D002F5806293427E
:104F400002D0FFF743FD01E0FFF750FDE369B3F541
:104F5000004F29D00021031849411B1841F10001DD
:104F6000C90041EA5371DB00181863684FEA8302F5
:104F70004FEA937341F10001FBF72AF9204DA5FB9D
:104F800000325109642303FB11031B013233A5FBDB
:104F900003235B0903F0F00202EB011203F00F039D
:104FA000216813448B6038BD0023021843EB0301D2
:104FB000121841F10001C90041EA5271D2001018E3
:104FC00041F10001626892185B41FBF701F90C4D59
:104FD000A5FB00325109642303FB1103DB003233CC
:104FE000A5FB03235B095A0002F4F87202EB0112DD
:104FF00003F00703216813448B60D4E700100140DD
:105000001F85EB5158B310B5044690F83D300BB3F3
:10501000242384F83D302268D36823F40053D360FE
:105020002046FFF767FF2268136923F4904313615A
:105030002268536923F02A0353612268D36843F43A
:105040000053D36000202064202384F83D3084F88E
:105050003E3010BD80F83C30FDF70EF9D8E7012056
:105060007047704708B50168CA6822F04002CA60FC
:10507000202280F83D20FFF7F4FF002008BD704794
:10508000704708B5806B0023C385C384FFF7F8FF22
:1050900008BD704790F83E30DBB2222B67D18368A1
:1050A000B3F5805F4DD0826AB3F5805F04D0002BEA
:1050B00054D10369002B51D103685B681370836A74
:1050C00001338362C38D9BB2013B9BB2C385002B2E
:1050D0004FD100B583B00268D36823F02003D360BA
:1050E0000268D36823F48073D3600268536923F0A5
:1050F00001035361202380F83E30036B012B33D131
:1051000000230363026802F10C0353E8003F23F01D
:1051100010030C3242E800310029F3D103681A6809
:1051200012F0100F06D0002201921A6801925B68FB
:105130000193019B818DFFF7ACFF002003B05DF868
:1051400004FB0269002AAED1826A03685B68C3F37C
:1051500008031380836A02338362B3E703685B68E2
:1051600003F07F031370AAE7FFF789FFE5E702204A
:10517000704700207047000030B583B004460268D5
:105180001368D068516913F00F0505D113F0200F93
:1051900002D010F0200F19D12DB111F0010119D159
:1051A00010F4907F16D1216B01297DD013F0800F70
:1051B00003D010F0800F40F0158113F0400F03D0A2
:1051C00010F0400F40F0128103B030BD2046FFF7D1
:1051D00061FFF9E713F0010F06D010F4807F03D0D0
:1051E000226C42F00102226413F0040F04D019B1C2
:1051F000226C42F00202226413F0020F04D019B1B3
:10520000226C42F00402226413F0080F07D010F061
:10521000200F00D119B1226C42F008022264226CE6
:10522000002AD1D013F0200F02D010F0200F29D186
:1052300023685B6903F04003226C12F0080F00D171
:1052400063B32046FFF7F8FD23685B6913F0400F56
:1052500020D0226802F1140353E8003F23F04003FA
:10526000143242E800310029F3D1A36B73B1614AD3
:105270001A65A06BFDF76AFF0028A5D0A06B036D2F
:105280009847A1E72046FFF705FFD1E72046FFF743
:10529000F7FE99E72046FFF7F3FE95E72046FFF774
:1052A000EFFE002323648FE713F0100F3FF47EAF6F
:1052B00010F0100F3FF47AAF0023019313680193AD
:1052C00053680193019B536913F0400F50D0A26BB8
:1052D00013685B689BB2002B3FF476AFA18D9942B7
:1052E0007FF672AFE385D369B3F5807F37D022684C
:1052F00002F10C0353E8003F23F480730C3242E8C0
:1053000000310029F3D1226802F1140353E8003F71
:1053100023F00103143242E800310029F3D122685E
:1053200002F1140353E8003F23F04003143242E833
:1053300000310029F3D1202384F83E300023236379
:10534000226802F10C0353E8003F23F010030C32F3
:1053500042E800310029F3D1A06BFDF7ADFEA18D2D
:10536000E38D9BB2C91A89B22046FFF792FE2BE764
:10537000A18DE38D9BB2C91A89B2E38D9BB2002B3C
:105380003FF422AF00293FF41FAF226802F10C0363
:1053900053E8003F23F490730C3242E800300028B9
:1053A000F3D1226802F1140353E8003F23F0010314
:1053B000143242E800300028F3D1202384F83E3034
:1053C00000232363226802F10C0353E8003F23F01B
:1053D00010030C3242E800300028F3D12046FFF7DA
:1053E00058FEF1E62046FFF755FDEDE62046FFF7B3
:1053F00039FEE9E68350000882B000230193019B47
:1054000001330193019A0F4B9A4215D80369002B7F
:10541000F5DA00230193036943F001030361019B63
:1054200001330193019A074B9A4208D8036913F09C
:10543000010FF4D1002000E0032002B070470320E8
:10544000FBE700BF400D030084B010B5044603A87D
:1054500080E80E00089B012B1FD1A36B23F480333F
:10546000A363E36823F4840323F04003E360E36869
:1054700023F44013E3600F9B012B09D02046FFF774
:10548000BBFF069B012B1BD0BDE8104004B070474A
:10549000E36843F48013E360F0E7E36843F040031C
:1054A000E3602046FFF7A8FF0C9B23B9A36B43F4EE
:1054B0008033A363E5E7A36B23F48033A363E0E7C2
:1054C000A36843F00603A360A36843F02003A3602E
:1054D000DAE70000022A0AD00921C26822F47052D9
:1054E000C260C36843EA8123C36000207047234B36
:1054F0000B44234A93422FD9224B0B44224A934216
:105500002CD9A1F57403A3F51053204A934227D94F
:10551000A1F18373A3F5E7431D4A934222D31D4BA8
:105520000B441D4A93421FD91C4B0B441C4A934207
:105530001CD31C4B0B441C4A934219D3A1F1B773E3
:10554000A3F55853194A934214D3194B0B44194AE3
:10555000934211D20721C0E70F21BEE70E21BCE71D
:105560000D21BAE70C21B8E70B21B6E70A21B4E711
:105570000921B2E70821B0E70621AEE7405327FF33
:10558000FF340C00401E1BFF3F420F007F4F1200F4
:1055900020D6130060B6E5FE5FE3160000D3CEFE12
:1055A00040771B00C05BB3FEC0912100207538001E
:1055B000E05459FEE09C4100836843F0010383609E
:1055C00000207047836823F0010383600020704748
:1055D00082B000230193019B01330193019A0F4B89
:1055E0009A4215D80369002BF5DA0023019389014B
:1055F00041F020010161019B01330193019A074BA6
:105600009A4208D8036913F0200FF4D1002000E07B
:10561000032002B070470320FBE700BF400D0300EA
:1056200082B000230193019B01330193019A0E4B39
:105630009A4213D80369002BF5DA00230193102353
:105640000361019B01330193019A074B9A4208D8E9
:10565000036913F0100FF4D1002000E0032002B022
:1056600070470320FBE700BF400D0300D0F800386F
:105670001943C0F8001800207047000084B02DE9DD
:10568000F041044607A880E80E00002306E003F17D
:10569000400204EB82020021516001330E2BF6D947
:1056A000119F27BBD4F8043843F00203C4F8043830
:1056B000A36B43F40013A363A36B23F40023A3633E
:1056C000A36B23F48023A3630023C4F8003E04F5F6
:1056D0000065D4F80038C4F800380C9B012B14D1B5
:1056E000099B6BB900212046FFF7C0FF11E0A36BB7
:1056F00023F40013A363A36B43F40023A363E3E742
:1057000001212046FFF7B2FF03E003212046FFF707
:10571000ADFF10212046FFF75BFF804608B14FF038
:1057200001082046FFF77CFF08B14FF00108002375
:105730002B616B61EB610AE0C3B94FF00060C2F806
:10574000000900220A614FF67F328A60013307990F
:10575000994210D904EB431202F51061D2F8000906
:105760000028E9DB0020C2F80009EAE74FF090408A
:10577000C2F80009E5E700230AE0C3B14FF0904CFE
:10578000C2F800CB002202614FF67F328260013303
:10579000994211D904EB431202F53060D2F8006B44
:1057A000002EEADB4FF0000CC2F800CBEAE74FF026
:1057B000006CC2F800CBE5E72B6923F480732B6102
:1057C0000023A3616FF0804363610A9B1BB9A36947
:1057D00043F01003A361A2690B4B1343A3610D9B1C
:1057E0001BB1A36943F00803A361012F04D0404615
:1057F000BDE8F04104B07047A36943F0804343F033
:105800000403A361F3E700BF00383C80D0F80838F8
:1058100013F0060307D0022B07D0062B01D00F2070
:10582000704702207047002070470220704710B573
:1058300091F800C04B78012B23D000F5006ED0F812
:105840001C380CF00F040122A24043EA0243C0F8C6
:105850001C3800EB4C10D0F8003B13F4004F0ED175
:10586000D0F8003BCA68C2F30A02097942EA8142D1
:10587000134343F0805343F40043C0F8003B00203F
:1058800010BDD0F81C280CF00F0E03FA0EF39BB2DB
:105890001343C0F81C3800EB4C10D0F8003913F457
:1058A000004FECD1D0F80039CA68C2F30A02097976
:1058B00042EA814242EA8C5C43EA0C0343F08053A3
:1058C00043F40043C0F80039D9E7000030B40B7846
:1058D0004A78012A26D000EB4313D3F8002B002A84
:1058E00052DBD0F83C480A7802F00F024FF0010C6E
:1058F0000CFA02F224EA0242C0F83C28D0F81C2834
:10590000097801F00F010CFA01FC22EA0C42C0F800
:105910001C28D3F8001B234A0A40C3F8002B0020A0
:1059200030BC704700EB4313D3F80029002A1EDB7C
:10593000D0F83C580A7802F00F02012404FA02F26F
:1059400092B225EA0202C0F83C28D0F81C28097857
:1059500001F00F018C40A4B222EA0404C0F81C48F4
:10596000D3F80019104A0A40C3F80029D7E7D3F842
:10597000002942F00062C3F80029D3F8002942F060
:105980008042C3F80029D3E7D3F8002B42F000622D
:10599000C3F8002BD3F8002B42F08042C3F8002B51
:1059A0009FE700BF0078F3EF007833EC70B40B781A
:1059B0004C78012C29D000EB431000F530631C69B2
:1059C000E40CE4041C611C6924F0FF5424F4C014AA
:1059D0001C618C690CB1CC688C61CC68CC611C6991
:1059E00044F400241C611C69CD69C5F3120C44EA1F
:1059F0000C041C61012A66D0D0F8003B43F004433C
:105A0000C0F8003B002070BC70478C696CBB00EB99
:105A10004314D4F8105925F0FF5525F4C015C4F8E7
:105A20001059D4F8105945F40025C4F81059D4F889
:105A30001059ED0CED04C4F81059012A34D000EBD4
:105A40004313D3F8002942F00442C3F800298B69BC
:105A5000002BD7D0D0F834380A7802F00F01012299
:105A60008A401343C0F83438CCE700EB431404F504
:105A700010642569ED0CED042561256925F0FF55BD
:105A800025F4C0152561CD688E69AE4200D98D61BF
:105A9000256945F40025256125698E69C6F3120C38
:105AA00045EA0C052561C8E74A691AB100EB4311C4
:105AB000C1F8142900EB4310D0F8002942F0044249
:105AC000C0F800299EE70A69002A95D05A6193E739
:105AD00010B483B0024600230193487801280BD00C
