:020000040800F2
:100000007076012029030008A74000080539000880
:10001000A540000895070008CD6200080000000018
:10002000000000000000000000000000690200085D
:10003000F908000800000000C50200085742000847
:100040004303000843030008430300084303000878
:100050004303000843030008430300084303000868
:100060004303000843030008430300084108000855
:10007000430300084D08000843030008590800081E
:10008000430300084303000861060008BD07000899
:1000900099070008A5070008B107000843030008F6
:1000A0004303000815430008430300084303000806
:1000B000214300082D4300084303000843030008C0
:1000C00043030008430300084303000843030008F8
:1000D00043030008430300084303000843030008E8
:1000E00043030008430300084303000843030008D8
:1000F0005D430008514300084303000865080008F9
:100100004303000843030008430300082542000896
:10011000C5450008D145000839430008454300089B
:100120007108000843030008430300084303000864
:10013000430300080000000000000000ED07000875
:10014000C9070008D5070008E1070008A940000812
:100150004303000843030008430300084303000867
:100160004303000843030008430300084303000857
:1001700043030008430300080000000000000000E3
:10018000430300084303000800F002F800F05CF8A5
:100190000AA090E8000C82448344AAF10107DA45E2
:1001A00001D100F051F8AFF2090EBAE80F0013F0D8
:1001B000010F18BFFB1A43F001031847C87900006C
:1001C000E87900000A444FF0000C10F8013B13F0EE
:1001D000070408BF10F8014B1D1108BF10F8015BA0
:1001E000641E05D010F8016B641E01F8016BF9D193
:1001F00013F0080F1EBF10F8014BAD1C0C1B09D1EA
:100200006D1E58BF01F801CBFAD505E014F8016B5B
:1002100001F8016B6D1EF9D59142D6D370470000ED
:100220000023002400250026103A28BF78C1FBD8FF
:10023000520728BF30C148BF0B6070471FB507F099
:1002400073FC1FBD10B510BD00F0D0F91146FFF7CB
:10025000F5FF06F04CF800F0EEF903B4FFF7F2FFFB
:1002600003BC00F0F5F900002C4B19680868B0E8F1
:10027000F04F80F30988BFF36F8F4FF0000080F3D9
:10028000118870470000000008480068006880F38B
:1002900008884FF0000080F3148862B661B6BFF39F
:1002A0004F8FBFF36F8F00DF00BF00BF08ED00E08E
:1002B000DFF80C00016841F470010160704700BF75
:1002C00088ED00E0EFF30980BFF36F8F134B1A68DE
:1002D0001EF0100F08BF20ED108A20E9F04F1060CB
:1002E00009B44FF0500080F31188BFF34F8FBFF374
:1002F0006F8F06F0EBFE4FF0000080F3118809BC11
:1003000019680868B0E8F04F1EF0100F08BFB0EC95
:10031000108A80F30988BFF36F8F70477C0000203C
:10032000EFF30580704700000948804709480047FF
:10033000FEE7FEE7FEE7FEE7FEE7FEE7FEE7FEE795
:10034000FEE7FEE704480549054A064B70470000F2
:1003500005430008890100087032012070760120F1
:10036000706E0120706E012053EA020C00F069806B
:100370002DE9F04B4FF00006002B1FBFB3FA83F5B9
:1003800003FA05F424FA05F65E4012BF1643B2FAEA
:1003900082F502FA05F4C5F120051EBF22FA05FC1C
:1003A00044EA0C04203556EA044C4FEA144418BFC2
:1003B000641C4FF000084FF00009904271EB030CF1
:1003C00039D3002919BFB1FA81F701FA07F6B0FA5B
:1003D00080F700FA07F6C7F120071EBF20FA07FCD6
:1003E00046EA0C062037B6FBF4FCA7EB0507103FE6
:1003F00007F01F0BCBF120060CFA0BFB2CFA06F6CC
:1004000044BFB3460026202FA4BF5E464FF0000B2A
:100410005BEA060C08BF4FF0010B19EB0B09ABFBB5
:10042000027C48EB0608C01B06FB02CC0BFB03CC8E
:1004300071EB0C01C1E70B46024641464846BDE858
:10044000F08B13B54FF000004FF00001AFF30080C8
:10045000BDE81C407047032A40F2308010F0030CC6
:1004600000F0158011F8013BBCF1020F624498BF07
:1004700011F801CB00F8013B38BF11F8013BA2F1A4
:10048000040298BF00F801CB38BF00F8013B11F01F
:10049000030300F05780083AC0F0088051F8043B8D
:1004A000083A51F804CBA0E80810F5E7121D5CBF2C
:1004B00051F8043B40F8043BAFF30080D20724BF5F
:1004C00011F8013B11F801CB48BF11F8012B24BFF3
:1004D00000F8013B00F801CB48BF00F8012B704742
:1004E00002F0FF0343EA032242EA024200F05EB850
:1004F0004FF0000200B5134694469646203922BFBD
:10050000A0E80C50A0E80C50B1F12001BFF4F7AF07
:10051000090728BFA0E80C5048BF0CC05DF804EBE9
:10052000890028BF40F8042B08BF704748BF20F857
:10053000022B11F0804F18BF00F8012B7047704755
:100540007047704710B5203AC0F00B80B1E81850E2
:10055000203AA0E81850B1E81850A0E81850BFF4AD
:10056000F5AF5FEA027C24BFB1E81850A0E818504C
:1005700044BF18C918C0BDE810405FEA827C24BFA0
:1005800051F8043B40F8043B08BF7047D20728BF2E
:1005900031F8023B48BF11F8012B28BF20F8023B7D
:1005A00048BF00F8012B70474FF000020429C0F04B
:1005B000128010F0030C3FF49DAFCCF1040CBCF1A1
:1005C000020F18BF00F8012BA8BF20F8022BA1EBE7
:1005D0000C01FFF78FBF5FEAC17C24BF00F8012B3D
:1005E00000F8012B48BF00F8012B7047754600F05A
:1005F0002BF8AE4605006946534620F007008546B5
:1006000018B020B5FFF79EFEBDE820404FF0000671
:100610004FF000074FF000084FF0000B21F00701EA
:10062000AC46ACE8C009ACE8C009ACE8C009ACE82D
:10063000C0098D46704710B50446AFF300802046D0
:10064000BDE81040FFF709BE004870470C3201209A
:1006500001491820ABBEFEE72600020070470000EB
:10066000014800F0F5B900008C010020464910B5A2
:100670004A6822F440324A604A6843681A434A6032
:1006800001684A6822F480724A6001684A68036916
:1006900042EA03224A6001684A6822F040724A60D6
:1006A00001684A6883681A434A6001688A6822F4CC
:1006B00000628A6001688A68C3681A438A60816A36
:1006C0006FF07062D14201688A6822F070628A60BD
:1006D00001688A680CD0836A1A438A6001688A6854
:1006E00022F040528A6001688A68C36A1A4301E0B6
:1006F00022F040528A6001688A6822F002028A6011
:1007000001688A68037E42EA43028A6090F82010FA
:10071000002901684A680FD042F400624A6001680B
:100720004A6822F460424A6001684A68174C436A8A
:1007300004EB43331A4301E022F400624A6001688B
:10074000CA6A22F47002CA620168CA6A838B104CBA
:1007500004EB03531A43CA6201688A6822F40072E8
:100760008A6001688A6890F8303042EA43228A60E1
:1007700001688A6822F480628A6001688A68406938
:1007800042EA8020886010BD0023014000E0FFFFA6
:100790000000F0FFFEE70000014800F070BA000022
:1007A00034020020014800F06ABA00003402002040
:1007B000014800F064BA000034020020014800F053
:1007C0005EBA000034020020014800F058BA000070
:1007D0005C020020014800F052BA00005C020020D8
:1007E000014800F04CBA00005C020020014800F013
:1007F00046BA00005C0200200020704700207047CD
:1008000010B500220449054804F0DEF90449034804
:1008100004F0CDF9002010BD341600205809002046
:10082000340E002010B50146034804F0C0F9024818
:1008300004F096F9002010BD5809002000207047F0
:10084000014800F0C1BC000050080020014800F041
:10085000BBBC000090070020014800F0B5BC0000C0
:10086000F0070020014800F0AFBC0000B0080020F5
:10087000014800F0A9BC0000D40100200168182341
:10088000CAB2103AB2FBF3F2054B6FF30901032A27
:100890009B5CC36500D9091D81650846704700004F
:1008A000587B000810B5014600208B698A6A4FF01A
:1008B000C07453B1B3F5005F15D072B1012A0CD0EA
:1008C000022A0AD0032A09D104E01AB1012A06D06B
:1008D000022A03D1C96AC90100D5012010BDC96A25
:1008E000A142FAD010BD002AF7D0012AF2D0022A84
:1008F000F3D0032AF3D010BD704772B6FEE77047FD
:1009000078B50024009490F83C20012A19D00122E7
:1009100080F83C200A6807230568092A13D9EE6885
:100920000A3A02EB420293409E43EE600B788A68DB
:100930000A3B03EB43039A400368DD682A43DA600D
:1009400010E0022078BD2E6902EB420293409E43E4
:100950002E610B788A6803EB43039A4003681D6994
:100960002A431A614A681F23072A13D205686E6B4F
:10097000521E02EB820293409E436E630B790A88FB
:100980005B1E92B203EB83039A4003685D6B2A43BC
:100990005A6327E005680D2A12D22E6BD21F02EB94
:1009A000820293409E432E630B790A88DB1F92B22A
:1009B00003EB83039A4003681D6B2A431A6311E01B
:1009C000EE6A0D3A02EB820293409E43EE620B798F
:1009D0000A880D3B92B203EB83039A400368DD6AF9
:1009E0002A43DA62164B0568144A9D4206D10D6807
:1009F000122D03D1556845F48005556005689D4268
:100A000018D10B68102B01D0112B13D1536843F46C
:100A100000035360096810290CD10A490A4A096881
:100A2000B1FBF2F101EB8101490000E0491E0091A8
:100A30000029FBD180F83C40002078BD0023014014
:100A4000002001407800002040420F0070477047AE
:100A500070B5044600680668456816F0020F05F098
:100A600020012AD049B3216CC90603D4216C41F47A
:100A700000712164816811F0405F17D1217EA9B90E
:100A8000C16A11F4700F02D0816849050ED4416823
:100A900021F020014160206C20F480702064206CE3
:100AA000C00403D4206C40F0010020642046FFF70E
:100AB000CDFF21686FF01200086016F0040F05F0FA
:100AC000800132D089B3206CC00603D4206C40F47E
:100AD000005020642068816811F4401F1ED1816B92
:100AE00011F4401F02D08168490517D441684905B7
:100AF00014D4816811F0405F10D1217E71B9416832
:100B000021F080014160206C20F480502064206C32
:100B1000C00503D4206C40F0010020642046FFF79C
:100B2000EEFE21686FF00C00086016F0010F05F072
:100B300040010FD071B120680068C0070AD0206C56
:100B400040F480302064204600F043F821686FF0C4
:100B50000100086016F0200F05F080610ED000291A
:100B60000CD0606C40F00200606420686FF02005DB
:100B700005602046FFF76BFF2068056070BD70B50B
:100B800004004FF0000503D0206C002610B107E0F0
:100B9000012070BD204600F01DF8666484F83C60BA
:100BA000206CC00610D4206C20F4885040F0020065
:100BB00020642046FFF75AFD6664206C20F0020096
:100BC00040F00100206400E0012584F83C602846E4
:100BD00070BD704770B586B0064614216846FFF7B1
:100BE00087FC2149306888423CD1204800250168B3
:100BF00041F480710160006800F4807005901B482A
:100C00001438016841F0040101600068694600F091
:100C1000040005903C2000900320CDE90105144814
:100C200000F01EFC144C1348C4E900050015A56033
:100C3000C4E90350400060618000A0614011C4E934
:100C400007052046656200F08FFB08B1FFF755FEEF
:100C5000B463002205211220A66300F0E7FE1220F3
:100C600000F0D6FE06B070BD0020014044380240BE
:100C70000008024010640240D401002070472DE9B2
:100C8000F05F0546006800244669D0F80490876844
:100C9000D0F80CB0D0F810A0D0F81880F10748D0E8
:100CA000F90714D001218160B80703D5284600F068
:100CB00029FA0CE0780702D54FF4006407E0380702
:100CC00002D54FF4805402E0284600F01AFAF805E5
:100CD00016D529684FF480708860B80503D528467A
:100CE00000F012FA0CE0780502D544F4005407E055
:100CF000380502D544F4804402E0284600F003FAA7
:100D0000F80316D529684FF480308860B80303D5FE
:100D1000284600F0FBF90CE0780302D544F40044C7
:100D200007E0380302D544F4803402E0284600F09E
:100D3000ECF9300707D55FEACB6004D529681020AD
:100D400044F40074C86070074FF0080707D55FEAE5
:100D50000B7004D52868C760284600F0CDF9B007AD
:100D600006D52868C068800702D0284600F0C5F97B
:100D7000700607D55FEACA6004D52968102044F4DC
:100D800080640861B00607D55FEA0A7004D5286858
:100D90000761284600F0B2F9F00606D52868006918
:100DA000800702D0284600F0AAF9B00308D55FEA10
:100DB000C96005D5296810204860284600F0A0F9D0
:100DC000F00307D55FEA097004D528684760284614
:100DD00000F09DF9300446D55FEA497040D5F00532
:100DE00004D55FEAC87001D044F00104B00504D511
:100DF0005FEA887001D544F00204700504D55FEA0B
:100E0000487001D544F00404300529D518F0700F5E
:100E100026D008F07000402815D006DC102809D034
:100E200020280AD0302816D10AE050280ED0602899
:100E300011D10EE044F008040DE044F010040AE083
:100E400044F0200407E044F0400404E044F080044F
:100E500001E044F480742868816921F070018161A7
:100E6000296804204860002C05D0686A2043686225
:100E70002846FFF703FFBDE8F09F70B5040003D0DC
:100E800094F8200010B104E0012070BD204600F06D
:100E900081F82068016841F00101016000F0D8FB91
:100EA0000546052604E000F0D3FB401B0A2811D8B4
:100EB00020684068C007F6D02068016821F0020170
:100EC000016000F0C5FB05460BE000F0C1FB401BD4
:100ED0000A2806D9606A40F40030606284F8206015
:100EE000D2E7206840688007EFD4207E0128206880
:100EF00001683DD021F080010160607E01282068FA
:100F0000016838D021F040010160A07E01282068EE
:100F1000016833D021F020010160E07E01282068C3
:100F200001682ED041F010010160207F0128206867
:100F3000016829D021F008010160607F0128206844
:100F4000016824D021F004010160D4E902010843C2
:100F5000D4E90412114308436168491E084321681B
:100F6000C86100206062012084F82000002070BD6C
:100F700041F08001C0E741F04001C5E741F02001A8
:100F8000CAE721F01001CFE741F00801D4E741F0B2
:100F90000401D9E72DE9F04387B0044614216846DF
:100FA000FFF7A6FA504B5148DFF838811968D4F89A
:100FB00000C04E4A022503260927DFF8349110307D
:100FC0000024491CC4453CD11960012907D101689E
:100FD00041F000710160006800F000700590106839
:100FE00040F002001060106802AB00F002000590B3
:100FF0004FF44070CDE9000583E8D00069464846CB
:1010000000F02EFA00220521132000F00FFD13201E
:1010100000F0FEFC00220521142000F007FD142042
:1010200000F0F6FC00220521152000F0FFFC152041
:1010300000F0EEFC00220521162000F0F7FC16203F
:101040004BE0DFF8B080C44549D1D0F800C04CF087
:10105000806CC0F800C0D0F800C001290CF0806C92
:10106000CDF814C0196007D1016841F0007101602A
:10107000006800F000700590106840F002001060F9
:10108000106802AB00F0020005904FF44050CDE92B
:10109000000583E8D0006946484600F0E1F90022E7
:1010A00005213F2000F0C2FC3F2000F0B1FC0022EF
:1010B0000521402000F0BAFC402000F0A9FC0022ED
:1010C0000521412000F0B2FC412000F0A1FC0022EB
:1010D0000521422000F0AAFC422000F099FC07B054
:1010E000BDE8F08300640040040000203038024076
:1010F0000004024000680040704770477047704726
:101100007047704770477047704770477047704727
:101110002DE9F0410446876D00F09AFA064694F8EE
:1011200035000025022806D08020606584F8345000
:101130000120BDE8F0812068016821F016010160FE
:101140002068416921F080014161206C08B9A06CE0
:1011500020B12068016821F0080101602068016861
:1011600021F0010101600CE000F072FA801B0528FB
:1011700007D920206065032084F8350084F83450B6
:10118000D7E720680068C007EED194F85C103F20D4
:101190008840B860012084F8350084F8345000207D
:1011A000C7E790F83510022903D08021416501205E
:1011B0007047052180F835100068016821F00101B1
:1011C00001600020704700002DE9F84304464FF00D
:1011D0000009CDF8009063484FF41651A56D0068E2
:1011E000B0FBF1F72E6894F85C10082000FA01F1CA
:1011F00031420FD021680A6852070BD50A6822F0E5
:1012000004020A6094F85C108840A860606D40F0A9
:101210000100606594F85C104FF0010808FA01F0D5
:10122000304208D021684969090604D5A860606D7C
:1012300040F00200606594F85C1004208840304261
:1012400008D021680968890704D5A860606D40F05E
:101250000400606594F85C1010208840304218D07B
:1012600021680968090714D5A86020680168490346
:1012700004D50068000308D5A16C07E00168C90522
:1012800003D4016821F008010160216C09B12046F6
:10129000884794F85C1020208840304231D0216883
:1012A0000968C9062DD5A86094F83500052820687E
:1012B000016806D0490347D5006800031DD4616C5E
:1012C0001CE021F0160101602068416921F08001D5
:1012D0004161206C08B9A06C20B12068016821F040
:1012E0000801016094F85C103F208840A86084F8F1
:1012F000358084F83490216D1FE0E16B09B1204600
:101300008847606D00282BD0606DC00714D0052081
:1013100084F835002068016821F00101016000981F
:10132000401C0090B84203D820680068C007F6D17E
:1013300084F8358084F83490E16C002910D001B035
:101340002046BDE8F04308470168C905D5D40168C7
:1013500021F01001016084F8358084F83490CCE7E6
:10136000BDE8F883780000202DE9F041044600F044
:101370006FF906465CB1022084F83500002584F838
:1013800034502068016821F0010101600DE0012066
:10139000BDE8F08100F05CF9801B052805D920200C
:1013A0006065032084F83500F2E720680068C00714
:1013B000F0D12268116820480140D4E901031843A4
:1013C000D4E903363343184363691843A3691843C8
:1013D000E3691843236A18430843616A042903D167
:1013E000D4E90B1319430843106020684069666A0A
:1013F00020F0070130460E43012704280CD1A06AD3
:101400000643E06A40B12046FFF74CFA20B1402085
:10141000606584F83570BAE7206846612046FFF7BA
:101420002DFA94F85C203F2191408160656584F835
:1014300035700020ACE700003F8010F070B5044626
:1014400000F006F90546601C02D004480078044408
:1014500000F0FEF8401BA042FAD370BD6C000020E3
:101460002DE9F84FDFF8BCA10022012503264FF03B
:101470000F090AF1040BAAF1040E00BF0B6805FA6C
:1014800002F42340A34270D10F7907F00307012F24
:1014900001D0022F16D187684FEA420806FA08FCED
:1014A00027EA0C07D1F80CC00CFA08FC4CEA070C30
:1014B000C0F808C04768A7430C79C4F300149440EF
:1014C0003C4344600C79E443A4070AD0C4684FEA63
:1014D000420C06FA0CF7BC438F6807FA0CF7274357
:1014E000C7600C7904F00304022C12D1D40800EB7D
:1014F000840CDCF820405707FF0E09FA07F824EAAD
:101500000804D1F8108008FA07F848EA0408CCF873
:10151000208004684FEA420C06FA0CF7BC430F79AE
:1015200007F0030707FA0CF7274307604C6814F429
:10153000403F70D03C4C276847F4804727602468C0
:1015400022F0030704F480440094384C07EB040CA9
:10155000DCF8084897074FEA177809FA08F7BC4300
:10156000334FB84202D1002724E054E0314FB84253
:1015700001D101271EE0304FB84201D1022719E006
:101580002E4FB84201D1032714E02D4FB84201D1AC
:1015900004270FE02B4FB84201D105270AE02A4F5C
:1015A000B84201D1062705E0284FB84201D10727EC
:1015B00000E0082707FA08F72743CCF80878DAF89C
:1015C00000405746D1F804C09C435FEACC2C00D5BC
:1015D0001C433C60DBF800405F46D1F804C09C43EC
:1015E0005FEA8C2C00D51C433C60DEF80040774657
:1015F000D1F804C09C435FEA8C3C00D51C433C609E
:10160000084F083F3C68D1F804C09C435FEACC3CDB
:1016100000D51C433C60521C102AFFF42FAFBDE8DC
:10162000F88F0000083C014044380240003001407F
:10163000000002400004024000080240000C02408A
:10164000001002400014024000180240001C02403A
:1016500001488068704700006C00002070B50400ED
:1016600025D094F83D00002520B984F83C50204650
:1016700000F0B8F8242084F83D002068016821F0CB
:10168000010101602068016841F4004101602068A7
:10169000016821F40041016000F0D6FF4D4A616805
:1016A000914201D84C4900E04C49884201D20120C6
:1016B00070BD4B492368B0FBF1F15E6826F03F0630
:1016C0000E435E606368934206D94FF496735943A4
:1016D0004FF47A73B1FBF3F12368491C1E6A26F0BC
:1016E0003F06314319626168914210D84900401E9B
:1016F000B0FBF1F2521CC2F30B02042A01D2042007
:1017000022E0B0FBF1F0401CC0F30B001CE0A2682B
:10171000F2B301EBC10303EB0116431EB3FBF6F377
:101720005B1C43F480431B0549D092B301EBC1021B
:1017300002EB0111401EB0FBF1F0401CC0F30B00A6
:1017400040F4804040F400402168CA694CF6FF73C1
:101750009A431043C861D4E9071001432068026826
:1017600022F0C00211430160D4E903010143206863
:10177000826848F2FF339A4311438160D4E905013E
:1017800008432168CA6822F0FF021043C86001E0E4
:101790000EE016E02068016841F001010160256457
:1017A000202084F83D00256384F83E50002070BD61
:1017B00001EB4106431EB3FBF6F35B1CB3E70120CC
:1017C000C2E701EB4101401EB0FBF1F0401CC0F349
:1017D0000B00B7E7A086010080841E0000093D00D1
:1017E00040420F002DE9F04186B0044614216846BE
:1017F000FEF77EFE23683B4CDFF8E4C00022394947
:1018000012250326042738481034634518D10B6885
:1018100043F002030B60096802AB01F0020105917D
:10182000C021CDE9001583E8C4006946FFF718FE22
:10183000206840F400102060206800F400101CE0D4
:10184000DFF8A8C063451CD10B6843F002030B60AE
:10185000096802AB01F0020105914FF44061CDE946
:10186000001583E8C4006946FFF7FAFD206840F4DC
:1018700080002060206800F48000059006B0BDE87C
:10188000F0811B488342F9D10868904640F004007B
:101890000860086800F004000590086840F0010046
:1018A00008600868694600F00100059058158DE849
:1018B00021011048CDE90367FFF7D2FD4FF4807096
:1018C0008DE8210169460C48CDE90367FFF7C8FDA3
:1018D000206840F400002060206800F40000CCE79D
:1018E00000540040303802400004024000580040DC
:1018F000005C00400008024000000240024881688D
:1019000002781144816070476C0000200B4810B5CC
:10191000016841F400710160016841F48061016077
:10192000016841F480710160032000F09FF80F20EE
:1019300000F006F800F050F8002010BD003C024016
:1019400030B505461F4887B00024016841F01001FA
:101950000160006806A900F01000009001A800F0E6
:101960004DFE0498A8B100F06FFE40001649174ADA
:10197000B0FBF1F11648491E026040F2E732C0E9BF
:101980000324C0E90114846101F002FA040003D0C9
:1019900015E000F059FEE9E70D4801F08FFA040068
:1019A0000DD1362000F034F8102D07D20022294640
:1019B000362000F03BF80748056000E0012407B03E
:1019C000204630BD4038024040420F000010004029
:1019D00010090020700000200C4882B0016841F41A
:1019E00080410160006800F4804000900748001FBB
:1019F000016841F0805101600068002200F08050D1
:101A000000900F21901E02B000F010B84438024040
:101A1000002809DB00F01F020121914040098000ED
:101A200000F1E020C0F8001170470000F0B40E4B48
:101A30001B680C46C3F30223C3F10705042D00D92C
:101A40000425191D072901D2002300E0DB1E012611
:101A500006FA05F1491E214099409E40761E164027
:101A60003143F0BC04F033BC0CED00E0064900F05B
:101A7000070208684FF6FF03184040EA0220034AB5
:101A800010430860704700000CED00E00000FA050C
:101A900070470068416200207047F0B50368586ADB
:101AA00039B19C6A4FF4827600EB144400204D1E3D
:101AB0000AE040EA024098620FE006EB8007DF5937
:101AC000401C04EB1744C0B2A842F6D344EA0240DB
:101AD0004FF4807202EB810158500020F0BDD0F825
:101AE000E00403F054BB01EBC10200EB8202D0F82A
:101AF000E004126A03F0A9BA01EBC10200EB820212
:101B0000D0F8E004D2F8602203F0FABAD0F8E0048A
:101B100003F03FBB0A0601F00F0101EBC10100EB2E
:101B2000810101D5143101E001F51571006804F05F
:101B30001BBA70B504460B0601F00F0000EBC001A4
:101B400004EB81014FF001024FF0000502D54A7508
:101B5000143103E081F8555201F51571087094F8BD
:101B60009404012808D084F89424206803F016FF18
:101B700084F89454002070BD022070BD70B50446F6
:101B800001F00F002279904201D9012070BD0B06AF
:101B900001F00F0101EBC10104EB81014FF00102E3
:101BA0004FF0000502D54A75143103E081F8555213
:101BB00001F515718D70087094F89404012808D00F
:101BC00084F89424206804F05BF884F8945400208E
:101BD00070BD022070BD01F00F0101EBC10100EBEF
:101BE0008100D0F8680270472DE9F04104460F06E5
:101BF00001F00F0000EBC00104EB81014FF0010682
:101C00004FF0000502D54E75143103E081F85552AE
:101C100001F51571C2F30A0208708A600B714A78E7
:101C200002B14883022B00D14D7194F8940401282D
:101C300009D084F89464206803F002FE284684F8F2
:101C40009454BDE8F0810220FBE710B501F00F04C9
:101C500004EBC40100EB8101C1E998230023C1F822
:101C6000683281F8553281F85442837901F5157153
:101C7000012B00D1CA618279006804F059F8002074
:101C800010BD70B504460D4601F00F002179884261
:101C900001D9012070BD29064FF000064FF0010266
:101CA00006D500EBC00104EB81014A75143107E051
:101CB00005EBC50104EB810181F8556201F5157151
:101CC0008A70087094F89404012807D084F894244A
:101CD000206804F001F8280702D007E0022070BD58
:101CE000A17904F29C42206803F09EFF84F894647A
:101CF000002070BD10B501F00F0404EBC40100EB2F
:101D00008101C1E9082300238B6201234B7501F88F
:101D1000144F8379012B00D1CA618279006804F0E5
:101D200007F8002010BD00002DE9FC5F056804469F
:101D3000284604F0B5F900287DD1206804F0DCF9CC
:101D4000002878D0D5F80808C0F30D20C4F8D404D2
:101D5000206804F0D1F9800704D52068416901F0BA
:101D600002014161206804F0C7F9C10604F29C40F9
:101D7000009034D52068816921F0100181612F6ABB
:101D800007F00F0000EBC00004EB8006C7F34340F0
:101D900006F51576022802D0062811D01AE047F67B
:101DA000F070074216D0C7F30A1217462846F168AA
:101DB00004F0A6F9F0683844F0607069384408E02F
:101DC00008222846009904F09BF97069C7F30A11AC
:101DD000084470612068816941F0100181612068C8
:101DE00004F08AF900034FF0080B4FF0000A4FF09F
:101DF00001097CD50026206804F05DF9074674E0EF
:101E0000F80770D0F1B2206804F06EF98046C00780
:101E100007D005EB4611C1F8089B3146204602F079
:101E200049F95FEA087024D505EB4611C1F808BBF3
:101E30002068016C00E023E200EB46100191D0F82D
:101E4000082BFB4B994205D9110403D54FF40041EF
:101E5000C0F8081B204600F0F6FAF54901988842C0
:101E600007D9A079012804D120680121009A03F044
:101E7000DBFE5FEAC86004D505EB46111020C1F80F
:101E8000080B5FEA88701DD56869000605D5D5F88E
:101E9000040840F48061C5F8041806EBC60004EBA2
:101EA000800090F8571200F51570012905D180F8CF
:101EB00003A0F1B2204600F0E9F905EB461102203B
:101EC000C1F8080B5FEA886004D505EB46102021B5
:101ED000C0F8081B5FEA884005D505EB46104FF4B3
:101EE0000051C0F8081B7F08761C002F88D120689D
:101EF00004F002F940036ED5206804F0D5F80746D7
:101F0000002666E0F80762D0F1B2206804F0DAF843
:101F10008046C00723D006F00F01D5F8342809FA0F
:101F200001F18A43C5F8342805EB4611C1F8089938
:101F3000A07901280FD106EBC60004EB8000D0E9A0
:101F400007211144016236B9606A20B92068012175
:101F5000009A03F069FEF1B22046FFF7C4FD5FEA84
:101F6000087003D505EB4611C1F808B95FEAC860EF
:101F700004D505EB46111020C1F808095FEA486056
:101F800004D505EB46104021C0F808195FEA8870B7
:101F900016D53146284604F058F806EBC60004EB87
:101FA0008000C17D1430012905D180F803A0F1B271
:101FB000204600F067F905EB46110220C1F8080938
:101FC0005FEA086003D53146204602F0D9F87F0861
:101FD000761C002F96D1206804F08EF8002811DAC4
:101FE000D5F8040820F00101C5F8041894F8CC04D1
:101FF00001282BD0204600F00BFA2068416901F03F
:1020000000414161206804F077F800050BD5D5F850
:102010000808C00702D0204600F03EFA2068416957
:1020200001F400614161206804F066F8C00467D5DE
:10203000D5F8040820F00100C5F804081021206834
:1020400004F003F800214FF67F3220E084F8CCA49E
:1020500000212046FFF71CFDCFE700BF05EB411034
:10206000C0F80829D0F8003923F40013C0F800396B
:10207000C0F8082BD0F8003B23F40013C0F8003B55
:10208000D0F8003B43F00063C0F8003B491C2079C6
:102090008842E3D8D5F81C0840F00111C5F81C1897
:1020A000E07B002828460DD0D0F8840840F00B01D2
:1020B000C5F88418D5F8440840F00B012846C5F847
:1020C00044180DE0D0F8140842F22B010843C5F87B
:1020D0001408D5F8100840F00B012846C5F8101870
:1020E000D0F8000820F4FE61C5F80018A179206836
:1020F000009A03F099FD2068416901F48051416123
:10210000206803F0F9FF800415D5206803F0D8FBA0
:10211000206803F0B8FFE07100F090FA0146E27920
:10212000206804F04BF8204600F05CF92068416913
:1021300001F400514161206803F0DEFF000707D57C
:10214000204600F069F92068416901F00801416109
:10215000206803F0D1FF000616D5A86920F08001A1
:10216000A96101260DE000BF06EBC60004EB80006C
:1021700090F85702012803D1F1B22046FFF7CAFCBC
:10218000761C2079B042EFD8206803F0B5FFC0027A
:102190001FD501264F4614E005EB4610D0F8001974
:1021A00006EBC60004EB8002107E012808D100294E
:1021B00006DAF0B240F08001D7752046FFF7AAFC9E
:1021C000761C2079B042E7D82068416901F480117B
:1021D0004161206803F090FF800234D501204A4617
:1021E00029E000BF05EB4011D1F8001B00EBC00354
:1021F00004EB830393F85862012E1BD1002919DAEE
:1022000094F8D46401F4803106F00106B14211D192
:1022100083F85722A96941F08003AB616969090617
:1022200008D4D5F8040840F40070C5F8040805E0A7
:102230000A30544F401C21798142D3D8206841692B
:1022400001F400114161206803F056FF400007D5FA
:102250002046FFF744FC2068416901F0804141615C
:10226000206803F049FF40070AD5206845686807E1
:1022700002D52046FFF74AFC2068416829434160A7
:10228000BDE8FC9FD0F8E00402F0D5BFD0F8E00430
:1022900002F0E5BFF8B5040005D094F8950426686F
:1022A000002510B106E00120F8BD84F894542046C2
:1022B00000F056F8032084F89504B6F1A04F00D141
:1022C000A571206803F0AAFC207C8DF8000094E83A
:1022D0000F0003F003FB0226B8BB0021206803F0C7
:1022E0002EFF90BB002001270DE000BF00EBC001D6
:1022F00004EB81014F750875C8850D76CD610D62BF
:10230000401CC0B24D6221798142EFD8002011E01B
:1023100000EBC00104EB810181F8555281F85402B1
:1023200081F85852C1F85C52C1F86052401CC0B2EA
:10233000C1F8645221798142EAD8207C8DF80000EE
:1023400094E80F0003F0ACFB10B184F89564AAE7A1
:10235000657484F89574206803F094FB0020F8BD40
:1023600010B586B0044614216846FEF7C1F820680F
:10237000B0F1A04F2FD119480021026842F00102AC
:102380000260006800F0010005904FF4C05000901A
:102390000220CDE90101032003900A200490694640
:1023A0000F48FFF75DF80D48001D016841F08001FE
:1023B00001600A481430016841F4804101600068FE
:1023C000002200F48040059005214320FFF72EFBFA
:1023D0004320FFF71DFB06B010BD0000303802405F
:1023E0000000024070B50446C079012570B1022892
:1023F00001D0FEF782FA2946D4F8E00402F09DFFEE
:10240000D4F8E004BDE8704002F052BF0025F2E7C6
:10241000D0F8E00402F07ABFD0F8E00402F080BF08
:1024200010B5044690F8940401280AD0012084F8DD
:1024300094046174206803F0B0FE002084F89404D2
:1024400010BD022010BDD0F8E02400F29C411046DF
:1024500002F07FBF10B50446006894F89414012977
:1024600009D0012184F89414C168490609D5617B1B
:10247000012902D005E0022010BD816B41F48031BA
:102480008163206803F0BFFD206803F0EDFA0020AF
:1024900084F8940410BD000010B50446D0F8E004A0
:1024A00002F099FF2068D0F8001E41F00101C0F849
:1024B000001EE07A002804D00248016841F00601BD
:1024C000016010BD10ED00E02DE9F0470E4605005B
:1024D00065D0DFF81481D8F80000F7B200F00700EB
:1024E000B04207D288F80070D8F8000000F007006A
:1024F000B04254D128683D4C810712D5400703D51E
:10250000206840F4E05020602878000703D5206858
:1025100040F4604020602068A96820F0F000084383
:1025200020602878C0072DD0304968680839012814
:1025300012D0022813D0032811D009688907002976
:102540002DDA216821F0030101432160FFF780F8B3
:10255000814641F2883A0EE009688903EFE709688D
:102560008901ECE7FFF774F8A0EB0901514502D9A6
:102570000320BDE8F0872068696800F00C00B0EB2C
:10258000810FEFD1D8F80010404601F00701B142A9
:1025900007D90770006800F00700B04201D00120A1
:1025A000E7E72878400705D52068E96820F4E0507F
:1025B000084320602878000706D52068296920F4A0
:1025C000604040EAC100206000F05EF82168084ADF
:1025D000C1F30311515CC840064908600648006811
:1025E000FFF7AEF90020C4E7003C02400838024083
:1025F000607B000878000020700000200F2202603D
:102600000C4A136803F003034360136803F0F003FC
:102610008360136803F4E053C36012684FF4E0531F
:1026200003EAD20202610448006800F00700086073
:102630007047000008380240003C02400148006832
:1026400070470000780000200448054900680968C8
:10265000044AC1F38221515CC840704778000020D1
:1026600008380240707B0008044805490068096882
:10267000044AC1F34231515CC840704778000020E1
:1026800008380240707B0008154810B5006810F04B
:102690000C02144813D04110042A0FD0082A0ED17E
:1026A0000F4C241F2268236802F03F025B0207D50B
:1026B0002068C0F38810A0FB010106E0084610BDA9
:1026C0002168C1F38811A1FB00010023FDF74CFE36
:1026D0002168C1F30141491C4900B0FBF1F010BD74
:1026E000083802400024F4002DE9F84F04006ED0B1
:1026F0002078DFF84C93C007A9F104054AD009F10E
:1027000004000168C1F38101012908D00068C0F309
:10271000810002280AD1D9F80000400206D52868B5
:10272000800337D560680028E1D033E06068B0F5F9
:10273000803F10D0B0F5A02F286810D020F4803052
:102740002860286820F4802028606068A8B1FEF71F
:102750007FFF06460DE0286840F48030F4E740F43F
:1027600080202860F7E700BFFEF772FF801B642817
:1027700073D828688003F7D50CE0FEF769FF06469A
:1027800005E000BFFEF764FF801B6428F0D82868CE
:102790008003F7D42078DFF8AC8280074FF0000A7E
:1027A0003ED5A748001D016811F00C0F08D0006845
:1027B000C0F3810002280BD1D9F80000400207D4F1
:1027C0002868800716D5E068012800D112E033E1BF
:1027D000E068B8B10120C8F80000FEF739FF0646EE
:1027E00005E000BFFEF734FF801B0228C0D8286830
:1027F0008007F7D52868216920F0F80040EAC10079
:1028000028600DE0C8F800A0FEF722FF064604E0AD
:10281000FEF71EFF801B02281FD828688007F7D408
:102820002078000722D5864F87486169703771B1DB
:1028300001210160FEF70CFF064604E0FEF708FFE9
:10284000801B022809D838688007F7D50EE0C0F849
:1028500000A0FEF7FDFE064605E082E0FEF7F8FE6A
:10286000801B02287DD838688007F7D4207840077D
:1028700068D5DFF8CCB100270BF13C0BDBF800008A
:10288000C0000BD4DBF8001041F08051CBF80010F1
:10289000DBF80000012700F0805000906B4E30689C
:1028A000C00510D4306840F480703060FEF7D0FE70
:1028B000009005E0FEF7CCFE0099401A022850D89F
:1028C0003068C005F6D55E4EA0686C3601280FD082
:1028D0000528306810D020F001003060306820F00A
:1028E00004003060A068B8B1FEF7B2FE00900FE0BF
:1028F000306840F00100F4E740F004003060F7E792
:10290000FEF7A6FE0099411A41F28830814266D84E
:1029100030688007F4D50EE0FEF79AFE009007E0DD
:10292000FEF796FE0099411A41F28830814256D84E
:1029300030688007F4D42FB1DBF8001021F080510B
:10294000CBF80010A069C8B33D49091D0968C1F35F
:10295000810102294AD00228504607D0C8F86000F9
:1029600000E03CE0FEF774FE04463BE04746C8F852
:102970006000FEF76DFE064605E000BFFEF768FE4C
:10298000801B02282BD828688001F7D4D4E90701DE
:102990000843A16A2E4A490802EB0141626A41EAF2
:1029A0008211084394F82C1040EA0161C9F8001024
:1029B00001203866FEF74CFE044606E03EE000BF0C
:1029C000FEF746FE001B022809D828688001F7D5CB
:1029D00034E000BFFEF73CFE001B022802D90320B2
:1029E000BDE8F88F28688001F4D427E00128F7D0EB
:1029F000D9F80000E26900F4800191421CD1226AFA
:102A000000F03F01914217D147F6C071626A014060
:102A1000B1EB821F10D1A26A4FF0FF3300F44031B6
:102A200003EB5202B1EB024F06D194F82C1000F0E8
:102A30007060B0EB016F01D00120D1E70020CFE73B
:102A40000438024000004742800E474200700040B8
:102A50000000FFFF7047000038B5016804464A686F
:102A60008868C043430606D5C30704D1D3435B0639
:102A700001D4216C05E0830708D4D3431B0605D499
:102A8000616C01B02046BDE830400847830603D59D
:102A9000430601D5C30551D4D3439B064ED4430608
:102AA0000AD494F85130032B49D0636D43F00403EA
:102AB0006365CB688B680093830609D4636D43F02C
:102AC000010363658B6800930B6823F040030B6080
:102AD000C00506D4606D40F008006065206880681D
:102AE0000090606D002829D02068416821F0E00145
:102AF0004160012084F85100900701D4D00722D012
:102B00002068416821F003014160114DE06C40B143
:102B10000565E06CFEF745FB18B1606D40F04000C4
:102B20006065A06C002809D00565A06CFEF739FB34
:102B3000002803D0606D40F04000606538BDC86873
:102B40008868009038BD2046FFF784FF38BD00003C
:102B50003142000870B5040009D0606A002540B118
:102B600025616561A56294F8510040B10CE0012037
:102B700070BD6068B0F5827FF4D0E561F2E784F85B
:102B80005050204600F044F8022084F8510020689C
:102B9000016821F040010160A088218900F4827061
:102BA00001F404410843A18901F400610843217C38
:102BB00001F002010843217D01F001010843218B4E
:102BC00001F400710843217F01F03801084394F8B3
:102BD000201001F080010843218D01F400510843C9
:102BE00021680860A069042101EA104094F82410CB
:102BF00001F010010843216848602068C16921F490
:102C00000061C1616565012084F85100002070BD3C
:102C1000F0B587B0044614216846FDF769FC314AD7
:102C20002168002430480225032691421ED12E49F6
:102C300014310A6842F480520A60096801F4805134
:102C40000591016841F0010101600068029400F003
:102C500001000590E020CDE900050520CDE90360E5
:102C600069462248FEF7FCFB07B0F0BD204A9142BE
:102C7000FAD11D4910310A6842F400420A6009681D
:102C800001F400410591016841F00401016001680F
:102C900001F004010591016841F002010160006842
:102CA00002AA00F0020005904FF44060CDE9000553
:102CB000062782E8D00069460E48FEF7D1FB2020A7
:102CC000CDE9000502AA694682E8D0000A48FEF76D
:102CD000C7FB002205213320FEF7A8FE3320FEF7B4
:102CE00097FEC1E70030014030380240000002404A
:102CF000003C00400008024000040240704770475A
:102D000070B590F83C20012A32D0012480F83C4074
:102D1000022280F83D2003685A689D6822F0700600
:102D20000A6832435A60134B02689A4214D0B2F1D7
:102D3000804F11D0104B9A420ED0104B9A420BD0BC
:102D40000F4B9A4208D00F4B9A4205D00E4B9A4235
:102D500002D00E4B9A4204D1496825F080031943F2
:102D6000916080F83D40002180F83C10084670BD1D
:102D7000022070BD00000140000400400008004037
:102D8000000C0040000401400040014000180040D9
:102D900010B5040003D094F83D0010B107E0012005
:102DA00010BD002084F83C00204600F01FF80220EF
:102DB00084F83D00211D206801F0D6FA012084F836
:102DC000460084F83E0084F83F0084F8400084F810
:102DD000410084F8420084F8430084F8440084F8F9
:102DE000450084F83D00002010BD000008B52D49C5
:102DF00002682D488A420ED1016841F0200101602D
:102E00000068002200F02000009005213720FEF726
:102E10000DFE372042E02449244B091D9A420ED171
:102E2000086840F4003008600868002200F40030B0
:102E3000009005211920FEF7F9FD19202EE01C4B0A
:102E40009A4208D1086840F480200860086800F4BD
:102E50008020009008BD17498A420ED1016841F0D8
:102E6000800101600068002200F0800000900521D0
:102E70002C20FEF7DBFD2C2010E00F498A42E9D11F
:102E8000016841F4807101600068002200F48070E4
:102E9000009005212D20FEF7C9FD2D20BDE808403A
:102EA000FEF7B6BD00140040403802400044014027
:102EB00000480140001C00400020004090F83D10F8
:102EC000012901D001207047022180F83D100168DE
:102ED000CA6842F00102CA6000681149884214D0F1
:102EE000B0F1804F11D00F4988420ED00E49884270
:102EF0000BD00E49884208D00D49884205D00D49B3
:102F0000884202D00C49884204D1816801F007014F
:102F1000062903D0016841F00101016000207047DB
:102F2000000001400004004000080040000C004088
:102F30000004014000400140001800402DE9F0412C
:102F40000D46040003D094F83D0018B108E00120BC
:102F5000BDE8F081002084F83C00204600F040F8F5
:102F6000022084F83D002068816844F20702914302
:102F70008160211D206801F0F7F92268906891694D
:102F8000166A2B68AF69034340F20330814341EA7C
:102F90000721A868EF6908434FF6FC418843E968B8
:102FA00040EA0720014328692F6A000140EA073000
:102FB000084369686D6926F0AA0646EA05152943A3
:102FC00093602268906154F8460B0162012004F876
:102FD0001F09E0752076E0762077A0750020B7E71E
:102FE00070B586B0044614216846FDF781FA33486F
:102FF00022680024314910380225B2F1804F27D0D1
:103000002F4B9A4222D10A6842F002020A600968F4
:1030100001F002010591016841F0040101600068BE
:10302000694600F004000590C0200090CDE90154ED
:103030002448CDE90345FEF713FA002205211D209F
:10304000FEF7F4FC5FF01D00FEF7E2FC06B070BD79
:103050000A6842F001020A60096801F00101059165
:10306000016841F001010160016801F00101059171
:10307000016841F0020101600068012600F00200D1
:1030800005904FF400400090CDE90154CDE903468E
:1030900069460D48FEF7E4F908200090CDE9015497
:1030A000CDE9034669460948FEF7DAF90022052111
:1030B0001C20FEF7BBFC1C20C6E700004038024085
:1030C00000040040000802400000024000040240EA
:1030D00070472DE9F04104460068C66805694FF065
:1030E0000007A90713D5B10711D5F91E0161012009
:1030F0002077206880698007204602D0FFF7E8FF2C
:1031000004E000F0C1F8204600F074F92777680762
:1031100016D5700714D521686FF0040008610220ED
:1031200020772068806910F4407F204602D0FFF7A6
:10313000CFFF04E000F0A8F8204600F05BF9277705
:10314000280715D5300713D521686FF008000861EE
:10315000042020772068C0698007204602D0FFF74E
:10316000B7FF04E000F090F8204600F043F927771D
:10317000E80616D5F00614D521686FF01000086136
:10318000082020772068C06910F4407F204602D0D4
:10319000FFF79EFF04E000F077F8204600F02AF9E0
:1031A0002777E80708D0F00706D021686FF0010004
:1031B0000861204600F020F9280608D5300606D51B
:1031C00021686FF0800008612046FFF797FD6806D0
:1031D00008D5700606D521686FF0400008612046CA
:1031E00000F014F9A8060AD5B00608D521686FF0DA
:1031F000200008612046BDE8F041FFF780BDBDE832
:10320000F081000010B586B0044614216846FDF731
:103210006FF92368174C002117480222A34211D1ED
:10322000036843F001030360006800F001000590AB
:103230000C200090CDE901210320CDE9031069465F
:103240000E4813E00E4CA34212D1036843F0020370
:103250000360006800F002000590E0000090CDE9F6
:1032600001210920CDE9031069460648FEF7F8F868
:1032700006B010BD0040014030380240000002405E
:103280000018004000040240704770B5044690F8F2
:103290003C0000260D4601280FD0012084F83C0098
:1032A0006AB1042A1DD0082A2FD00C2A3FD001264B
:1032B000002084F83C00304670BD022070BD2068BC
:1032C00001F0BEF82068816941F008018161206841
:1032D000816921F004018161206881692A691143B3
:1032E00011E0206801F0DCF82068816941F4006198
:1032F00081612068816921F4806181612068816930
:103300002A6941EA02218161D2E7206801F0FEF8D2
:103310002068C16941F00801C1612068C16921F0DC
:103320000401C1612068C1692A69114311E0206864
:1033300001F020F92068C16941F40061C161206891
:10334000C16921F48061C1612068C1692A6941EACB
:103350000221C161ACE710B5040003D094F83D0030
:1033600010B107E0012010BD002084F83C00204689
:1033700000F01EF8022084F83D00211D206800F0B6
:10338000F3FF012084F8460084F83E0084F83F00F3
:1033900084F8400084F8410084F8420084F8430037
:1033A00084F8440084F8450084F83D00002010BDF6
:1033B00008B500680C49884208D10C48016841F4FE
:1033C00080310160006800F480300BE008498842D9
:1033D00009D10648001F016841F040010160006802
:1033E00000F04000009008BD004001404438024019
:1033F000001800407047000000680349884201D16E
:10340000FEF77CBA7047000000100040704770471C
:1034100070470000F8B5016804460868CA684B693F
:1034200010F00F0F4FF0000559D003F0010602F421
:103430009077374365D0C10705D0D10503D5616CBE
:1034400041F001016164410705D5D90703D0616CE2
:1034500041F002016164810705D5D90703D0616C91
:1034600041F004016164010707D502F020013143F6
:1034700003D0616C41F008016164616C00293AD0AD
:10348000800604D5900602D5204601F0D6F82068C3
:103490004069616CC0F38010090700D460B3204616
:1034A00001F0A4F820684069400621D52068143056
:1034B00050E8001F21F0400140E80012002AF5D139
:1034C000E06BA8B16E490165E06BFDF76AFE00286C
:1034D00011D0E06B016D01B0BDE8F04008478306F4
:1034E0000FD593060DD52046BDE8F84001F0A5B8EC
:1034F0002046FFF78DFFF8BD2046FFF789FF656482
:10350000F8BD266B2023012E7DD1C6067BD5D606BD
:1035100079D508684868009048694FF0020640066F
:1035200041D5E16B086840680004000CE8D0A28D2A
:103530008242E5D9E085C869B0F5807F2DD020684A
:103540000C3050E8001F21F4807140E80012002A7E
:10355000F5D12068143050E8001F21F0010140E847
:103560000012002AF5D12068143050E8001F21F025
:10357000400140E80012002AF5D184F8423025636A
:1035800020680C3050E8001F21F0100140E80012C4
:10359000002AF5D1E06BFDF7BBFD6663A08DE18DE0
:1035A000401A81B22AE0A08DE18D401A81B2E08DEF
:1035B0000028A5D00029A3D022680C3252E8000FC1
:1035C00020F4907042E80007002FF5D120681430F5
:1035D00050E8002F22F0010240E80027002FF5D12B
:1035E00084F84230256320680C3050E8002F22F028
:1035F000100240E80023002BF5D166632046FFF758
:1036000006FFF8BDFFE705062BD5150629D594F86A
:1036100041002128F5D1A068B0F5805F01D1206973
:10362000B0B1206A411C2162216800784860E08CBA
:10363000401E0004000CE084E3D12068C16821F042
:103640008001C1602068C16841F04001C160D8E7D5
:10365000206A0088C0F308004860206A801C20624D
:10366000E5E74006CDD55006CBD5CA68204622F006
:103670004002CA6084F8413000F043F9C1E700001D
:10368000DD45000870B5040004D094F84100002521
:1036900010B106E0012070BD84F84050204600F0D3
:1036A00023F8242084F841002068C16821F40051E7
:1036B000C160204601F022F82068016921F49041A0
:1036C00001612068416921F02A0141612068C168D7
:1036D00041F40051C1606564202084F8410084F801
:1036E00042006563002070BD2DE9F04F87B00446AD
:1036F00014216846FCF7FCFE7848DFF8DC81D4F83A
:1037000000C076491038032702260822744B002592
:103710004FF4807B4FF000694FF4806AC4454FD16D
:10372000D1F800C04CF4002CC1F800C0096801F4C5
:1037300000210591016841F0010101600068CDE9B7
:10374000007600F00100CDE90420CDE9025769467A
:103750001846FDF785FE644E62484F463060C6E964
:103760000195C6E9035A7561C6E9065B3562D04624
:1037700030467562FDF7F8FD08B1FDF7BEF8E66367
:10378000B463594E574860363030E6E802074020AF
:10379000A6E82101544846F814596030B561F56136
:1037A00035627562FDF7E0FD08B1FDF7A6F8A66386
:1037B000002205213420B463FEF738F9342064E098
:1037C000DFF82881C44565D10B6843F480130B6092
:1037D000096801F480110591016841F0040101605C
:1037E000016801F004010591016841F008010160E0
:1037F000006802AB00F0080005904FF48050CDE95E
:103800000006904683E8A00169463948FDF728FE86
:103810000420CDE9000602AB694683E8A0013548E3
:10382000FDF71EFE304E2F48C03630383060C6E9F6
:103830000195C6E9035A7561C6E9065B3562C8465B
:10384000574630467562FDF78FFD08B1FDF755F814
:10385000E663B4632348284E7830E6E80208402047
:10386000A1C6254846F81459B561F56135627562FF
:10387000FDF77AFD08B1FDF740F8A66300220521A7
:103880003520B463FEF7D2F83520FEF7C1F807B053
:10389000BDE8F08F19498C45F9D11049091D0A6816
:1038A00042F010020A60096801F0100105910168F8
:1038B00041F0010101600068029500F001000590EF
:1038C0004FF4C060CDE900060720CDE903706946DA
:1038D0001846FDF7C5FDDAE7004C004040380240CD
:1038E000000002404060024090070020005000406D
:1038F00000080240000C0240B00800200010014007
:1039000070477047FEE70000F0B500230A24302519
:1039100037261F4611E000BFB4EB107F02D905EB3C
:10392000107C01E006EB107C01F813C001EB430CA6
:1039300000015B1C8CF80170DBB29342ECD3F0BD4C
:103940007FB5002131480091019102912E4A0391E7
:10395000026001244FF480320461C0E90121047641
:1039600080F820102A4AC0E90A210625C561C160F5
:1039700080F830404461FDF702F908B1FCF7BDFF63
:103980000C20CDE900040224694620480294FCF78B
:10399000B7FF08B1FCF7B1FF0D20CDE9000469467F
:1039A0001A48FCF7ADFF08B1FCF7A7FF0E20009006
:1039B0000320019069461548FCF7A2FF08B1FCF707
:1039C0009CFF0F2000900420019069460F48FCF7EF
:1039D00097FF08B1FCF791FF10200090052001909F
:1039E00069460A48FCF78CFF08B1FCF786FF1120F6
:1039F000CDE9000569460548FCF782FF002801D0A3
:103A0000FCF77BFF7FBD0000002001408C010020FF
:103A10000100000F0F4810B50D49016007214160FA
:103A200000214FF400328160C0E90312D2004261EC
:103A30000176417601228276C17601774277FDF7E1
:103A40001CFA002803D0BDE81040FCF756BF10BD9B
:103A500000640040340200200F4810B50D49016099
:103A60000721416000214FF400328160C0E9031258
:103A7000D20042610176417601228276C1760177D9
:103A80004177FDF7FAF9002803D0BDE81040FCF7B4
:103A900034BF10BD006800405C0200201D4808B51E
:103AA000016841F480010160016801F48001009126
:103AB000016841F4001101600068002200F4001068
:103AC000009005210B20FDF7B1FF0B20FDF7A0FFB3
:103AD000002205210D20FDF7A9FF0D20FDF798FF1D
:103AE000002205210F20FDF7A1FF0F20FDF790FF19
:103AF000002205212F20FDF799FF2F20FDF788FFD9
:103B0000002205213820FDF791FFBDE8084038204C
:103B1000FDF77EBF3038024010B5044A002104484A
:103B200002F058FC0349086010BD0000347B000817
:103B30004B42000800000020154808B5016841F01C
:103B400080010160016801F080010091016841F08D
:103B500004010160016801F004010091016841F075
:103B600001010160016801F001010091016841F06B
:103B700002010160016801F002010091016841F059
:103B800008010160006800F00800009008BD000016
:103B9000303802400D4810B50B4901600C494160B6
:103BA00000214FF480428160C0E9031241618161CC
:103BB000C1610162FDF752FD002803D0BDE810404D
:103BC000FCF79BBE10BD00000054004084020020A2
:103BD000801A06000D4810B50B4901600C49416080
:103BE00000214FF480428160C0E90312416181618C
:103BF000C1610162FDF732FD002803D0BDE810402D
:103C0000FCF77BBE10BD000000580040D802002029
:103C1000801A06000D4810B50B4901600C4941603F
:103C200000214FF480428160C0E90312416181614B
:103C3000C1610162FDF712FD002803D0BDE810400C
:103C4000FCF75BBE10BD0000005C00402C030020B0
:103C5000801A06000F4810B50D4901604FF48271BB
:103C6000416000218160C1604FF400720161C0E9D0
:103C70000512C1610162416281620A21C162FEF7DF
:103C800069FF002803D0BDE81040FCF736BE10BD28
:103C900000300140800300200F4810B50D4901603D
:103CA0004FF48271416000218160C1604FF4007265
:103CB0000161C0E90512C1610162416281620A21AC
:103CC000C162FEF747FF002803D0BDE81040FCF7B3
:103CD00014BE10BD003C0040D80300200C4810B5B5
:103CE0000A490160A7214160002142F20F72C0E938
:103CF0000212016180218161FFF74AF8002803D098
:103D0000BDE81040FCF7F9BD10BD000000440140C3
:103D1000500500200B4810B50949016000214FF6FD
:103D2000FF724160C0E9021201618161FFF730F862
:103D3000002803D0BDE81040FCF7DFBD10BD000037
:103D4000004801409805002010B588B01C21684645
:103D5000FCF7CEFB16481549002401600321C0E999
:103D6000011440F2E731C0E903148461FFF7F3FA6C
:103D700008B1FCF7C2FD6020CDE9000402940022E6
:103D800069460B480494FFF780FA08B1FCF7B5FDCB
:103D9000042269460648FFF778FA08B1FCF7ADFD42
:103DA0000348FFF72FFA08B010BD000000180040CC
:103DB000E00500200B4810B509490160532141601E
:103DC000002142F20F72C0E9021201618161FEF727
:103DD000DFFF002803D0BDE81040FCF78EBD10BD0A
:103DE000001C0040280600200B4810B5094901605E
:103DF00053214160002142F20F72C0E902120161B9
:103E00008161FEF7C5FF002803D0BDE81040FCF734
:103E100074BD10BD002000407006002010B58CB0AD
:103E200024216846FCF764FB0024164809944FF0EF
:103E300080410A94C0E900144FF6FF71C0E90241C5
:103E4000046184610320CDE900040120CDE902046E
:103E50000494CDE905400420CDE9074069460948AE
:103E6000FFF76CF808B1FCF748FD099409A905486B
:103E70000A94FEF745FF002801D0FCF73EFD0CB088
:103E800010BD00003004002010B58CB0242168461D
:103E9000FCF72EFB00241648099414490A94C0E943
:103EA00000144FF6FF71C0E90241046184610320F0
:103EB000CDE9000401200421CDE902040491CDE9FB
:103EC0000540079469460A480894FFF737F808B197
:103ED000FCF713FD099409A905480A94FEF710FFA1
:103EE000002801D0FCF709FD0CB010BD0004004013
:103EF000780400201CB500240F4800940D4901945B
:103F000001605321C0E9011442F20F71C1608021A8
:103F10008161FEF73DFF08B1FCF7EFFC00946946B4
:103F200005480194FEF7ECFE002801D0FCF7E5FC03
:103F30001CBD000000140040C004002010B588B073
:103F40001C216846FCF7D4FA164815490024016084
:103F50000721C0E9011440F2E731C0E9031484618C
:103F6000FFF7F9F908B1FCF7C8FC6020CDE90004BF
:103F70000294002269460B480494FFF786F908B1C1
:103F8000FCF7BBFC042269460648FFF77EF908B13E
:103F9000FCF7B3FC0348FFF735F908B010BD00008B
:103FA00000400140080500200C4810B50A49016096
:103FB0004FF4E1314160002181600C22C160C0E911
:103FC00004128161C161FFF75DFB002803D0BDE8E9
:103FD0001040FCF792BC10BD004C0040B806002019
:103FE0000C4810B50A4901604FF4E13141600021ED
:103FF00081600C22C160C0E904128161C161FFF7D8
:1040000041FB002803D0BDE81040FCF776BC10BD92
:1040100000500040000700200C4810B50A4901601C
:104020004FF4E1314160002181600C22C160C0E9A0
:1040300004128161C161FFF725FB002803D0BDE8B0
:104040001040FCF75ABC10BD00100140480700208A
:1040500010B500220F49104800F0D2FF08B1FCF75C
:104060004CFC0E490C4801F0E2F908B1FCF745FCA4
:104070000B49094800F090FD08B1FCF73EFC0648EA
:1040800001F058FA002803D0BDE81040FCF735BC19
:1040900010BD000008000020580900205401002035
:1040A00058000020FEE7FEE70148FDF73DBE000096
:1040B000542000202DE9F04103680D4604461E6C93
:1040C00003EB4511D1F8080B94F806E04FF40047D4
:1040D0004FF0200C04F29C42BEF1010F09D0DFF832
:1040E00098E0764539D1020432D500BFC1F8087B8B
:1040F0003FE0224B5FEA007E04D59E4239D900049E
:10410000F4D436E05FEA806E02D5C1F808CB30E027
:1041100010F0280F2DD19E4201D90004E6D405EB02
:10412000C50004EB8000D1F8101BD0F87432C1F345
:104130001201591AC0F8681200F51570ADB903697B
:104140001BB1C2681144C1600FE0012120680AE080
:1041500080060AD5C1F808CB07E035B9D4F8640267
:1041600018B90021184601F05FFDE9B22046FDF7BD
:10417000C3FC0020BDE8F0810A31544F0A30544F8F
:104180002DE9F84F0E4601EBC60100EB8104814694
:104190000568D4E909101434884202D90120BDE829
:1041A000F88F081AA168814200D20846C01C87080F
:1041B00005EB46181BE000BFA0EB010AA0685045C4
:1041C00000D282460AF10300870899F806000090A1
:1041D0001FFA8AF3F2B22846E16802F063F8E16858
:1041E00001EB0A00E060616901EB0A006061D8F848
:1041F000180980B2B84205D3D4E90401814201D242
:104200000028D9D1D4E90401884208D806F00F016A
:1042100001208840D5F834188143C5F834180020AF
:10422000BDE700000148FEF717BC0000D8030020DE
:1042300010B5806B0021C187C186FEF70BFC10BD55
:104240000178407841EA00207047FFF701FF012024
:1042500002F084F8FBE710B54FF0E020006903F0AE
:10426000ADFA012803D0BDE8104002F0DBBF10BD5D
:1042700030B593B030216846FCF73AF914210CA808
:10428000FCF736F91D480025016841F080510160B6
:10429000006800F0805011901948016841F4804195
:1042A00001600068022400F4804011900120009019
:1042B000000401908001CDE9064004200890A82068
:1042C000CDE9090407200B906846FEF70DFA08B106
:1042D00072B6FEE70CA90F2081E831004FF4A05020
:1042E0000F904FF48050109005210CA8FEF7ECF8C9
:1042F000002801D072B6FEE713B030BD403802404E
:10430000007000400248016841F47001016070478C
:1043100088ED00E00148FEF7DCBE000050050020FB
:104320000148FEF7D6BE0000300400200148FEF729
:10433000D0BE0000780400200148FEF7CABE00008D
:10434000100900200148FEF7C4BE0000C004002090
:104350000148FEF7BEBE0000700600200148FEF7CF
:10436000B8BE000028060020F0B50268294C2A4D8E
:104370002A4E2B4F2B4B4FF0804CA04209D060456A
:1043800007D0A84205D0B04203D0B84201D098422D
:1043900004D122F0700E4A6842EA0E02A0421BD0FD
:1043A000604519D0A84217D0B04215D0B84213D0FA
:1043B000984211D01C4DA8420ED01C4DA8420BD0E3
:1043C0001B4DA84208D01B4DA84205D01A4DA8424B
:1043D00002D01A4DA84203D122F44075CA682A437C
:1043E0004D6922F080022A4302608A68C2620A682C
:1043F0008262A04201D0984201D109690163012182
:1044000041610169C90703D0016921F0010101611E
:10441000F0BD000000000140000400400008004022
:10442000000C0040000401400040014000440140F5
:104430000048014000180040001C004000200040DF
:10444000F0B5036A026A22F00102026242688469DE
:10445000124E24F073050C682C4323F002058B6880
:104460002B430D4DA84201D0B04205D123F00807DF
:10447000CB683B4323F00403A84201D0B04205D1EE
:104480004D6922F4407215438A692A43426084616F
:10449000496841630362F0BD00000140000401402F
:1044A000F0B5026A036A23F010030362436884696B
:1044B0000D6824F4E64444EA05248D6822F02002C5
:1044C00042EA05120F4D104EA84201D0B04206D16B
:1044D000CF6822F0800242EA071222F04002A8428E
:1044E00001D0B04207D14D6923F4406343EA85030C
:1044F0008D6943EA85034360846149688163026290
:10450000F0BD00000000014000040140F0B5026A67
:10451000036A23F4807303624368C46922F400725F
:1045200024F073050C68124E2C438D6842EA052274
:104530000E4DA84201D0B04206D1CF6822F40062ED
:1045400042EA072222F48062A84201D0B04207D199
:104550004D6923F4405343EA05138D6943EA05137B
:104560004360C4614968C1630262F0BD000001405C
:104570000004014030B5046A026A22F480520262EB
:104580004268C3690D6823F4E64343EA05238D6856
:1045900024F4005444EA0534084DA84202D0084DE2
:1045A000A84204D14D6922F4804242EA8512426059
:1045B000C36149680164046230BD0000000001402D
:1045C000000401400148FEF725BF0000B8060020A6
:1045D0000148FEF71FBF00000007002010B5806BE8
:1045E0000021C185C184FEF713FF10BD01680C31A5
:1045F00051E8002F22F4907241E80023002BF5D1FE
:104600000168143151E8002F22F0010241E8002333
:10461000002BF5D1016B012909D101680C3151E85A
:10462000002F22F0100241E80023002BF5D12021B9
:1046300080F8421000210163704708B590F84210DD
:10464000222901D0022008BD82684FF480539A428B
:1046500001D1016921B1816A9A421BD04AB10AE0B5
:104660000268816A5268C2F308020A80816A891C62
:1046700008E0026972B10268526802F07F020A70B3
:10468000816A491C8162C18D491E0904090CC185DA
:1046900003D01BE002685268F1E70168CA6822F0A3
:1046A0002002CA600168CA6822F48072CA60016888
:1046B0004A6922F001024A61202180F8421000215B
:1046C0004163026B012A03D0FFF71AF9002008BDED
:1046D000016301680C3151E8002F22F0100241E81B
:1046E0000023002BF5D101680A68D20602D50A68BA
:1046F00049680091818DFEF78AFEE7E770B50446B0
:1047000000680169E26821F44051114301612169A7
:10471000A068E26908436169114308432168CA68D7
:1047200049F20C639A430243CA6020684169A26956
:1047300021F440711143416131492068884202D01F
:104740003049884202D1FDF78FFF01E0FDF77CFF81
:10475000E2690023192164253226B2F5004F626810
:1047600028D0A0FB0101930F9200FBF7FDFD01464D
:10477000B0FBF5F06FF01802504301EB800006EB40
:104780000010B0FBF5F000F0F002B1FBF5F002EB29
:104790000012B1FBF5F06FF01803584301EB8000F5
:1047A00006EB0010B0FBF5F000F00F00216810449C
:1047B000886070BDA0FB010192185B41FBF7D4FD3E
:1047C0000146B0FBF5F00201B1FBF5F06FF0180304
:1047D000584301EB800006EBC000B0FBF5F000F0A1
:1047E000F80002EB4002B1FBF5F0584301EB80000A
:1047F00006EBC000B0FBF5F000F00700D6E70000C4
:1048000000100140001401402DE9F0410C46D0F8A1
:10481000D412D0F8C82200EB8101D1F8C01229B31C
:1048200004F00F0606EB860300EB83050027AB6957
:104830004BB106EBC60602EB8602D269B3FBF2F679
:1048400002FB1632A2B1C1F81472D0F8D42200EBE8
:104850008200D0F8C40203692BB1D1F808022246C5
:1048600001F5047198470020BDE8F0810320FBE7C3
:1048700000231A462146AF6100F0BAFDF3E770B598
:104880000546D0F8D40205EB8000D0F8C04294B1C0
:10489000284600F08DFCC4F80C02D5F8D412D4F8E8
:1048A000040205EB8101D1F8C412CA6804F5037152
:1048B0009047002070BD032070BD000070B5224DF0
:1048C0000446297800F0B8FB2878002600F00F0095
:1048D00000EB800004EB800086846978204600F0BD
:1048E000ABFB687800F00F0000EB800004EB800069
:1048F000A0F86461A978204600F09EFBA87800F03B
:104900000F0000EB800004EB80008684C684D4F89E
:10491000D40204EB8000D0F8C01299B1D0F8C402E0
:1049200040688047D4F8D40204EB8000D0F8C0027D
:1049300000F081FFD4F8D40204EB8000C0F8C0621C
:10494000C4F8BC62002070BD0001002010B5D0F892
:10495000D41200EB8100D0F8C04284B1D0F8C41268
:1049600059B194F80002FF2807D08B6894F801220F
:1049700021469847FF2084F80002002010BD032044
:1049800010BD00000A21018000487047040100208A
:1049900070B5064682210C4800F0D1FA0546012187
:1049A000094800F0CCFA04468121074800F0C7FA14
:1049B0000DB11021A971402104B1A18000B1818005
:1049C00043203080004870BD1001002070B50646BD
:1049D00082210D4800F0B3FA054601210A4800F093
:1049E000AEFA04468121084800F0A9FA0DB1102161
:1049F000A9714FF4007104B1A18000B181804320FE
:104A00003080014870BD00001001002070B50646DE
:104A100082210C4800F093FA05460121094800F074
:104A20008EFA04468121074800F089FA0DB1102161
:104A3000A971402104B1A18000B181804320308060
:104A4000004870BD100100202DE9F04704464FF4E6
:104A50000775284600F0F0FE06004FF0000863D00E
:104A60002946FBF745FDD4F8D4023C4D04EB800009
:104A70004FF01009C0F8C062C4F8BC62207C4FF44B
:104A8000007A0127F0B3402302222978204600F063
:104A9000FAFB2878402300F00F0000EB800004EBC5
:104AA0008000878402226978204600F0ECFB687859
:104AB000082300F00F0000EB800004EB80000322CD
:104AC000A0F86471A978204601F00F0101EB810183
:104AD00004EB8101A1F82690A97800F0D4FBA87816
:104AE00000F00F0000EB800004EB80008784C6F824
:104AF0000482D4F8D402474604EB8000D0F8C40204
:104B0000006800E018E006F50176804737617761BC
:104B100032687AB1207CF8B140236978204600F0F1
:104B2000BEFB0020BDE8F087D4F8D41204EB81016D
:104B3000C1F8C0820220F5E75346022229782046B8
:104B400000F0A1FB2878534600F00F0000EB800036
:104B500004EB80008784A5E75346DEE700010020D0
:104B600010B5D0F8D41200EB8101D1F8C01259B1C0
:104B7000027C084C002AD1F8042207D04023617837
:104B800000F08DFB002010BD032010BD4FF400731A
:104B9000F5E700000001002039B1D0F8D42200EB85
:104BA0008200C0F8C4120020704703207047D0F87C
:104BB000D42200EB8200D0F8C00218B1C0F8041271
:104BC0000020704703207047D0F8D43200EB8300F8
:104BD000D0F8C00228B1C0F81022C0F80812002096
:104BE0007047032070472DE9FC410646D0F8D402F7
:104BF0000C4606EB80000021D0F8C0728DF8001042
:104C0000ADF804100D4637B1217811F060022FD0B5
:104C1000202A4BD102E00320BDE8FC81E288F2B1FA
:104C200009060DD5D0F8C40263783946D0F808C01B
:104C30001846E047E288072A00D9072239462DE0C6
:104C4000607887F80002E088402800D34020C2B294
:104C500087F801223946304600F058F82BE0D0F8AA
:104C6000C40263780022866821461846B04722E0D5
:104C7000607830B101281ED00A2809D00B2815D140
:104C800010E096F89C02032810D1022201A905E049
:104C900096F89C02032809D101226946304600F0AB
:104CA0004FF808E096F89C02032804D021463046CD
:104CB00000F021F803252846AEE710B5D0F8B82259
:104CC00000245268904700B10324204610BD002004
:104CD000704700207047134610B50A46002100F0C7
:104CE000DEFA002010BD134610B50A46002100F080
:104CF0007FFB002010BD10B50446802100F059FB59
:104D00002046BDE81040002100F053BB10B503233E
:104D1000C0F89432C0F858211346C0F85C210A4606
:104D2000002100F0BCFA002010BD10B50521C0F82C
:104D3000941200231A46194600F0B1FA002010BD63
:104D400010B50223C0F8943282611346C2610A464C
:104D5000002100F04DFB002010BD10B50421C0F86B
:104D6000941200231A46194600F042FB002010BDA1
:104D700010B50A46024903A000F00FF9004810BD23
:104D8000340C002043444320436F6E666967000083
:104D900012200880004870472800002010B50A46FD
:104DA000024903A000F0F9F8004810BD340C0020BF
:104DB00043444320496E7465726661636500000078
:104DC00004200880004870472400002010B50A46DF
:104DD000024903A000F0E1F8004810BD340C0020A7
:104DE00053544D6963726F656C656374726F6E695D
:104DF0006373000010B50A46024903A000F0CDF825
:104E0000004810BD340C002053544D3332205669F5
:104E1000727475616C20436F6D506F727400000086
:104E200010B51A2008800A480168001D0468001D9A
:104E30000068081809D008220649FEF765FD0549F3
:104E4000042210312046FEF75FFD0248801E10BD8F
:104E5000107AFF1F3E000020F8B504460020ADF890
:104E6000000048880D46010A08295FD2DFE801F0FA
:104E70005E0409175E5E3C45D4F8B412207C0A68D3
:104E800019E0207C02260028D4F8B80205D0C16AB7
:104E9000684688470146467039E0816AF8E7C0B243
:104EA000062843D2DFE800F0030A1014181CD4F8D7
:104EB000B402426805E0694690471CE0D4F8B402A9
:104EC000826892B3207CF6E7D4F8B402C268F8E7AF
:104ED000D4F8B4020269F4E7D4F8B4024269F0E706
:104EE000D4F8B4028269ECE7207CF0B9D4F8B802B7
:104EF000416B68468847014609E0207CA8B9D4F890
:104F0000B802016B68468847014607204870EA8866
:104F10008AB1BDF8000040B1824200D90246ADF826
:104F200000202046FFF70CFFF8BDFFE7294620468A
:104F3000FFF7E1FEF8E72046FFF70FFFF4E778B54B
:104F40000E4642880178002504468A4212D9ADF8FF
:104F500000100AE0694600F019F84178052904D1EB
:104F600081780546B14205D000256188BDF8002052
:104F70009142EFD8284678BD0146002002E0401C4F
:104F8000C0B2491C0A78002AF9D170470A88037810
:104F90001A440A8001780844704770B516460D46D9
:104FA000002820D00446FFF7E7FF022101EB400173
:104FB0004FF40070814204D82046FFF7DDFF400027
:104FC000801C308030782870032068700220002216
:104FD00006E02954401CC0B22A54401CC0B2641CD4
:104FE00021780029F5D170BD01004FF0000004D0F8
:104FF000012901D0022901D0032070470120704708
:1050000078B10023C0F8B832C0F8C432C0F8D0324A
:1050100009B1C0F8B412012180F89C12027000F0AE
:10502000CBB80320704710B5D0F8C802FCF7A6FD36
:10503000BDE81040FFF7D8BF10B5D0F8C802FCF7A4
:1050400078FDBDE81040FFF7CFBF2DE9F0411746CE
:105050000446002521B194F89C02032842D04CE07C
:10506000D4F8941204F11400022935D1D0E9026376
:105070009E4206D9F21A826039462046FFF733FE77
:105080000FE0B34214D14068984211D3D4F898127B
:1050900088420DD2002211462046FFF724FEC4F8B4
:1050A000985200231A461946204600F0F8F813E0FB
:1050B00094F89C02032808D1D4F8B802C16821B141
:1050C000C4F8D452C168204688478021204600F0A9
:1050D00070F92046FFF729FE94F8A00268B184F821
:1050E000A0520AE0D4F8B802426932B1C4F8D452EE
:1050F000426920469047002800D10020BDE8F08199
:1051000070B513460446002221B194F89C0203288E
:1051100030D03AE0D4F8941204F5AA70032934D1BF
:10512000D0E902518D420AD96A1A82600846824249
:1051300000D3024619462046FFF7CDFD25E094F83E
:10514000AA0210F01F0003D0012802D0022800D0CC
:10515000002294F89C02032808D1D4F8B80201690F
:1051600021B1C4F8D4220169204688472046FFF7C0
:10517000F4FD0AE0D4F8B802836933B1C4F8D4224C
:10518000826920469047002800D1002070BD002091
:10519000704710B50024012180F89C12D0F8B82285
:1051A00022B152680179904700B10324204610BD16
:1051B000D0F8C802FCF70FBD10B5017839BB15490E
:1051C0000222C1F8E004C0F8C8124FF0A040086005
:1051D00004200871CA71002088714A728872C872EE
:1051E00008738873C8730846FDF754F808B1FBF7D5
:1051F00084FB80210748FCF74CFC40220021054835
:10520000FCF74BFC802201210248FCF746FC002001
:1052100010BD0000542000200A0601F07F01D0F8E4
:10522000C80201EBC10100EB810001D5807D704710
:1052300090F85602704710B5D0F8D42200EB8202E5
:10524000D2F8B82222B190F89C32032B02D004E0AD
:10525000032010BD126A02B19047002010BD10B5A6
:10526000D0F8D42200EB8202D2F8B82222B190F812
:105270009C32032B02D004E0032010BD526A02B11D
:105280009047002010BD10B51C461346D0F8C80248
:105290002246FCF7A9FCBDE81040FFF7A5BE10B5FB
:1052A000D0F8C802FCF7D1FCBDE81040FFF79CBE67
:1052B0002DE9F04100260125044680F89C52C4F8EF
:1052C00094626660C4F8A46280F8A062D0F8B80264
:1052D00030B1426822B100212046904700B1032638
:1052E0000022402311462046FFF7CDFF4027A4F8B7
:1052F00064513B46002280212046C4F86071FFF7CC
:10530000C2FFA58430462762BDE8F08190F89C1268
:10531000042903D190F89D1280F89C120020704758
:1053200010B590F89C12032905D1D0F8B81211B12C
:10533000C96901B18847002010BD01740020704781
:1053400010B5D0F8C802FDF76BF8BDE81040FFF7C4
:105350004BBE70B5044600F2AA20054600F051F895
:105360000120C4F89402B4F8B002C4F8980294F88A
:10537000AA0210F01F010AD001290ED0022912D072
:1053800000F080012046BDE8704000F012B82946C8
:105390002046BDE8704000F0CFB829462046BDE861
:1053A000704000F00FBA29462046BDE8704000F07A
:1053B00059B910B5D0F8C802FCF763FCBDE810403D
:1053C000FFF712BE10B5D0F8C802FDF743F8BDE8EC
:1053D0001040FFF709BE90F89C12042903D090F802
:1053E0009C1280F89D12042180F89C1200207047C6
:1053F00010B5D0F8C802FCF77DFCBDE81040FFF7FF
:10540000F3BD70B5054611F8010B28700878687077
:105410004C1C2046FEF714FF6880A41C2046FEF7B3
:105420000FFFA880A01CFEF70BFFE88070BD38B509
:1054300004460020ADF80000A1B1C4F8B812D4F8B9
:10544000D40204EB8000D0F8B802C16A19B16846F2
:105450008847C4F8D002D4F8D802401CC4F8D80257
:10546000002038BD032038BD02460020D2F8B832F3
:10547000002B02D01B681046184770472DE9F041F9
:1054800088462B4E8978002504463170012906D9BB
:1054900041462046FFF72FFC0320BDE8F08194F839
:1054A0009C02022702280CD003281DD0414620462A
:1054B000FFF721FC31782046FFF7FFFB0325284644
:1054C000EBE789B320466160FFF7CEFF050004D00B
:1054D00041462046FFF70FFC1DE02046FFF73DFC4C
:1054E000032084F89C02EAE7C1B1606888421BD0BF
:1054F000C1B22046FFF7E1FB317820466160FFF73B
:10550000B3FF050010D041462046FFF7F4FB217998
:105510002046FFF7D2FB84F89C72D0E784F89C7297
:1055200020466160FFF7C9FB2046FFF716FCC6E77F
:10553000FC000020FFF746BF2DE9F0410A78002566
:1055400012F060020CD0202A01D0402A7DD1D0F880
:10555000D42200EB8202D2F8B8229268904731E060
:105560004B78002201260A2B6FD2DFE803F0416658
:105570006E586E08056E2D29FFF76EFC67E0044635
:105580008888D8B9C888C8B94888802816D200F059
:105590007F0794F89C02032810D084F89E72394645
:1055A0002046FFF7CDFE2046FFF7D7FB1FB10220B4
:1055B00084F89C024BE084F89C6248E0204644E07A
:1055C000FFF75CFF054642E0CB88012B3DD190F808
:1055D0009C32012B04D0022B02D0032B35D104E0E6
:1055E0008260012200F1080116E00122011D13E092
:1055F00090F89C22012A03D0022A01D0032A24D148
:10560000CA88022A21D1C660D0F8A41209B10321A8
:10561000C160022200F10C01FFF792FB17E04A88FB
:10562000012A02D0022A03D00FE0C0F8A46216E0DB
:105630008988090A80F8A01211E090F89C32012BA9
:1056400008D0022B06D0032B04D0FFF754FB2846CA
:10565000BDE8F08149880129F9D1C0F8A422FFF7FB
:105660007CFBF4E72DE9F041054608780C790E46FD
:105670004FF0000810F060000BD0202801D0402827
:105680006AD121462846FFF722FBFF2800D0D8B375
:1056900095E07078C8B3012824D003285CD195F830
:1056A0009C02022802D0032856D10CE0002C53D0D3
:1056B000802C51D021462846FFF77BFE80212846CA
:1056C000FFF777FE7BE0708840B93CB1802C05D0B5
:1056D000C88818B921462846FFF76BFE2846FFF711
:1056E0003CFB6CE095F89C020228DFD0032863D1D4
:1056F000708880BB600603D021462846FFF793FCE4
:105700002846FFF72AFBBCE700E00AE0C5F8D40210
:10571000D5F8B8028268F2B13146284690478046F3
:105720004DE095F89C020027022802D0032843D1BF
:1057300013E00CB1802C3FD1200604F07F0000EB79
:10574000800005EB800101D5143101E001F5AA715B
:1057500002220F602CE032E02EE0200604F00F0061
:1057600000EB800005EB800009D5808C20B304F0AD
:105770007F0000EB800005EB800614360AE0B0F8ED
:105780006401C8B104F07F0000EB800005EB8006E7
:1057900006F5AA764CB1802C07D021462846FFF7A3
:1057A0003BFD10B10120306000E03760022231463D
:1057B0002846FFF7C5FA02E02846FFF79CFA404664
:1057C000BDE8F08170B50546087800240E4610F05B
:1057D000600003D0202801D0402827D195F89C02F2
:1057E000012803D0022801D003281FD1B088C1B2FC
:1057F00001291AD8C1B22846FFF76BFAFF280CD04E
:1058000058B9D5F8B8128A683AB1C5F8D4028A688E
:10581000314628469047044600E00324F0882043A0
:1058200007D12846FFF799FA03E031462846FFF7EB
:1058300062FA204670BD704700487047341E002051
:1058400070B50A78012302F00F054E78AB401B4C6F
:10585000D0F81C58012E17D045EA0343C0F81C3875
:1058600000EB4210D0F8002B12040BD4D0F8002B20
:105870000B890979C3F30A031A4344EA81410A43B5
:10588000C0F8002B002070BD9BB21D43C0F81C580F
:1058900000EB4210D0F800391B04F3D4D0F80039E3
:1058A0000D890979C5F30A0589042B4341EA825120
:1058B0000B432343C0F80039E4E7000000800010E8
:1058C000D0F800196FF30A01C0F80019D0F80418D5
:1058D00041F48071C0F804180020704770B50D467F
:1058E0000446C2F3072104981E4601291BD0E06834
:1058F00040F04000E060204600F032F8C6F3072197
:105900000029A16B26D021F48031A163C5F30741A2
:10591000012907D1A16841F00601A160A16841F009
:105920002001A16070BDA16B21F48031A163E16809
:105930000A4A1140E160E16821F44011E160C0B21F
:10594000012803D1E06840F48010E060204600F0B8
:1059500007F8DBE741F48031D7E70000BFFFBDFF68
:1059600008B500214FF070620091009B5B1C009312
:1059700093420CD80369002BF7DA0091016941F0DA
:10598000010101610099491C0091914201D9032054
:1059900008BD0169C907F5D1002008BD30B54C78B4
:1059A0000A78012300EB4212012C2CD0D2F8004BD4
:1059B000002C0BDAD2F8004B44F00064C2F8004B24
:1059C000D2F8004B44F08044C2F8004BD0F83C5869
:1059D0000C7804F00F0403FA04F425EA0444C0F838
:1059E0003C48D0F81C48097801F00F018B4024EAAC
:1059F0000341C0F81C18D2F8000B19490840C2F83E
:105A0000000B002030BDD2F80049002C0BDAD2F890
:105A1000004944F00064C2F80049D2F8004944F05B
:105A20008044C2F80049D0F83C480D7805F00F05D5
:105A300003FA05F5ADB2AC43C0F83C48D0F81C48B9
:105A4000097801F00F018B4099B28C43C0F81C48D3
:105A5000D2F8000903490840C2F80009D1E7000064
:105A60000078F3EF007833ECD0F8001E21F003014A
:105A7000C0F8001ED0F8041821F00201C0F8041884
:105A800000207047D0F8001E21F00301C0F8001E6E
:105A9000D0F8041841F00201C0F804180020704743
:105AA0002DE9F04F00250E460446174628462946A4
:105AB00004EB8002C2F80411401C0F28F8D3C3F392
:105AC00007405FEA0009204616D0806B20F40012E0
:105AD000A263A06B40F40022A263084688462146D8
