:020000040800F2
:1000000000000220AD0D0008A90B0008AB0B000892
:10001000AD0B0008AF0B0008B10B0008000000009A
:1000200000000000000000000000000091530008E4
:10003000B30B00080000000031540008D95000083C
:10004000FD0D0008FD0D0008FD0D0008FD0D000868
:10005000FD0D0008FD0D0008FD0D0008FD0D000858
:10006000FD0D0008FD0D0008FD0D0008FD0D000848
:10007000FD0D0008FD0D0008FD0D0008FD0D000838
:10008000FD0D0008FD0D0008FD0D0008B50B000872
:10009000C50B0008D50B0008E50B0008FD0D000896
:1000A000FD0D0008FD0D0008FD0D0008FD0D000808
:1000B000FD0D0008FD0D0008FD0D0008FD0D0008F8
:1000C000FD0D0008FD0D0008FD0D0008FD0D0008E8
:1000D000FD0D0008F50B0008FD0D0008FD0D0008E2
:1000E000FD0D0008FD0D0008FD0D0008FD0D0008C8
:1000F000FD0D0008050C0008FD0D0008FD0D0008B1
:10010000FD0D0008FD0D0008FD0D0008FD0D0008A7
:10011000FD0D0008FD0D0008150C0008FD0D000880
:10012000FD0D0008FD0D0008FD0D0008FD0D000887
:10013000FD0D00080000000000000000250C000874
:10014000350C0008450C0008550C0008650C00082B
:10015000FD0D0008FD0D0008FD0D0008FD0D000857
:10016000FD0D0008FD0D0008FD0D0008FD0D000847
:10017000FD0D0008FD0D000800000000000000005B
:08018000FD0D0008FD0D000853
:1001900010B5054C237833B9044B13B10448AFF3C1
:1001A00000800123237010BD2C05002000000000FA
:1001B000D873000808B5034B1BB103490348AFF3DC
:1001C000008008BD0000000030050020D873000842
:1001D00053B94AB9002908BF00281CBF4FF0FF31AE
:1001E0004FF0FF3000F074B9ADF1080C6DE904CEAA
:1001F00000F006F8DDF804E0DDE9022304B0704702
:100200002DE9F047089D04468E46002B4DD18A42C9
:10021000944669D9B2FA82F252B101FA02F3C2F1FC
:10022000200120FA01F10CFA02FC41EA030E94408D
:100230004FEA1C48210CBEFBF8F61FFA8CF708FBAE
:1002400016E341EA034306FB07F199420AD91CEB86
:10025000030306F1FF3080F01F81994240F21C81B8
:10026000023E63445B1AA4B2B3FBF8F008FB103300
:1002700044EA034400FB07F7A7420AD91CEB040435
:1002800000F1FF3380F00A81A74240F20781644405
:10029000023840EA0640E41B00261DB1D44000238A
:1002A000C5E900433146BDE8F0878B4209D9002DEE
:1002B00000F0EF800026C5E9000130463146BDE878
:1002C000F087B3FA83F6002E4AD18B4202D38242E2
:1002D00000F2F980841A61EB030301209E46002D91
:1002E000E0D0C5E9004EDDE702B9FFDEB2FA82F2E6
:1002F000002A40F09280A1EB0C014FEA1C471FFA44
:100300008CFE0126200CB1FBF7F307FB131140EA2A
:1003100001410EFB03F0884208D91CEB010103F1F7
:10032000FF3802D2884200F2CB804346091AA4B2B9
:10033000B1FBF7F007FB101144EA01440EFB00FE8D
:10034000A64508D91CEB040400F1FF3102D2A645F2
:1003500000F2BB800846A4EB0E0440EA03409CE791
:10036000C6F12007B34022FA07FC4CEA030C20FA3E
:1003700007F401FA06F31C43F9404FEA1C4900FA5E
:1003800006F3B1FBF9F8200C1FFA8CFE09FB1811DB
:1003900040EA014108FB0EF0884202FA06F20BD94E
:1003A0001CEB010108F1FF3A80F08880884240F29E
:1003B0008580A8F102086144091AA4B2B1FBF9F0E2
:1003C00009FB101144EA014100FB0EFE8E4508D9DD
:1003D0001CEB010100F1FF346CD28E456AD9023862
:1003E000614440EA0840A0FB0294A1EB0E01A14247
:1003F000C846A64656D353D05DB1B3EB080261EBB5
:100400000E0101FA07F722FA06F3F1401F43C5E98E
:10041000007100263146BDE8F087C2F12003D840C4
:100420000CFA02FC21FA03F3914001434FEA1C4706
:100430001FFA8CFEB3FBF7F007FB10360B0C43EAF8
:10044000064300FB0EF69E4204FA02F408D91CEBA8
:10045000030300F1FF382FD29E422DD902386344A6
:100460009B1B89B2B3FBF7F607FB163341EA034146
:1004700006FB0EF38B4208D91CEB010106F1FF3895
:1004800016D28B4214D9023E6144C91A46EA00468C
:1004900038E72E46284605E70646E3E61846F8E61E
:1004A0004B45A9D2B9EB020864EB0C0E0138A3E767
:1004B0004646EAE7204694E74046D1E7D0467BE748
:1004C000023B614432E7304609E76444023842E7C0
:1004D000704700BF844641EA000313F003036DD167
:1004E000403A41D351F8043B40F8043B51F8043BF7
:1004F00040F8043B51F8043B40F8043B51F8043BFE
:1005000040F8043B51F8043B40F8043B51F8043BED
:1005100040F8043B51F8043B40F8043B51F8043BDD
:1005200040F8043B51F8043B40F8043B51F8043BCD
:1005300040F8043B51F8043B40F8043B51F8043BBD
:1005400040F8043B51F8043B40F8043B51F8043BAD
:1005500040F8043B51F8043B40F8043B51F8043B9D
:1005600040F8043B403ABDD2303211D351F8043B3D
:1005700040F8043B51F8043B40F8043B51F8043B7D
:1005800040F8043B51F8043B40F8043B103AEDD2EC
:100590000C3205D351F8043B40F8043B043AF9D23D
:1005A000043208D0D2071CBF11F8013B00F8013B10
:1005B00001D30B8803806046704700BF082A13D31D
:1005C0008B078DD010F003038AD0C3F10403D21A35
:1005D000DB071CBF11F8013B00F8013B80D331F869
:1005E000023B20F8023B7BE7043AD9D3013A11F8E9
:1005F000013B00F8013BF9D20B7803704B78437054
:100600008B7883706046704708B50E480E4B0360C8
:100610000723436000238360C3604FF4003202610C
:100620004FF4801242610376437601228276C376CC
:100630000377427700F024FC00B908BD00F0D0F940
:10064000FBE700BF4C0500200064004008B50E48E1
:100650000E4B03600723436000238360C3604FF4A5
:10066000003202614FF48012426103764376012228
:100670008276C3760377427700F002FC00B908BDAA
:1006800000F0AEF9FBE700BF7405002000680040F1
:1006900010B58AB000230593069307930893099336
:1006A0000368574A934204D0564A93424ED00AB048
:1006B00010BD554A136801331360012B39D0002453
:1006C0000194524B1A6B42F002021A631B6B03F047
:1006D00002030193019B4FF4407305930223069399
:1006E000032308930923099305A9494800F056FEFE
:1006F00022460521132000F0ADFD132000F0E2FD9D
:1007000022460521142000F0A5FD142000F0DAFD9A
:1007100022460521152000F09DFD152000F0D2FD98
:1007200022460521162000F095FD162000F0CAFD96
:10073000BDE700230093354B1A6C42F000721A6437
:100740001B6C03F000730093009BB8E70023029337
:100750002E4B1A6C42F080621A641B6C03F08063AB
:100760000293029B284A136801331360012B39D08E
:1007700000240494254B1A6B42F002021A631B6B8F
:1007800003F002030493049B4FF4405305930223A8
:100790000693032308930923099305A91C4800F035
:1007A000FDFD224605213F2000F054FD3F2000F0D2
:1007B00089FD22460521402000F04CFD402000F03C
:1007C00081FD22460521412000F044FD412000F03A
:1007D00079FD22460521422000F03CFD422000F038
:1007E00071FD64E700230393084B1A6C42F000721A
:1007F0001A641B6C03F000730393039BB8E700BFFC
:1008000000640040006800404805002000380240B5
:100810000004024008B506F0B5FA012004F0F4FC2B
:10082000FBE7000008B5044A0021044804F08EFCF0
:10083000034B186008BD00BFFC73000815080008D2
:100840009C05002084B000220192104B196B41F0EE
:1008500080011963196B01F08001019101990292E5
:10086000196B41F002011963196B01F00201029149
:10087000029903921A6B42F001021A631B6B03F098
:1008800001030393039B04B0704700BF003802408C
:1008900008B50B480B4B03600B4B43600023836090
:1008A000C3604FF48042026143618361C3610362AC
:1008B00000F066FE00B908BD00F092F8FBE700BF4B
:1008C000A005002000540040801A060008B50B481F
:1008D0000B4B03600B4B436000238360C3604FF4FA
:1008E0008042026143618361C361036200F048FE9C
:1008F00000B908BD00F074F8FBE700BFF405002064
:1009000000580040801A060030B58BB000230593D4
:1009100006930793089309930368274A934204D0E8
:10092000264A934224D00BB030BD00250195244CBB
:10093000236B43F002032363236B03F00203019351
:10094000019BC023059312230693032308930423DA
:10095000099305A91B4800F021FD0295236C43F47F
:1009600000132364236C03F400130293029BDAE761
:1009700000250395124C236B43F002032363236B82
:1009800003F002030393039B4FF440630593122388
:100990000693032308930423099305A9094800F04B
:1009A000FDFC0495236C43F480032364236C03F45F
:1009B00080030493049BB6E70054004000580040B5
:1009C000003802400004024008B50268034B9A4216
:1009D00000D008BD00F02EFAFBE700BF0010004079
:1009E00072B6FEE700B595B03022002108A806F0E7
:1009F00031FC00230393049305930693079301931B
:100A0000204A116C41F080511164126C02F0805246
:100A10000192019A02931C4B1A6842F480421A60B8
:100A20001B6803F480430293029B012308934FF455
:100A30008033099302230E934FF480020F92042215
:100A40001092A822119212930723139308A801F081
:100A5000DFFC98B90F23039302230493002305932B
:100A60004FF4A05306934FF480530793052103A836
:100A700001F034FF20B915B05DF804FBFFF7B0FFBB
:100A8000FFF7AEFF003802400070004008B500F0EC
:100A9000B7F9FFF7A7FFFFF7D5FEFFF7B5FDFFF7A3
:100AA000D5FDFFF7F5FE00F027F9FFF70FFF00F087
:100AB000EBF804F01DFBFFF7B5FE04F02BFBFEE79F
:100AC00000B583B0002200920D4B596C41F4804177
:100AD0005964596C01F48041009100990192196C9C
:100AE00041F0805119641B6C03F080530193019B0A
:100AF0000F216FF0010000F0ADFB03B05DF804FBC7
:100B00000038024030B589B0044600230193214BE0
:100B10001A6C42F010021A641B6C03F0100301936C
:100B2000019B02A903A801F0AFFF069BCBB901F01E
:100B30008BFF03461848A0FB03239B0C013B17487F
:100B4000174A026040F2E732C2604360002303614B
:100B50008360836102F020F9054630B1284609B070
:100B600030BD01F071FF4300E4E70C4801F0AAFF3B
:100B700005460028F2D1362000F0A4FB0F2C01D945
:100B80000125EBE700222146362000F063FB054BF0
:100B90001C60E3E70038024083DE1B434806002068
:100BA0000010004008000020FEE7FEE7FEE7FEE739
:100BB000FEE7704708B5024800F015FA08BD00BF0F
:100BC0004C05002008B5024800F00DFA08BD00BF32
:100BD0004C05002008B5024800F005FA08BD00BF2A
:100BE0004C05002008B5024800F0FDF908BD00BF23
:100BF0004C05002008B5024802F09CFA08BD00BF71
:100C0000D806002008B5024801F0A4FF08BD00BFC7
:100C10009006002008B5024801F09CFF08BD00BF07
:100C20004806002008B5024800F0DDF908BD00BF05
:100C30007405002008B5024800F0D5F908BD00BFD2
:100C40007405002008B5024800F0CDF908BD00BFCA
:100C50007405002008B5024800F0C5F908BD00BFC2
:100C60007405002008B5024801F0C4F808BD00BFB3
:100C700050290120034AD2F8883043F47003C2F8A7
:100C80008830704700ED00E008B50948094B036063
:100C90000023436083604FF6FF72C260036183618B
:100CA00002F07AF800B908BDFFF79AFEFBE700BF33
:100CB000900600200020004002680E4B9A4200D0AF
:100CC000704700B583B00022019203F50633196C1A
:100CD00041F4807119641B6C03F480730193019BD0
:100CE00005212D2000F0B6FA2D2000F0EBFA03B01C
:100CF0005DF804FB0020004008B50A480A4B036079
:100D00004FF4E133436000238360C36003610C222E
:100D100042618361C36102F053F900B908BDFFF776
:100D20005FFEFBE7D80600200010014010B588B038
:100D3000002303930493059306930793026803F13A
:100D4000804303F588339A4201D008B010BD0024D7
:100D5000019403F594335A6C42F010025A645A6CB1
:100D600002F010020192019A02941A6B42F0010201
:100D70001A631B6B03F001030293029B4FF4C063E1
:100D8000039302230493032306930723079303A9E2
:100D9000054800F003FB22460521252000F05AFA01
:100DA000252000F08FFAD0E700000240DFF834D0B1
:100DB0000D480E490E4A002302E0D458C4500433B3
:100DC000C4188C42F9D30B4A0B4C002301E013608A
:100DD0000432A242FBD3FFF74DFF06F017FAFFF7EC
:100DE00055FE704700000220000000202C05002066
:100DF000B07400082C05002080300120FEE70000C0
:100E000008B50B4B1A6842F400721A601A6842F473
:100E100080621A601A6842F480721A60032000F03F
:100E200007FA0F20FFF76EFEFFF74AFE002008BD0D
:100E3000003C0240034A1168034B1B780B441360CB
:100E4000704700BF1C07002004000020014B1868F9
:100E5000704700BF1C07002038B50446FFF7F6FFB7
:100E60000546B4F1FF3F02D0044B1B781C44FFF74A
:100E7000EDFF401BA042FAD338BD00BF04000020A4
:100E8000002800F0A18038B5044690F82030D3B196
:100E90002268136843F001031360FFF7D7FF05468C
:100EA00023685A6812F0010F10D1FFF7CFFF401BE3
:100EB0000A28F5D9636A43F400336362052384F892
:100EC0002030012038BDFFF7E3FBE1E71A6822F08C
:100ED00002021A60FFF7BAFF054623685A6812F04B
:100EE000020F0DD0FFF7B2FF401B0A28F5D9636A45
:100EF00043F400336362052384F820300120E1E7E6
:100F0000227E012A3DD01A6822F080021A60637E98
:100F1000012B3BD02268136823F040031360A37EAB
:100F2000012B39D02268136823F020031360E37E7D
:100F3000012B37D02268136843F010031360237F1E
:100F4000012B35D02268136823F008031360637FF8
:100F5000012B33D02268136823F004031360A368C5
:100F6000E268134322691343626913436268013ADA
:100F700021681343CB6100206062012384F8203094
:100F8000A0E71A6842F080021A60C0E7226813687E
:100F900043F040031360C2E72268136843F0200364
:100FA0001360C4E72268136823F010031360C6E7D8
:100FB0002268136843F008031360C8E722681368C7
:100FC00043F004031360CAE701207047704770477D
:100FD0007047704770477047704770477047704759
:100FE0007047704770472DE9F84F054603685C6904
:100FF000D3F804809F68D3F80CB0D3F810A0D3F8CE
:10100000189014F001063BD017F0010616D001220B
:101010009A6017F0020F08D117F0040F0CD117F0E7
:10102000080606D04FF4805608E0FFF7CFFF0026F1
:1010300004E0FFF7CEFF01E04FF4006617F4807F75
:101040000DD02B684FF480729A6017F4007F40F047
:10105000868017F4806F00F0868046F4005617F4FF
:10106000803F0DD02B684FF480329A6017F4003F18
:1010700040F0838017F4802F00F0838046F4004610
:1010800014F0080F07D01BF0100F04D046F40076C0
:101090002B681022DA6014F0040F02D01BF0080F46
:1010A00079D114F0020F04D02B68DB6813F0030F22
:1010B00078D114F0400F07D01AF0100F04D046F486
:1010C00080662B6810221A6114F0200F02D01AF0EB
:1010D000080F6BD114F0100F04D02B681B6913F0AC
:1010E000030F6AD114F4003F02D018F0100F68D13A
:1010F00014F4803F02D018F0080F69D114F4004FA7
:101100007AD018F0040F74D014F4807F04D019F052
:10111000010F01D046F0010614F4007F04D019F04D
:10112000020F01D046F0020614F4806F04D019F0CB
:10113000040F01D046F0040614F4006F59D019F0E2
:10114000700956D0B9F1400F65D058D8B9F1200FC9
:101150005ED0B9F1300F42D146F0200644E0284677
:10116000FFF735FF7BE717F4006F02D046F48046A7
:1011700075E72846FFF72EFF71E72846FFF728FF9F
:101180007EE717F4002F02D046F4803678E7284631
:10119000FFF721FF74E72B680822DA602846FFF783
:1011A0001CFF7EE72846FFF717FF82E72B6808221F
:1011B0001A612846FFF713FF8CE72846FFF70EFF5A
:1011C00090E72B6810225A602846FFF709FF8FE747
:1011D0002B6808225A602846FFF703FF8EE7B9F113
:1011E000100F01D146F008062A68936923F07003B6
:1011F00093612B6804225A609EB9BDE8F88FB9F15B
:10120000500F0BD0B9F1600FEED146F48076EBE7CA
:1012100046F01006E8E746F04006E5E746F08006AF
:10122000E2E76B6A1E436E622846FFF7DBFEE4E7E7
:10123000074AD36823F4E0631B041B0C000200F48C
:10124000E060034343F0BF6343F40033D36070476F
:1012500000ED00E000B5194BDB68C3F30223C3F1D6
:10126000070CBCF1040F28BF4FF0040C03F1040E6F
:10127000BEF1060F18D9033B4FF0FF3E0EFA0CFCEF
:1012800021EA0C0199400EFA03F322EA0303194301
:1012900000280BDB0901C9B200F1604000F5614094
:1012A00080F800135DF804FB0023E5E700F00F0071
:1012B0000901C9B2024B1954F4E700BF00ED00E088
:1012C00014ED00E0002807DB00F01F0240090123B5
:1012D0009340024A42F82030704700BF00E100E02E
:1012E00070B50446866DFFF7B1FD94F83530DBB27A
:1012F000022B06D080236365002384F8343001205C
:1013000070BD05462268136823F016031360226837
:10131000536923F080035361236CE3B1226813689F
:1013200023F0080313602268136823F0010313609D
:1013300023681B6813F0010F11D0FFF787FD431BD3
:10134000052BF5D920236365032084F8350000239D
:1013500084F83430D4E7A36C002BDFD1E3E7E26DEF
:101360003F239340B360012384F83530002084F894
:101370003400C5E790F83530DBB2022B03D0802370
:10138000436501207047052380F8353002681368F3
:1013900023F00103136000207047000000230F2B8F
:1013A00000F2E48070B582B060E085685E000324DE
:1013B000B44025EA0405CC68B4402C4384604568F9
:1013C00025EA02054C68C4F300129A402A434260A1
:1013D0005AE0DC08083450F8246003F00702950056
:1013E0000F22AA4026EA020E0A69AA4042EA0E0229
:1013F00040F824205CE0072200E0002202FA0EF20E
:101400002A4302345A4D45F824205A4A94686FEA18
:101410000C0224EA0C054E6816F4801F01D04CEA39
:101420000405544CA560E46802EA04054E6816F40D
:10143000001F01D04CEA04054E4CE560646802EAE6
:1014400004054E6816F4003F01D04CEA0405494CEF
:101450006560246822404D6815F4803F01D04CEA55
:101460000402444C226001330F2B7DD801229A40A4
:101470000C6804EA020C32EA0404F4D14C6804F06B
:101480000304013C012C90D94A6802F00302032AAC
:1014900009D0C4685D000322AA4024EA02048A68D5
:1014A000AA402243C2604A6802F00302022A90D096
:1014B00004684FEA430E032202FA0EF224EA020401
:1014C0004A6802F0030202FA0EF2224302604A68FE
:1014D00012F4403FC7D000220192274A546C44F4D2
:1014E00080445464526C02F480420192019A9C0838
:1014F000A51C1F4A52F8255003F003024FEA820E42
:101500000F2202FA0EF225EA02051C4A90423FF42D
:1015100074AF02F5806290421AD002F58062904268
:1015200018D002F58062904216D002F58062904297
:1015300014D002F58062904212D002F5806290428F
:1015400010D002F5806290423FF455AF082255E773
:10155000012253E7022251E703224FE704224DE71D
:1015600005224BE7062249E702B070BD704700BF75
:1015700000380140003C01400038024000000240B9
:10158000002800F0CC8070B5044690F83D30002B68
:1015900077D0242384F83D302268136823F00103B8
:1015A00013602268136843F40043136022681368D1
:1015B00023F40043136001F047FA62685A4B9A42E1
:1015C00064D85A4B98428CBF00230123002B40F073
:1015D000A8805749A1FB00318B0C25686A6822F06E
:1015E0003F0242EA91426A6021680A6A22F03F02A1
:1015F00066684D4DAE424FD8013313430B622168EC
:10160000CA6922F44F4222F0FF026668464B9E42AE
:101610004CD8431E7600B3FBF6F3013340F6FC7062
:10162000034278D0C3F30B031343CB6121680B68EB
:1016300023F0C003E269206A024313430B60216870
:101640008B6823F4034323F0FF032269E06802431D
:1016500013438B602168CB6823F0FF036269A069A4
:1016600002431343CB602268136843F00103136005
:1016700000202064202384F83D30206384F83E005D
:1016800070BD80F83C30FFF73FF982E7294B984264
:101690008CBF0023012399E74FF4967505FB03F3F4
:1016A000254DA5FB03539B090133A6E7A368BBB9EE
:1016B000451E06EB460CB5FBFCF50135C5F30B05E5
:1016C000B5FA85F56D0945BBC3B9013806EB46038C
:1016D000B0FBF3F30133C3F30B0343F40043A3E77D
:1016E000451E06EB860C0CEB8C0CB5FBFCF50135AE
:1016F000C5F30B05B5FA85F56D09E4E7013806EB8E
:10170000860303EB8303B0FBF3F30133C3F30B0353
:1017100043F4404388E7042386E7012384E701205C
:1017200070470120ACE700BFA08601007F841E0047
:1017300083DE1B43FF083D00D34D62102DE9F043CB
:1017400083B0D0F8008001EBC10300EB8303DA6DB6
:101750005B6D9A4254D807460C469B1A01EBC102B6
:1017600000EB8202926C9A4200D31A4602F10309FE
:101770004FEA990915E006F103094FEA990904EBCC
:10178000C40507EB8505E96C3B7C0093B3B2E2B27C
:10179000404602F0DAF9EB6C3344EB64EB6D334412
:1017A000EB6508EB441303F510639B699BB24B4553
:1017B00012D304EBC40207EB8202D16D536D994240
:1017C0000AD24BB15B1A04EBC40207EB8202966C9F
:1017D0009E42D0D31E46CEE704EBC40007EB800741
:1017E0007A6DFB6D9A420FD804F00F040123A340D9
:1017F000D8F8344824EA0304C8F83448002000E04C
:10180000012003B0BDE8F0830020FAE770B58AB08C
:10181000002800F090800546046890F8BD343BB382
:10182000032385F8BD34E36B13F4807F01D10023DB
:101830002B61286801F0A4FE2C4654F8106BEC468E
:101840000FCCACE80F000FCCACE80F0094E803001D
:101850008CE803002B1D0ECB304601F0D3FD04466F
:1018600058B1022385F8BD34012420460AB070BD6A
:1018700080F8BC3405F072FBD2E70021286802F042
:101880007BFB234616E003EBC30205EB820201213A
:1018900082F83D1082F83C30A2F84430002182F8F2
:1018A00040109164D16403EBC30205EB82025165E1
:1018B0000133DBB269688B42E5D316E004EBC40365
:1018C00005EB8303002283F87D2283F87C4283F8B2
:1018D0008022C3F88822C3F88C2204EBC40305EBF2
:1018E0008303C3F894220134E4B2A142E6D82C4623
:1018F00054F8106BEC460FCCACE80F000FCCACE802
:101900000F0094E803008CE803002B1D0ECB30463B
:1019100001F092FE044620B1022385F8BD34012473
:10192000A3E7002385F83830012385F8BD34286803
:1019300002F0DFFA99E7012497E7026890F8BC34D7
:10194000012B19D010B50446012380F8BC34836AFA
:10195000012B09D0206801F00DFE206802F0BBFACF
:10196000002084F8BC0410BD8369012BF2D0936B76
:1019700043F480339363EDE70220704770B504466B
:101980000D460068066C00EB411303F530639A685E
:101990002169012911D038498E4256D03DB905EB55
:1019A000C50304EB8303D3F89432002B5ED0E9B275
:1019B000204605F01DFB002070BD12F0080F09D075
:1019C0002E498E42F7D912F4004FF4D04FF4004262
:1019D0009A60F0E712F0200F02D020229A60EAE726
:1019E00012F0280FE7D125498E4206D912F4004F94
:1019F00003D04FF400429A60DDE705EBC50204EB2B
:101A00008202D2F898121B69C3F31203CB1AC2F8F0
:101A10009C327DB905EBC50204EB8202D2F8942218
:101A20006AB105EBC50204EB8202D2F88C120B44BA
:101A3000C2F88C32E9B2204605F0DAFABBE704F2CC
:101A4000C442012102F0DAFAF4E712F4004F03D0A5
:101A50004FF400429A60AEE712F0200F01D020222E
:101A60009A60E9B2204605F0C3FAA4E704F2C44242
:101A7000002102F0C3FA9AE70A31544F0A30544F5A
:101A800038B5044603681D6C03EB4113D3F8081BFB
:101A90000E4A954207D903F5306311F4004F02D086
:101AA0004FF400429A60204605F09AFA074B9D4297
:101AB00002D92369012B01D0002038BD04F2C442B1
:101AC0000121206802F09AFAF6E700BF0A30544F6D
:101AD00090F8BC34012B0DD010B50446012380F8DA
:101AE000BC3480F83810006802F0E5F9002084F872
:101AF000BC0410BD0220704738B505468C4611F075
:101B0000800F29D101F00F0E0EEBCE04A40004F5D6
:101B10001E740444211D0EEBCE0E00EB8E0E002031
:101B20008EF87D020CF00F0C81F800C0CA600B71BA
:101B30004A780AB1A1F808C0022B1DD095F8BC3430
:101B4000012B1CD0012385F8BC34286801F04DFE20
:101B5000002085F8BC0438BD01F00F0000EBC00187
:101B6000890038312944043100EBC00005EB8000C6
:101B7000012480F83D40D5E700234B71DEE70220C9
:101B8000E9E710B504460A4611F0800F20D101F0B4
:101B90000F0000EBC0039B0003F51E732344191DC7
:101BA00000EBC00004EB8000002380F87D3202F0DF
:101BB0000F020A7094F8BC34012B19D0012384F869
:101BC000BC34206801F060FE002084F8BC0410BD25
:101BD00001F00F0000EBC0039B0038332344191DB4
:101BE00000EBC00004EB8000012380F83D30DEE70D
:101BF0000220ECE710B501F00F0404EBC4018900EA
:101C000001F51E710144043104EBC40C00EB8C0C93
:101C1000CCF88C22CCF894320023CCF89C328CF88F
:101C20007D328CF87C420369012B06D064B9DAB2AC
:101C3000006801F099FE002010BD04EBC40C00EB1D
:101C40008C0CCCF89022F1E7DAB2006801F094FF36
:101C5000F1E701F00F0101EBC10100EB8101D1F8C7
:101C60009C02704710B501F00F0404EBC401890019
:101C700038310144043104EBC40C00EB8C0CCCF87B
:101C80004C20CCF854300023CCF85C3001238CF885
:101C90003D308CF83C400369012B06D064B9DAB2C0
:101CA000006801F061FE002010BD04EBC40C00EBE5
:101CB0008C0CCCF85020F1E7DAB2006801F05CFF40
:101CC000F1E738B501F00F054268954239D804466E
:101CD0000B4611F0800F1FD101EBC101890001F506
:101CE0001E710144043103EBC30300EB83030022A4
:101CF00083F87D2201238B700D7094F8BC34012B86
:101D000021D0012384F8BC34206802F079F88DB129
:101D1000002084F8BC0438BD05EBC50189003831CA
:101D20000144043105EBC50300EB8303012283F872
:101D30003D20DFE704F2C442217C206802F05EF916
:101D4000E6E70120E7E70220E5E701F00F0342683C
:101D5000934231D810B5044611F0800F1ED103EB29
:101D6000C301890001F51E710144043103EBC30274
:101D700000EB8202002082F87D0200228A700B7044
:101D800094F8BC34012B19D0012384F8BC342068AA
:101D900002F063F8002084F8BC0410BD03EBC3011B
:101DA000890038310144043103EBC30200EB8202A5
:101DB000012082F83D00E0E7012070470220ECE7B7
:101DC00008B511F0800F0CD101F00F0101EBC1013A
:101DD000890001F51E7101440431006801F056FECE
:101DE00008BD01F00F0101EBC10189003831014448
:101DF0000431F2E72DE9F04F83B004460568284628
:101E000002F0B6F810B103B0BDE8F08F06462068C6
:101E100002F07DF80028F6D005F50067BB68C3F333
:101E20000D23C4F8FC34206802F071F810F0020FA2
:101E300004D02268536903F002035361206802F062
:101E400066F810F0100F13D02268936923F0100386
:101E50009361D5F8208008F00F09C8F34343022BA3
:101E60004BD0062B6FD02268936943F01003936127
:101E7000206802F04CF810F4002F76D1206802F0B0
:101E800046F810F4802F40F0E080206802F03FF820
:101E90000028C0F26381206802F039F810F4006F66
:101EA00009D0BB6813F0010F40F0708122685369BC
:101EB00003F400635361206802F029F810F4805F96
:101EC00040F06881206802F022F810F4005F40F0D2
:101ED000B581206802F01BF810F0080F40F0C681B1
:101EE000206802F014F810F0800F00F0D981AB697F
:101EF00023F08003AB610126C2E147F6F07318EAD4
:101F0000030FB0D04FEA181B4FEAC903019309EB46
:101F1000C90A04EB8A0AC8F30A12DAF88C122846B6
:101F200001F044FFCBF30A0BDAF88C325B44CAF8B9
:101F30008C32019B4B4404EB8303D3F89C325B440B
:101F4000CAF89C328FE7082204F2C441284601F007
:101F50002DFFC8F30A1809EBC90204EB8202D2F87C
:101F60009C324344C2F89C327DE7206801F0D3FFE5
:101F70008046B14635E005EB49130122C3F8082B32
:101F800049462046FFF7FAFC3CE005EB49130822DE
:101F9000C3F8082B49462046FFF772FD35E009EBF0
:101FA000C90304EB830393F87F32012B41D005EB87
:101FB00049130222C3F8082B1AF0200F04D005EBB6
:101FC00049132022C3F8082B1AF4005F05D005EB53
:101FD00049134FF40052C3F8082B09F101094FEAE5
:101FE0005808B8F1000F3FF449AF18F0010FF4D0D2
:101FF0005FFA89FB5946206801F09DFF824610F088
:10200000010FB8D11AF0080FBFD11AF0100F04D089
:1020100005EB49131022C3F8082B1AF0020FCBD09E
:102020006B6913F0800FBAD07B6843F480637B60E8
:10203000B5E709EBC90304EB8303002283F87F2291
:102040005946204605F026F8B1E7206801F06BFFFD
:102050008046B14625E05946204604F0D5FF1AF0E7
:10206000080F04D005EB49130822C3F808291AF019
:10207000100F04D005EB49131022C3F808291AF0F9
:10208000400F04D005EB49134022C3F808291AF089
:10209000020F40D11AF0800F5BD109F101094FEA1C
:1020A0005808B8F1000F3FF4F0AE18F0010FF4D06B
:1020B0005FFA89FB5946206801F046FF824610F01E
:1020C000010FCCD009F00F03012101FA03F27B6B61
:1020D00023EA02037B6305EB4913C3F8081923695C
:1020E0008B42B8D109EBC90304EB8303996CDA6C1A
:1020F0000A44DA64B9F1000FADD109EBC90304EB6E
:1021000083035B6D002BA6D104F2C4420121206839
:1021100001F074FF9FE74946284601F037FA09EBC2
:10212000C90304EB830393F83F30012B05D005EB83
:1021300049130222C3F80829ACE709EBC90304EBF1
:102140008303002283F83F205946204604F0A8FF6D
:10215000EDE749462046FFF7F1FA9EE77B6823F05A
:1021600001037B6094F8F434012B08D0204604F07E
:102170008BFF2268536903F0004353618BE6002113
:1021800084F8F414204600F041F9F2E7204604F008
:1021900063FF8BE67B6823F001037B6010212068DE
:1021A00001F0F4F91AE005EB46134FF67F31C3F85E
:1021B0000819D3F8002922F40012C3F80029C3F843
:1021C000081BD3F8002B22F40012C3F8002BD3F81D
:1021D000002B42F00062C3F8002B01366368B34263
:1021E000E1D8FB6943F00113FB61236BDBB1D7F846
:1021F000843043F00B03C7F884307B6C43F00B034F
:102200007B64D5F8003823F4FE63C5F8003804F287
:10221000C442217C206801F0F1FE2268536903F476
:10222000805353614EE67B6943F4005343F02B0324
:102230007B613B6943F00B033B61E2E7206801F0FF
:10224000CCFE206801F0C0FAE060266800F0F6FBE2
:102250000146227B304601F01BF9204604F0E5FEE2
:102260002268536903F40053536132E6204604F0B8
:10227000D6FE2268536903F00803536130E6013645
:102280006368B3420CD906EBC60304EB830393F8EF
:102290007F32012BF3D1F1B22046FFF791FDEEE73B
:1022A000206801F034FE10F4801F27D1206801F06F
:1022B0002EFE10F4001F5BD0012328E00136636876
:1022C000B3421DD905EB4613D3F8002906EBC6032C
:1022D00004EB830393F84030012BEFD1002AEDDAB1
:1022E00006EBC60304EB8303012283F83F2066F06C
:1022F0007F01C9B22046FFF763FDDFE70126DEE775
:102300002268536903F480135361CFE70133626895
:102310009A4228D905EB4312D2F8001B03EBC30203
:1023200004EB820292F88022012AEFD10029EDDA33
:1023300001F48031D4F8FC2402F001029142E5D18D
:1023400003EBC30204EB8202012182F87F12AA6927
:1023500042F08002AA616A6912F0800FD6D17B68D0
:1023600043F400737B602268536903F400135361E4
:10237000206801F0CCFD10F0804F10D1206801F0F2
:10238000C6FD10F0040F3FF43EAD23685D6815F004
:10239000040F0DD1226853682B43536033E5204668
:1023A00004F084FE2268536903F080435361E5E73B
:1023B000204604F081FEEDE710B40468606A31B98C
:1023C00040EA0240A06200205DF8044B70478C4652
:1023D000A36A00EB1340002308E003F1400104EB83
:1023E0008101496800EB11400133DBB20CF1FF3190
:1023F0008B42F2D340EA02400CF13F0104EB810131
:102400004860E0E7036859620020704770470000A9
:10241000002800F0E08170B582B00446036813F034
:10242000010F3BD09F4B9B6803F00C03042B2CD077
:102430009C4B9B6803F00C03082B21D06368B3F519
:10244000803F4FD0B3F5A02F52D0964B1A6822F49C
:1024500080321A601A6822F480221A606368002BA6
:1024600050D0FEF7F3FC05468E4B1B6813F4003F7B
:1024700014D1FEF7EBFC401B6428F5D90320B1E131
:10248000884B5B6813F4800FD8D0864B1B6813F41D
:10249000003F03D06368002B00F09F81236813F096
:1024A000020F54D07F4B9B6813F00C0F3ED07D4B36
:1024B0009B6803F00C03082B33D0E368002B68D033
:1024C000794B01221A60FEF7C1FC0546754B1B686B
:1024D00013F0020F54D1FEF7B9FC401B0228F5D9C6
:1024E00003207FE16F4A136843F480331360B5E73C
:1024F0006C4B1A6842F480221A601A6842F48032E7
:102500001A60ABE7FEF7A2FC0546664B1B6813F4A6
:10251000003FC3D0FEF79AFC401B6428F5D9032086
:1025200060E1604B5B6813F4800FC6D15D4B1B68A4
:1025300013F0020F03D0E368012B40F05081594A99
:10254000136823F0F803216943EAC1031360236889
:1025500013F0080F42D063696BB3534B0122C3F8E9
:10256000802EFEF773FC05464E4B5B6F13F0020F97
:1025700034D1FEF76BFC401B0228F5D9032031E172
:10258000484A136823F0F803216943EAC103136042
:10259000DDE7454B00221A60FEF758FC0546414B2B
:1025A0001B6813F0020FD2D0FEF750FC401B02282C
:1025B000F5D9032016E13C4B0022C3F8802EFEF72C
:1025C00045FC0546374B5B6F13F0020F06D0FEF754
:1025D0003DFC401B0228F5D9032003E1236813F0DA
:1025E000040F77D02F4B1B6C13F0805F33D1002387
:1025F00001932C4B1A6C42F080521A641B6C03F04E
:1026000080530193019B0125284B1B6813F4807FA5
:1026100023D0A368012B34D0052B38D0214B1A6F5F
:1026200022F001021A671A6F22F004021A67A368E7
:10263000002B3DD0FEF70AFC06461A4B1B6F13F029
:10264000020F46D1FEF702FC801B41F2883398420C
:10265000F3D90320C6E00025D6E7144A136843F4F3
:1026600080731360FEF7F2FB0646104B1B6813F4F1
:10267000807FCED1FEF7EAFB801B0228F5D903202C
:10268000B0E0084A136F43F001031367CFE7054B2F
:102690001A6F42F004021A671A6F42F001021A67B9
:1026A000C5E700BF0038024000004742007000400C
:1026B000FEF7CCFB0646524B1B6F13F0020F08D0FF
:1026C000FEF7C4FB801B41F288339842F3D9032004
:1026D00088E0EDB9A369002B00F08380484A926836
:1026E00002F00C02082A51D0022B17D0454B0022D1
:1026F0001A66FEF7ABFB0446414B1B6813F0007FE4
:1027000042D0FEF7A3FB001B0228F5D9032069E0A5
:102710003B4A136C23F080531364DBE7394B0022F0
:102720001A66FEF793FB0546354B1B6813F0007FD6
:1027300006D0FEF78BFB401B0228F5D9032051E0A1
:10274000E369226A1343626A43EA8213A26A520867
:10275000013A43EA0243E26A43EA0263284A5360C9
:10276000284B01221A66FEF771FB0446244B1B68B6
:1027700013F0007F06D1FEF769FB001B0228F5D994
:1027800003202FE000202DE000202BE0012B2BD098
:102790001B4B5B6803F48001E269914226D103F090
:1027A0003F02216A8A4223D1616A47F6C0721A4009
:1027B000B2EB811F1ED103F44031A26A5208013AE4
:1027C000B1EB024F18D103F07063E26AB3EB026F12
:1027D00014D1002006E001207047012002E0012012
:1027E00000E0002002B070BD0120FBE70120F9E706
:1027F0000120F7E70120F5E70120F3E70120F1E7E9
:10280000003802400000474208B5314B9B6803F096
:102810000C03042B57D0082B57D12D4B5A6802F0CC
:102820003F025B6813F4800F2AD0294B5968C1F32B
:10283000881C4FEA4C11B1EB0C006EEB0E0E4FEA08
:102840008E1343EA90638101091A63EB0E03DB00E8
:1028500043EA5173C90011EB0C0C43F10003590218
:1028600000234FEA4C2041EADC51FDF7B1FC184B44
:102870005B68C3F3014301335B00B0FBF3F025E079
:10288000134B5968C1F3881C4FEA4C11B1EB0C0093
:102890006EEB0E0E4FEA8E1343EA90638101091A24
:1028A00063EB0E03DB0043EA5173C90011EB0C0C20
:1028B00043F10003990200234FEA8C2041EA9C5126
:1028C000FDF786FCD3E7034800E0034808BD00BFDE
:1028D0000038024000127A000024F400002800F0C2
:1028E0009B8070B50D4604464F4B1B6803F00703F1
:1028F0008B4208D2CBB24C4A1370136803F0070323
:102900008B4240F08B80236813F0020F17D013F036
:10291000040F04D0454A936843F4E053936023685E
:1029200013F0080F04D0414A936843F46043936066
:102930003E4A936823F0F003A1680B439360236839
:1029400013F0010F32D06368012B21D09A1E012AA7
:1029500025D9364A126812F0020F61D033498A68CD
:1029600022F0030213438B60FEF770FA06462F4BEA
:102970009B6803F00C036268B3EB820F16D0FEF77E
:1029800065FA801B41F288339842F0D9032042E077
:10299000264A126812F4003FE0D101203BE0234AAE
:1029A000126812F0007FD9D1012034E01E4B1B6861
:1029B00003F00703AB4207D9EAB21B4B1A701B683E
:1029C00003F00703AB422DD1236813F0040F06D0A8
:1029D000164A936823F4E053E1680B43936023683D
:1029E00013F0080F07D0114A936823F4604321695C
:1029F00043EAC1039360FFF707FF0C4B9B68C3F3E7
:102A000003130B4AD35CD8400A4B18600A4B186872
:102A1000FEF778F8002070BD012070470120FAE72A
:102A20000120F8E70120F6E7003C024000380240B0
:102A3000207400080000002008000020014B1868E6
:102A4000704700BF0000002008B5FFF7F7FF044BF8
:102A50009B68C3F38223034AD35CD84008BD00BF00
:102A6000003802403074000808B5FFF7E7FF044B58
:102A70009B68C3F34233034AD35CD84008BD00BF10
:102A800000380240307400080F2303600B4B9A6833
:102A900002F0030242609A6802F0F00282609A68D3
:102AA00002F4E052C2609B68DB0803F4E053036168
:102AB000034B1B6803F007030B60704700380240AC
:102AC000003C024090F83D30DBB2012B37D10223AD
:102AD00080F83D300268D36843F00103D360036897
:102AE000194A934220D0B3F1804F1DD0A2F57C4209
:102AF000934219D002F58062934215D002F58062AC
:102B0000934211D002F5784293420DD002F57052F3
:102B1000934209D0A2F59432934205D01A6842F04C
:102B200001021A60002070479A6802F00702062A24
:102B300007D01A6842F001021A6000207047012095
:102B400070470020704700BF000001407047704789
:102B50007047704710B5044603681A6912F0020FF7
:102B600011D0DA6812F0020F0DD06FF002021A6174
:102B70000123037703689B6913F0030F70D0FFF7FD
:102B8000E6FF0023237723681A6912F0040F12D09E
:102B9000DA6812F0040F0ED06FF004021A610223FB
:102BA000237723689B6913F4407F5FD02046FFF7AB
:102BB000CEFF0023237723681A6912F0080F12D082
:102BC000DA6812F0080F0ED06FF008021A610423C1
:102BD00023772368DB6913F0030F4ED02046FFF7FD
:102BE000B6FF0023237723681A6912F0100F12D062
:102BF000DA6812F0100F0ED06FF010021A6108237D
:102C000023772368DB6913F4407F3DD02046FFF72C
:102C10009EFF0023237723681A6912F0010F03D067
:102C2000DA6812F0010F36D123681A6912F0800FAA
:102C300003D0DA6812F0800F34D123681A6912F0D9
:102C4000400F03D0DA6812F0400F32D123681A69BE
:102C500012F0200F03D0DA6812F0200F30D110BD2F
:102C6000FFF774FF2046FFF773FF8AE72046FFF760
:102C70006DFF2046FFF76CFF9BE72046FFF766FFDE
:102C80002046FFF765FFACE72046FFF75FFF2046D1
:102C9000FFF75EFFBDE76FF001021A612046FDF706
:102CA00093FEC1E76FF080021A61204600F0A1F8A0
:102CB000C3E76FF040021A612046FFF74AFFC5E7FD
:102CC0006FF020021A61204600F092F8C7E700007A
:102CD0000368304A904212D0B0F1804F0FD0A2F575
:102CE0007C4290420BD002F58062904207D002F500
:102CF0008062904203D002F57842904203D123F0E3
:102D000070034A681343234A90422AD0B0F1804F9F
:102D100027D0A2F57C42904223D002F580629042F7
:102D20001FD002F5806290421BD002F5784290429B
:102D300017D002F57052904213D002F58062904293
:102D40000FD002F5806290420BD0A2F598329042EB
:102D500007D002F58062904203D002F58062904273
:102D600003D123F44073CA68134323F080034A69F4
:102D7000134303608B68C3620B688362054B984200
:102D800003D003F58063984201D10B6903630123EB
:102D9000436170470000014040B310B5044690F80D
:102DA0003D30F3B1022384F83D30214651F8040B45
:102DB000FFF78EFF012384F8463084F83E3084F814
:102DC0003F3084F8403084F8413084F8423084F851
:102DD000433084F8443084F8453084F83D30002096
:102DE00010BD80F83C30FDF767FFDBE7012070473E
:102DF00070477047026802F10C0353E8003F23F468
:102E000090730C3242E800310029F3D1026802F1DC
:102E1000140353E8003F23F00103143242E8003169
:102E20000029F3D1036B012B05D0202380F83E301D
:102E3000002303637047026802F10C0353E8003F6C
:102E400023F010030C3242E800310029F3D1ECE703
:102E500090F83D30DBB2212B01D00220704783680F
:102E6000B3F5805F17D0036A5A1C02621A780368B0
:102E70005A60C38C9BB2013B9BB2C3844BB90268BE
:102E8000D36823F08003D3600268D36843F0400323
:102E9000D360002070470369002BE4D1036A1B88CC
:102EA0000268C3F308035360036A02330362E0E776
:102EB00038B504460268136923F44053C1680B43D4
:102EC000136183680269134342691343C2691A4359
:102ED0000168CB6823F4164323F00C031343CB6043
:102EE0000268536923F4407381690B43536103689B
:102EF000314A934206D002F58062934202D0FFF736
:102F0000A3FD01E0FFF7B0FDE369B3F5004F29D061
:102F10000021031849411B1841F10001C90041EA91
:102F20005371DB00181863684FEA83024FEA93730A
:102F300041F10001FDF74CF9204DA5FB003251098C
:102F4000642303FB11031B013233A5FB03235B093D
:102F500003F0F00202EB011203F00F0321681344A7
:102F60008B6038BD0023021843EB0301121841F1B6
:102F70000001C90041EA5271D200101841F100016C
:102F8000626892185B41FDF723F90C4DA5FB0032F6
:102F90005109642303FB1103DB003233A5FB032338
:102FA0005B095A0002F4F87202EB011203F0070306
:102FB000216813448B60D4E7001001401F85EB515A
:102FC00058B310B5044690F83D300BB3242384F871
:102FD0003D302268D36823F40053D3602046FFF7C6
:102FE00067FF2268136923F49043136122685369D1
:102FF00023F02A0353612268D36843F40053D3605B
:1030000000202064202384F83D3084F83E3010BD39
:1030100080F83C30FDF78AFED8E701207047704702
:1030200008B50168CA6822F04002CA60202280F810
:103030003D20FFF7F4FF002008BD7047704708B53A
:10304000806B0023C385C384FFF7F8FF08BD70477A
:1030500090F83E30DBB2222B67D18368B3F5805FF6
:103060004DD0826AB3F5805F04D0002B54D1036940
:10307000002B51D103685B681370836A013383624C
:10308000C38D9BB2013B9BB2C385002B4FD100B5D2
:1030900083B00268D36823F02003D3600268D3684A
:1030A00023F48073D3600268536923F001035361F2
:1030B000202380F83E30036B012B33D100230363C0
:1030C000026802F10C0353E8003F23F010030C32B6
:1030D00042E800310029F3D103681A6812F0100F9A
:1030E00006D0002201921A6801925B680193019B4D
:1030F000818DFFF7ACFF002003B05DF804FB02698F
:10310000002AAED1826A03685B68C3F308031380A8
:10311000836A02338362B3E703685B6803F07F036B
:103120001370AAE7FFF789FFE5E702207047002048
:103130007047000030B583B0044602681368D06859
:10314000516913F00F0505D113F0200F02D010F0D4
:10315000200F19D12DB111F0010119D110F4907F78
:1031600016D1216B01297DD013F0800F03D010F010
:10317000800F40F0158113F0400F03D010F0400F86
:1031800040F0128103B030BD2046FFF761FFF9E740
:1031900013F0010F06D010F4807F03D0226C42F0B0
:1031A0000102226413F0040F04D019B1226C42F022
:1031B0000202226413F0020F04D019B1226C42F013
:1031C0000402226413F0080F07D010F0200F00D182
:1031D00019B1226C42F008022264226C002AD1D07C
:1031E00013F0200F02D010F0200F29D123685B6963
:1031F00003F04003226C12F0080F00D163B32046A5
:10320000FFF7F8FD23685B6913F0400F20D02268B8
:1032100002F1140353E8003F23F04003143242E864
:1032200000310029F3D1A36B73B1614A1A65A06B19
:10323000FEF7A0F80028A5D0A06B036D9847A1E782
:103240002046FFF705FFD1E72046FFF7F7FE99E795
:103250002046FFF7F3FE95E72046FFF7EFFE002339
:1032600023648FE713F0100F3FF47EAF10F0100FC0
:103270003FF47AAF002301931368019353680193DD
:10328000019B536913F0400F50D0A26B13685B6829
:103290009BB2002B3FF476AFA18D99427FF672AFBF
:1032A000E385D369B3F5807F37D0226802F10C0340
:1032B00053E8003F23F480730C3242E800310029C8
:1032C000F3D1226802F1140353E8003F23F0010315
:1032D000143242E800310029F3D1226802F11403CC
:1032E00053E8003F23F04003143242E80031002944
:1032F000F3D1202384F83E3000232363226802F1B7
:103300000C0353E8003F23F010030C3242E8003175
:103310000029F3D1A06BFDF7E3FFA18DE38D9BB2F4
:10332000C91A89B22046FFF792FE2BE7A18DE38DE3
:103330009BB2C91A89B2E38D9BB2002B3FF422AF36
:1033400000293FF41FAF226802F10C0353E8003F4D
:1033500023F490730C3242E800300028F3D1226845
:1033600002F1140353E8003F23F00103143242E852
:1033700000300028F3D1202384F83E30002323635B
:10338000226802F10C0353E8003F23F010030C32D3
:1033900042E800300028F3D12046FFF758FEF1E65E
:1033A0002046FFF755FDEDE62046FFF739FEE9E63A
:1033B0003F30000882B000230193019B0133019349
:1033C000019A0F4B9A4215D80369002BF5DA0023B6
:1033D0000193036943F001030361019B01330193EE
:1033E000019A074B9A4208D8036913F0010FF4D1F0
:1033F000002000E0032002B070470320FBE700BF7D
:10340000400D030084B010B5044603A880E80E0008
:10341000089B012B1FD1A36B23F48033A363E368C4
:1034200023F4840323F04003E360E36823F44013B0
:10343000E3600F9B012B09D02046FFF7BBFF069BE3
:10344000012B1BD0BDE8104004B07047E36843F483
:103450008013E360F0E7E36843F04003E360204655
:10346000FFF7A8FF0C9B23B9A36B43F48033A3633E
:10347000E5E7A36B23F48033A363E0E7A36843F09D
:103480000603A360A36843F02003A360DAE700000B
:10349000022A0AD00921C26822F47052C260C368AD
:1034A00043EA8123C36000207047234B0B44234A27
:1034B00093422FD9224B0B44224A93422CD9A1F597
:1034C0007403A3F51053204A934227D9A1F18373C3
:1034D000A3F5E7431D4A934222D31D4B0B441D4ADB
:1034E00093421FD91C4B0B441C4A93421CD31C4BC8
:1034F0000B441C4A934219D3A1F1B773A3F5585357
:10350000194A934214D3194B0B44194A934211D2CE
:103510000721C0E70F21BEE70E21BCE70D21BAE766
:103520000C21B8E70B21B6E70A21B4E70921B2E77D
:103530000821B0E70621AEE7405327FFFF340C0017
:10354000401E1BFF3F420F007F4F120020D613008A
:1035500060B6E5FE5FE3160000D3CEFE40771B00A9
:10356000C05BB3FEC091210020753800E05459FEC5
:10357000E09C4100836843F00103836000207047B2
:10358000836823F0010383600020704782B000232A
:103590000193019B01330193019A0F4B9A4215D875
:1035A0000369002BF5DA00230193890141F0200122
:1035B0000161019B01330193019A074B9A4208D89C
:1035C000036913F0200FF4D1002000E0032002B0C3
:1035D00070470320FBE700BF400D030082B00023CB
:1035E0000193019B01330193019A0E4B9A4213D828
:1035F0000369002BF5DA0023019310230361019B7B
:1036000001330193019A074B9A4208D8036913F0DA
:10361000100FF4D1002000E0032002B07047032017
:10362000FBE700BF400D0300D0F800381943C0F895
:10363000001800207047000084B02DE9F0410446D6
:1036400007A880E80E00002306E003F1400204EB27
:1036500082020021516001330E2BF6D9119F27BB46
:10366000D4F8043843F00203C4F80438A36B43F4DD
:103670000013A363A36B23F40023A363A36B23F4BE
:103680008023A3630023C4F8003E04F50065D4F84A
:103690000038C4F800380C9B012B14D1099B6BB97E
:1036A00000212046FFF7C0FF11E0A36B23F40013B5
:1036B000A363A36B43F40023A363E3E70121204644
:1036C000FFF7B2FF03E003212046FFF7ADFF102113
:1036D0002046FFF75BFF804608B14FF00108204607
:1036E000FFF77CFF08B14FF0010800232B616B61ED
:1036F000EB610AE0C3B94FF00060C2F80009002294
:103700000A614FF67F328A6001330799994210D9D6
:1037100004EB431202F51061D2F800090028E9DB3E
:103720000020C2F80009EAE74FF09040C2F8000913
:10373000E5E700230AE0C3B14FF0904CC2F800CB9C
:10374000002202614FF67F3282600133994211D923
:1037500004EB431202F53060D2F8006B002EEADB76
:103760004FF0000CC2F800CBEAE74FF0006CC2F853
:1037700000CBE5E72B6923F480732B610023A36161
:103780006FF0804363610A9B1BB9A36943F0100388
:10379000A361A2690B4B1343A3610D9B1BB1A369EA
:1037A00043F00803A361012F04D04046BDE8F04177
:1037B00004B07047A36943F0804343F00403A3615E
:1037C000F3E700BF00383C80D0F8083813F0060358
:1037D00007D0022B07D0062B01D00F207047022004
:1037E0007047002070470220704710B591F800C064
:1037F0004B78012B23D000F5006ED0F81C380CF06C
:103800000F040122A24043EA0243C0F81C3800EB37
:103810004C10D0F8003B13F4004F0ED1D0F8003B11
:10382000CA68C2F30A02097942EA8142134343F0AB
:10383000805343F40043C0F8003B002010BDD0F893
:103840001C280CF00F0E03FA0EF39BB21343C0F8C2
:103850001C3800EB4C10D0F8003913F4004FECD1B9
:10386000D0F80039CA68C2F30A02097942EA8142F3
:1038700042EA8C5C43EA0C0343F0805343F4004378
:10388000C0F80039D9E7000030B40B784A78012A33
:1038900026D000EB4313D3F8002B002A52DBD0F8DC
:1038A0003C480A7802F00F024FF0010C0CFA02F2C9
:1038B00024EA0242C0F83C28D0F81C28097801F01C
:1038C0000F010CFA01FC22EA0C42C0F81C28D3F8C4
:1038D000001B234A0A40C3F8002B002030BC70476D
:1038E00000EB4313D3F80029002A1EDBD0F83C5824
:1038F0000A7802F00F02012404FA02F292B225EAD9
:103900000202C0F83C28D0F81C28097801F00F0109
:103910008C40A4B222EA0404C0F81C48D3F8001971
:10392000104A0A40C3F80029D7E7D3F8002942F02B
:103930000062C3F80029D3F8002942F08042C3F89E
:103940000029D3E7D3F8002B42F00062C3F8002B24
:10395000D3F8002B42F08042C3F8002B9FE700BF52
:103960000078F3EF007833EC70B40B784C78012CCE
:1039700029D000EB431000F530631C69E40CE4042B
:103980001C611C6924F0FF5424F4C0141C618C6970
:103990000CB1CC688C61CC68CC611C6944F4002407
:1039A0001C611C69CD69C5F3120C44EA0C041C614E
:1039B000012A66D0D0F8003B43F00443C0F8003B36
:1039C000002070BC70478C696CBB00EB4314D4F8CA
:1039D000105925F0FF5525F4C015C4F81059D4F836
:1039E000105945F40025C4F81059D4F81059ED0CBD
:1039F000ED04C4F81059012A34D000EB4313D3F876
:103A0000002942F00442C3F800298B69002BD7D06B
:103A1000D0F834380A7802F00F0101228A401343AB
:103A2000C0F83438CCE700EB431404F51064256982
:103A3000ED0CED042561256925F0FF5525F4C01531
:103A40002561CD688E69AE4200D98D61256945F446
:103A50000025256125698E69C6F3120C45EA0C051F
:103A60002561C8E74A691AB100EB4311C1F814296E
:103A700000EB4310D0F8002942F00442C0F80029BE
:103A80009EE70A69002A95D05A6193E710B483B083
:103A9000024600230193487801280BD00B7802EBF3
:103AA0004313D3F8000B00282DDB002003B05DF892
:103AB000044B70470B7802EB4313D3F80049002CFA
:103AC00001DB0020F2E7D3F8004944F00064C3F8BA
:103AD00000490B7802EB4313D3F8004944F08044CB
:103AE000C3F80049019B01330193019C42F210731A
:103AF0009C42DBD80B7802EB4313D3F80039002B40
:103B0000F0DB0020D2E7D3F8000B40F00060C3F8F0
:103B1000000B0B7802EB4313D3F8000B40F080400E
:103B2000C3F8000B019B01330193019842F210731B
:103B3000984208D80B7802EB4313D3F8003B002BD4
:103B4000F0DB0020B2E70120B0E710B59DF8084097
:103B500084B903334FEA930E4FF0000C08E000EBFA
:103B6000023303F5805351F8044B1C600CF1010C37
:103B7000F445F4D3002010BDF0B583B00B784C7839
:103B8000012C33D000EB431303F5306CDCF810400C
:103B9000E40CE404CCF81040DCF8104024F0FF54AE
:103BA00024F4C014CCF810408C69002C40F0C7807D
:103BB000DCF81040CD68C5F312052C43CCF810405A
:103BC000DCF8104044F40024CCF81040012A00F046
:103BD000D0800A79012A00F0D380D3F8002B42F07C
:103BE0000442C3F8002B002003B0F0BD8C6984BBF5
:103BF00000EB4314D4F8105925F0FF5525F4C015F7
:103C0000C4F81059D4F8105945F40025C4F81059D7
:103C1000D4F81059ED0CED04C4F81059012A4CD019
:103C200000EB4313D3F8004944F00444C3F80049BF
:103C30000C79012C6AD08B69002BD4D0D0F83438A1
:103C40000A7802F00F0101228A401343C0F8343889
:103C5000C9E700EB4314D4F81059ED0CED04C4F897
:103C60001059D4F8105925F0FF5525F4C015C4F8A3
:103C70001059D4F810698D69CF683D44013DB5FBFA
:103C8000F7F5494F07EAC5453543C4F81059D4F84C
:103C900010598E69C6F312063543C4F8105904F55D
:103CA00010640D79012DB9D1256925F0C045256134
:103CB000256945F000552561B0E74A691AB100EB66
:103CC0004314C4F814290A79012A08D000EB4313DD
:103CD000D3F8002942F00442C3F8002983E7D0F862
:103CE000082812F4807F08D100EB4311D1F8002995
:103CF00042F00052C1F80029E8E700EB4311D1F887
:103D0000002942F08052C1F80029DFE7D0F80848C6
:103D100014F4807F0CD1D3F8004944F00054C3F868
:103D2000004900920B8B0A780969FFF70EFF5AE7EA
:103D3000D3F8004944F08054C3F80049F1E7CD6856
:103D40002C44013CB4FBF5F4A4B204FB05F5CD61B1
:103D5000DCF81050144E06EAC4442C43CCF8104052
:103D6000DCF81040CD69C5F312052C43CCF81040A7
:103D70002CE70A69002A3FF42CAFCCF8142028E77E
:103D8000D0F8082812F4807F06D1D3F8002B42F037
:103D90000052C3F8002B20E7D3F8002B42F08052EA
:103DA000C3F8002B19E700BF0000F81F00B583B06F
:103DB000844608464FEA920E02F00302002305E013
:103DC0000CF58051096840F8041B01337345F7D3A3
:103DD0009AB10CF5805CDCF8003001934FF0000CD8
:103DE0005FFA8CF3D900019BCB4000F8013B0CF14A
:103DF000010C013A92B2002AF2D103B05DF804FB43
:103E00000B784A78012A14D000EB4310D0F8002B2D
:103E1000002A06DB2BB1D0F8003B23F08043C0F82A
:103E2000003BD0F8003B43F40013C0F8003B0020F7
:103E3000704700EB4310D0F80029002A06DB2BB1B5
:103E4000D0F8003923F08043C0F80039D0F80039A9
:103E500043F40013C0F80039E9E70B784A78012AE7
:103E60000ED000EB4310D0F8003B23F40013C0F851
:103E7000003B0B79023BDBB2012B15D900207047C8
:103E800000EB4310D0F8003923F40013C0F80039D8
:103E90000B79023BDBB2012BF0D8D0F8003943F0AC
:103EA0008053C0F80039E9E7D0F8003B43F0805375
:103EB000C0F8003BE2E7D0F8003823F4FE63C0F816
:103EC0000038D0F80038090101F4FE611943C0F848
:103ED000001800207047D0F8003E23F00303C0F81C
:103EE000003ED0F8043823F00203C0F80438002064
:103EF0007047D0F8003E23F00303C0F8003ED0F82E
:103F0000043843F00203C0F80438002070474269C7
:103F1000806910407047D0F8183800F50060C0691B
:103F20001840000C7047D0F8183800F50060C069E0
:103F3000184080B2704700EB4111D1F8082B00F512
:103F4000006040691040704710B4D0F81048D0F8B5
:103F5000343801F00F02D340DB01DBB2234300EB26
:103F6000411000F51060806818405DF8044B704700
:103F7000406900F00100704738B50546C36823F07A
:103F8000C043C360012913D019BBC36843F0804309
:103F9000C36000240120FCF75FFF01342846FFF7CF
:103FA000E7FF08B1312CF5D9322C14D0002038BDF0
:103FB000C36843F00053C36000240120FCF74CFFAA
:103FC00001342846FFF7D4FF0128EDD0312CF4D975
:103FD000EAE70120EBE70120E9E7D0F8003923F414
:103FE000FF6323F00703C0F80039D0F8043843F426
:103FF0008073C0F8043800207047000010B4046CCF
:10400000154B9C4203D9D0F8003B002B16DB002453
:10401000C0F8104BD0F8104B44F40024C0F8104BFB
:10402000D0F8104B44F01804C0F8104BD0F8104BE7
:1040300044F0C044C0F8104B012903D000205DF8C3
:10404000044B7047C0F8142BD0F8003B43F080239A
:10405000C0F8003BF2E700BF0A30544F10B5D0F86B
:10406000D43203F1B00250F822408CB100EB820050
:1040700043687BB194F80002FF280DD09B6894F848
:10408000012221469847FF2384F80032002010BD0A
:104090000320FCE70020FAE70020F8E70A2303806A
:1040A0000048704788000020F8B506460F4F82216F
:1040B000384600F01FFC05460121384600F01AFC86
:1040C00004468121384600F015FC0DB11022AA717A
:1040D0001CB1402222710022627118B1402202718B
:1040E00000224271432333800048F8BD4400002081
:1040F000F8B506460F4F8221384600F0FBFB054617
:104100000121384600F0F6FB04468121384600F0D4
:10411000F1FB0DB11022AA711CB1402222710022C4
:10412000627118B140220271002242714323338030
:104130000048F8BD44000020F8B506460F4F822124
:10414000384600F0D7FB05460121384600F0D2FB87
:1041500004468121384600F0CDFB0DB11022AA7132
:104160001CB1002222710222627118B10022027178
:1041700002224271432333800048F8BD44000020EE
:1041800038B5D0F8D432B03350F8235095B1044646
:1041900002F0E3FFC5F80C02D4F8D432B03304EBDC
:1041A00083046368DB6805F50371D5F8040298475A
:1041B000002038BD0320FCE738B5D0F8C852D0F84D
:1041C000D432B03350F8234084B301F00F0303EB33
:1041D000830200EB820292694AB103EBC30C05EB48
:1041E0008C05AD6CB2FBF5FC05FB1C2292B10023E3
:1041F000C4F81432D0F8D432B03300EB83004368F3
:104200001B69ABB10A4604F50471D4F8080298475B
:10421000002038BD03EB830300EB830300249C6183
:104220002346224602F0E2FF2046F2E70320F0E7B1
:104230000020EEE7F0B583B0D0F8D43203F1B0023D
:1042400050F8227000228DF80720ADF80420002FCE
:104250007BD004460D46097811F0600634D0202E3C
:104260006CD1EA882AB311F0800F07D16B7887F8F8
:104270000032EA883F2A13D8D2B212E0B03300EB02
:1042800083035B689B68394668789847EA88072A01
:1042900028BF07223946204600F0DCFE002651E008
:1042A000402287F801223946204600F0E8FE002629
:1042B00048E0B03300EB830463689B680022294622
:1042C0006878984700263DE06F780B2F31D8DFE8FB
:1042D00007F006393030303030303030162690F864
:1042E0009C32DBB2032B04D0294600F040FB0326AE
:1042F00028E0022201A900F0ADFE3E4622E090F83F
:104300009C32DBB2032B04D0294600F030FB03269D
:1043100018E001220DF1070100F09CFE12E090F878
:104320009C32DBB2032B0DD0294600F020FB032684
:1043300008E0294600F01BFB032603E0294600F0B5
:1043400016FB0326304603B0F0BD0326FAE738B566
:104350000446812102F02AFF0025258701212046FD
:1043600002F024FFA4F878518221204602F01EFFBB
:10437000A4F84C50A4F84E50D4F8D43203F1B00253
:1043800054F822209AB1B03304EB83035B685B6876
:104390009847D4F8D432B03354F8230002F0E8FE42
:1043A000D4F8D432B03344F82350C4F8BC520020BF
:1043B00038BD70B504464FF4077002F0D5FE0028F2
:1043C00049D005464FF40772002102F043FFD4F8AC
:1043D000D432B03344F82350C4F8BC52237C002BB1
:1043E00041D14FF4007302228121204602F0D3FE16
:1043F000012626874FF4007302223146204602F040
:10440000CAFEA4F878611023A4F84E3008230322D2
:104410008221204602F0BFFE0123A4F84C30002682
:10442000C5F80462D4F8D432B03304EB83035B687C
:104430001B689847C5F81462C5F81862D5F80422BD
:1044400062B3257C1DBB4FF400730121204602F0AE
:10445000D5FE284670BDD4F8D432B033002244F8DB
:1044600023200225F5E7402302228121204602F085
:1044700092FE01262687402302223146204602F082
:104480008AFEA4F878611023A4F84E30BEE74023DA
:104490000121204602F0B2FE0025DAE70225D8E726
:1044A00039B1D0F8D432B03300EB83004160002042
:1044B000704703207047D0F8D432B03350F823301F
:1044C0002BB1C3F80812C3F8102200207047032054
:1044D0007047D0F8D432B03350F823301BB1C3F852
:1044E0000412002070470320704710B5D0F8D43272
:1044F000B03350F8232092B1047C44B94FF40073D8
:10450000D2F80422012102F079FE204610BD40239A
:10451000D2F80422012102F071FE0024F5E7032401
:10452000F3E798B108B503460020C3F8B802C3F812
:10453000C402C3F8D00209B1C3F8B412012183F850
:104540009C121A70184602F0BDFD08BD032070478A
:1045500010B582B00023ADF8063089B10446C0F82A
:10456000B812CB6A23B10DF106009847C4F8D00207
:10457000D4F8D8320133C4F8D832002002B010BDCC
:104580000320FBE708B502F0FEFD08BD08B5D0F832
:10459000B83213B11B68984708BD0020FCE708B586
:1045A000D0F8B8325B68984700B908BD0320FCE733
:1045B00038B5044600F2AA25284600F0C4F90123C4
:1045C000C4F89432B4F8B032C4F8983294F8AA120D
:1045D00001F01F03012B0DD0022B10D02BB101F0E5
:1045E0008001204602F0EAFD03E02946204600F063
:1045F0007FFB38BD2946204600F0B5FBF9E7294688
:10460000204600F0F2FBF4E7F8B50446012380F8F9
:104610009C320023C0F894324360C0F8A43280F882
:10462000A032D0F8B832DBB15B68DBB1002198472B
:104630000746C8B9402300221146204602F0ABFDD0
:104640000126A4F864614025C4F860512B4600227D
:104650008021204602F09FFDA68425623846F8BDE1
:104660000027E7E70027E5E70327E3E701740020D9
:10467000704790F89C32DBB280F89D32042380F8BA
:104680009C320020704790F89C32DBB2042B01D0A2
:104690000020704790F89D32DBB280F89C32F7E73B
:1046A00008B590F89C32DBB2032B01D0002008BD86
:1046B000D0F8B832002BF9D0DB69002BF6D0984740
:1046C000F4E708B5D0F8D432AE3350F823205AB10D
:1046D00090F89C32DBB2032B01D0002008BD136A96
:1046E00023B198470020F9E70320F7E70020F5E71A
:1046F00008B5D0F8D432AE3350F823205AB190F830
:104700009C32DBB2032B01D0002008BD536A23B1D9
:1047100098470020F9E70320F7E70020F5E700209D
:10472000704708B5012380F89C32D0F8B83223B125
:104730005B680179984710B908BD0020FCE70320A9
:10474000FAE7002070470020704738B504460D4650
:10475000002943D11346D0F89422032A01D00846F9
:1047600038BDD0F85C11D0F86021914212D890F891
:10477000AA3203F01F03012B17D0022B1CD02846AE
:1047800094F89C32DBB2032B1BD0204600F08EFC49
:104790002846E5E7891AC0F85C118A4228BF0A4614
:1047A000194600F07BFC2846DAE790F8AE12FFF7D6
:1047B000C8FF0028E9D1E3E790F8AE12FFF7C3FF86
:1047C000F7E700F1AE0354F823301A69002ADCD071
:1047D000C4F8D4021B6920469847D6E701F07F0150
:1047E000FFF7B1FF90B994F89C32DBB2032BB7D13D
:1047F00000F1AE0354F823309A69002AB0D0C4F80F
:10480000D4029B69294620469847A9E70020A7E7DC
:1048100038B504460D4600294BD11346D0F89422F2
:10482000022A07D094F8A00218B1002384F8A0321D
:10483000284638BDC269016A8A420ED88A4218D019
:1048400094F89C32DBB2032B27D08021204602F063
:10485000B5FC204600F035FCE4E7521AC261194667
:1048600000F005FC00231A461946204602F0C6FC5B
:10487000D8E783699942E3D8D0F898229342DFD2EF
:104880000022114600F0F3FB0021C4F898120B46F9
:104890000A46204602F0B2FCC4E7D4F8B832DA681F
:1048A000002AD2D00022C4F8D422DB6820469847E0
:1048B000CBE741F08001FFF746FF90B994F89C32B6
:1048C000DBB2032BB5D100F1AE0354F823305A69A3
:1048D000002AAED0C4F8D4025B6929462046984726
:1048E000A7E70020A5E703780A8813440B80037824
:1048F00018447047428803789A4218D930B583B07B
:1049000004460D46ADF806306288BDF806309A427E
:104910000AD90DF10601FFF7E6FF4378052BF3D125
:104920008378AB42F0D100E0002003B030BD00201E
:1049300070470346002002E00130C0B201331A780C
:10494000002AF9D170470B7803704B7843708B784D
:10495000CA7843EA022343800B794A7943EA022367
:1049600083808B79CA7943EA0223C380704710B5EC
:104970000446802102F022FC0021204602F01EFCA9
:1049800010BD30B583B004460D460023ADF80630A7
:104990004A88130A013B062B00F2AB80DFE803F0E4
:1049A000041F33A9A98D9A00D0F8B4321B680DF109
:1049B0000601007C9847EA88002A00F0A380BDF831
:1049C0000630002B00F099809A4228BF1A46ADF8B5
:1049D00006200146204600F03DFB03B030BD037CBD
:1049E00043B9D0F8B8329B6A0DF10600984702230C
:1049F0004370E0E7D0F8B832DB6A0DF10600984763
:104A000002234370D7E7D2B2052A52D8DFE802F07A
:104A100003101D2A3744D0F8B4325B6823B10DF17E
:104A20000601007C9847C6E72946FFF7A0FFD4E7B8
:104A3000D0F8B4329B6823B10DF10601007C984791
:104A4000B9E72946FFF793FFC7E7D0F8B432DB6830
:104A500023B10DF10601007C9847ACE72946FFF72A
:104A600086FFBAE7D0F8B4321B6923B10DF1060115
:104A7000007C98479FE72946FFF779FFADE7D0F81C
:104A8000B4325B6923B10DF10601007C984792E7CF
:104A90002946FFF76CFFA0E7D0F8B4329B6923B139
:104AA0000DF10601007C984785E72946FFF75FFF77
:104AB00093E72946FFF75BFF8FE7037C33B9D0F814
:104AC000B8325B6B0DF10600984774E72946FFF793
:104AD0004EFF82E7037C43B9D0F8B8321B6B0DF16F
:104AE000060098470723437065E72946FFF73FFF15
:104AF00073E72946FFF73BFF6FE729462046FFF79C
:104B000036FF6AE7204600F0D1FA66E738B504467A
:104B10008B88FBB9CB88EBB94B887F2B1AD803F075
:104B20007F0590F89C32DBB2032B0CD080F89E52AC
:104B3000294602F053FB204600F0B8FA35B10223B3
:104B400084F89C3209E0FFF712FF06E0012384F8A5
:104B50009C3202E02046FFF70AFF38BD70B50446DC
:104B60000E468D782F4B1D70012D10D890F89C3279
:104B7000DBB2022B0FD0032B26D0FFF7F8FE294B18
:104B800019782046FFF70BFD0325284670BDFFF777
:104B9000EEFE0325F9E7A5B145602946FFF7F6FCCF
:104BA000054638B131462046FFF7E1FE022384F87E
:104BB0009C32EAE7204600F079FA032384F89C321D
:104BC000E3E700F073FAE0E7CDB141688D4225D00C
:104BD000C9B2FFF7E4FC134B197861602046FFF778
:104BE000D5FC0546B0B131462046FFF7C0FE21791D
:104BF0002046FFF7D4FC022384F89C32C5E7022349
:104C000080F89C3245602946FFF7C9FC204600F039
:104C10004DFABAE7204600F049FAB6E700F046FA46
:104C20000025B2E72007002008B5CB88012B0BD167
:104C300090F89C32DBB2022B09D9032B09D1012257
:104C4000011D00F007FA01E0FFF791FE08BD5BB21D
:104C500013B9FFF78CFEF9E70146002341F8083F3E
:104C6000012200F0F7F9F1E708B590F89C32013B1A
:104C7000022B12D8CB88022B0CD10123C360D0F8B1
:104C8000A4320BB10323C360022200F10C0100F037
:104C9000E1F908BDFFF76BFEFBE7FFF768FEF8E7F9
:104CA00008B54B88012B04D0022B07D0FFF75FFE1D
:104CB00008BDC0F8A43200F0F9F9F9E78B881B0AA7
:104CC00080F8A03200F0F2F9F2E708B590F89C32D3
:104CD000013B022B09D84B88012B00D008BD0023D3
:104CE000C0F8A43200F0E2F9F8E7FFF740FEF5E77C
:104CF00038B50C7804F06004202C06D0402C04D089
:104D00006CB1FFF734FE002407E0D0F8D432AE33A4
:104D100050F823309B6898470446204638BD4D78AC
:104D2000092D1DD8DFE805F012191C161C08051CFA
:104D30000F0BFFF726FEF0E7FFF7E8FEEDE7FFF7C2
:104D40000DFF0446E9E7FFF76FFFE6E7FFF78CFF8B
:104D50002C46E2E7FFF7A4FFDFE7FFF7B6FFDCE74B
:104D6000FFF705FED9E770B505460C460B7803F052
:104D70006003202B07D0402B05D023B1FFF7F7FDB0
:104D80000026304670BD95F89C32013B022B26D898
:104D90002179012905D921462846FFF7E8FD00269B
:104DA000EFE72846FFF7CDFC68B900F1AE0255F8F1
:104DB0002220916889B1C5F8D4029368214628461B
:104DC0009847064600E00326E388002BD9D1002E41
:104DD000D7D1284600F06AF9D3E70326F4E7214645
:104DE0002846FFF7C4FD0026CBE72DE9F041064633
:104DF0000D468B88DFB20C7804F06004202C08D0BC
:104E0000402C06D0DCB1FFF7B2FD00242046BDE8FF
:104E1000F08139463046FFF796FC0446002840F002
:104E2000F880C6F8D40200F1AE0356F823309B6830
:104E3000002BEBD02946304698470446E6E791F828
:104E40000180B8F1010F31D0B8F1030F05D0B8F1EE
:104E5000000F67D0FFF78BFDD8E790F89C32DBB2EC
:104E6000022B04D0032B12D0FFF781FDCEE70FB148
:104E7000802F04D129463046FFF779FDC6E7394631
:104E800002F09CF98021304602F098F9BEE74B8889
:104E900023B91FB1802F01D0CB881BB1304600F061
:104EA00005F9B3E7394602F089F9F7E790F89C3243
:104EB000DBB2022B04D0032B12D0FFF758FDA5E77D
:104EC0000FB1802F04D129463046FFF750FD9DE7F2
:104ED000394602F073F98021304602F06FF995E708
:104EE0004B88002B92D117F07F0F17D1304600F07E
:104EF000DDF839463046FFF726FC002886D1C6F893
:104F0000D40200F1AE0256F822209268002A00F086
:104F10008280294630469047044677E7394602F0BA
:104F200055F9E3E790F89C22D2B2022A05D0032A71
:104F300027D0FFF71CFD444668E70FB1802F13D13F
:104F400013F0800F14D107F07F0707EB8707B90034
:104F500001F5A8713144043100230B600222304670
:104F600000F078F8444651E7FFF701FD44464DE76D
:104F700007F07F0707EB8707B90010313144043190
:104F8000EAE75BB2002B1FDB07F00F0202EB8202A5
:104F900000EB8202B2F864211AB3002B25DB07F084
:104FA0007F0303EB83039C0004F5A87434440434AA
:104FB0000FB1802F22D100232360022221463046E8
:104FC00000F048F8444621E707F00F0202EB8202A6
:104FD00000EB8202928C002ADFD1FFF7C8FC444626
:104FE00014E7FFF7C4FC444610E707F07F0303EB28
:104FF00083039C00103434440434D9E739463046E6
:1050000002F094F810B101232360D6E70023236057
:10501000D3E70024FAE60446F8E6D0B170B50D46B1
:1050200016460446FFF785FC431C5B009BB23380A9
:105030002B7003236B70022307E0EA5401345A1CDF
:10504000D2B20021A9540233DBB22278002AF4D173
:1050500070BD704708B513460222C0F894228361E0
:10506000C3610A46002102F0C1F8002008BD08B55E
:1050700013460A46002102F0B9F8002008BD08B521
:1050800013460322C0F89422C0F85831C0F85C31AE
:105090000A46002102F0B2F8002008BD08B5134608
:1050A0000A46002102F0AAF8002008BD08B5042233
:1050B000C0F8942200231A46194602F097F80020FF
:1050C00008BD08B50522C0F8942200231A461946E7
:1050D00002F094F8002008BD08B54FF0E0231B69EA
:1050E00001F0CEFB012800D108BD00F0D3F9FBE7A9
:1050F000EFF305832BB9064B186828B901221A6013
:1051000070476FF0050070474FF0FF30704700BFE9
:1051100080090020EFF3058373B90A4B1B68012B4C
:105120000DD110B50024084BDC77064B02221A6023
:1051300001F004F9204610BD6FF0050070474FF0F4
:10514000FF3070478009002000ED00E0F0B587B027
:1051500000240594EFF3058474BB68B322B315688B
:10516000936903B918235C1E372C49D8546814F08E
:10517000010F47D156696EB14FEA960C94682CB175
:10518000D7685B2F02D9176907B1C6B92CB14FF0A8
:10519000FF340EE04FF0800CF0E7D4688CB914694E
:1051A00094B14FF0FF3404E01546002418234FF06B
:1051B000800C012C0AD0ACB1059807B0F0BD0124D9
:1051C000F7E74FF0FF34F4E70024F2E71469926840
:1051D0000292019400930B466246294601F03EF884
:1051E0000590E9E705AA019200930B461FFA8CF29D
:1051F000294601F06EF80128DED000230593DBE795
:105200000020DAE70020D8E708B5EFF3058333B9CB
:1052100008B9002008BD01F0F5F90020FAE76FF0A9
:105220000500F7E7034B0360034B0B60802313601B
:10523000704700BF2409002024070020034B0360AF
:10524000034B0B604FF4807313607047840D002094
:105250008409002000F1080343604FF0FF328260B0
:10526000C36003610023036070470023036170473C
:1052700043684B609A688A6051609960086103686E
:1052800001330360704730B40D68B5F1FF3F11D0B2
:1052900000F108031C465B681A68AA42FAD96368E1
:1052A0004B6099608C606160086103680133036042
:1052B00030BC70470469F2E70369416882688A601C
:1052C000416851605A68824206D0002202611A6821
:1052D000013A1A601868704782685A60F5E7000062
:1052E00082B0002301930D4B1B68B3F1FF3F08D040
:1052F0004FF0500383F31188BFF36F8FBFF34F8FCD
:10530000FEE74FF0500383F31188BFF36F8FBFF3B5
:105310004F8F019B002BFCD002B0704794000020FF
:1053200008480068006880F308884FF0000080F3A8
:10533000148862B661B6BFF34F8FBFF36F8F00DF83
:1053400000BF000008ED00E0DFF80C00016841F448
:10535000700101607047000088ED00E04FF080733D
:1053600040F8043C21F0010140F8081C054B40F8CE
:105370000C3C40F8202C6FF0020340F8243C4438E9
:10538000704700BFE152000800000000000000006C
:10539000074B19680868B0E8F04F80F30988BFF33D
:1053A0006F8F4FF0000080F311887047AFF30080DB
:1053B000480E01204FF0500383F31188BFF36F8F25
:1053C000BFF34F8F0B4A136801331360012B00D0DA
:1053D00070474FF0E023D3F8043D13F0FF0FF7D0F0
:1053E0004FF0500383F31188BFF36F8FBFF34F8FDC
:1053F000FEE700BF94000020094B1B6843B94FF043
:10540000500383F31188BFF36F8FBFF34F8FFEE715
:10541000013B034A13600BB983F31188704700BF47
:1054200094000020000000000000000000000000C8
:10543000EFF30980BFF36F8F154B1A681EF0100F42
:1054400008BF20ED108A20E9F04F10602DE9090017
:105450004FF0500080F31188BFF34F8FBFF36F8F71
:1054600001F0F6F84FF0000080F3118809BC1968CC
:105470000868B0E8F04F1EF0100F08BFB0EC108ABB
:1054800080F30988BFF36F8F704700BFAFF30080D0
:10549000480E012008B54FF0500383F31188BFF385
:1054A0006F8FBFF34F8F00F0A5FF28B14FF0E023BF
:1054B0004FF08052C3F8042D002383F3118808BDF8
:1054C0004FF0E022002313619361054B1B680549EF
:1054D000A1FB03139B09013B536107231361704731
:1054E00000000020D34D62104FF0E023D3F8002DD0
:1054F0003D4B9A421CD04FF0E023D3F8002D3B4B9C
:105500009A421ED030B583B0394B1A78D2B201928C
:10551000FF221A701B78DBB28DF803309DF8033040
:1055200003F05003334A1370334B07221A601BE019
:105530004FF0500383F31188BFF36F8FBFF34F8F8A
:10554000FEE74FF0500383F31188BFF36F8FBFF373
:105550004F8FFEE7284A1368013B13609DF8033024
:105560005B00DBB28DF803309DF8033013F0800F41
:10557000F0D1214B1B68032B08D04FF0500383F36D
:105580001188BFF36F8FBFF34F8FFEE71B021A4ADC
:10559000136003F4E0631360019BDBB2144A1370E1
:1055A0004FF0E024D4F8203D43F47003C4F8203DCC
:1055B000D4F8203D43F07043C4F8203DFFF780FF4E
:1055C00000250E4B1D60FFF7BFFED4F8343F43F0BB
:1055D0004043C4F8343FFFF7A3FE01F039F8FFF76A
:1055E0007FFE284603B030BD71C20F4170C20F412B
:1055F00000E400E0E00D0020E40D00209400002015
:10560000EFF305830F2B0FD9114A9B5CDBB2114AD4
:1056100012789A4208D94FF0500383F31188BFF3F0
:105620006F8FBFF34F8FFEE74FF0E023D3F80C3DB1
:1056300003F4E063084A1268934208D94FF050031C
:1056400083F31188BFF36F8FBFF34F8FFEE770476F
:10565000F0E300E0E00D0020E40D0020134A12F01A
:10566000070F1FD0D11D21F00701C1F57F43FF3384
:1056700013440A460E480260002141601344083B6F
:1056800023F007030B48036059601960991A5160B1
:105690001360094B1960094B1960094B4FF0004228
:1056A0001A6070474FF6FF73E4E700BFEC0D00206F
:1056B000000E0120E80D0020F40D0120F00D012066
:1056C000EC0D0120164B1A461B688342FBD3516830
:1056D00002EB010C844509D0416800EB010C6345E5
:1056E00009D00360904219D01060704740680144AF
:1056F00051601046F0E710B40A4C2468A3420BD066
:105700005B681944416013681B680360904200D0D5
:1057100010605DF8044B70470460F7E7704700BF06
:10572000000E0120E80D002070B5054600F054FE83
:10573000364B1B68A3B1364B1B681D424ED135B1A9
:10574000083515F0070F02D025F007050835002DA4
:1057500046D0304B1B68AB4251D32F4A146804E04B
:10576000FFF77CFFE7E722461C466368AB4202D2A4
:105770002368002BF7D1254B1B68A34241D0166844
:1057800008362368136063685B1B102B10D96019FF
:1057900010F0070F08D04FF0500383F31188BFF3C8
:1057A0006F8FBFF34F8FFEE743606560FFF78AFF9F
:1057B000626818490B689B1A0B60184909688B428C
:1057C00001D216490B60124B1B6813436360002320
:1057D0002360134A13680133136002E0002600E0DF
:1057E000002600F093FE16F0070F0CD04FF0500388
:1057F00083F31188BFF36F8FBFF34F8FFEE700264F
:10580000EFE70026EDE7304670BD00BFE80D002051
:10581000EC0D0120F00D0120000E0120F40D0120FF
:10582000F80D0120002834D038B50446A0F1080551
:1058300050F8043C174A1268134208D14FF0500345
:1058400083F31188BFF36F8FBFF34F8FFEE750F8DC
:10585000081C41B14FF0500383F31188BFF36F8FE1
:10586000BFF34F8FFEE723EA020340F8043C00F049
:10587000B3FD54F8041C084A13680B44136028460F
:10588000FFF720FF054A13680133136000F03EFE66
:1058900038BD7047EC0D0120F00D0120FC0D0120FA
:1058A00010B50446FFF786FDA26BE36B9A4204D065
:1058B0000024FFF7A1FD204610BD0124F9E710B533
:1058C0000446FFF777FDA36B23B90124FFF794FD8E
:1058D000204610BD0024F9E770B504461546866BD6
:1058E000026C5AB903681BB100200136A66370BD73
:1058F000806800F0D5FF0023A360F6E76DB940682B
:10590000FAF7E8FD226C636813446360A26893426F
:1059100019D3236863602846E7E7C068FAF7DAFD21
:10592000226C5142E3689B1AE3602268934202D2E0
:10593000A3680B44E360022D01D00020D5E726B117
:10594000013E0020D1E72846CFE70020CDE70346FF
:10595000026C6AB110B50846D9681144D9609C68D8
:10596000A14201D31968D960D968FAF7B3FD10BD17
:10597000704738B50546FFF71DFD95F8454064B200
:1059800001E0013C64B2002C0ADD6B6A43B105F111
:10599000240000F0DBFE0028F3D000F06BFFF0E7FE
:1059A000FF2385F84530FFF727FDFFF703FD95F846
:1059B000444064B201E0013C64B2002C0ADD2B6972
:1059C00043B105F1100000F0C1FE0028F3D000F053
:1059D00051FFF0E7FF2385F84430FFF70DFD38BD98
:1059E00038B5E0B10D460446FFF7E4FC2368E26BEE
:1059F000216C01FB0230A0600020A0636360013ACB
:105A000002FB0133E360FF2384F8443084F845301F
:105A1000FDB9236963B9FFF7EFFC012038BD4FF0F2
:105A2000500383F31188BFF36F8FBFF34F8FFEE7EF
:105A300004F1100000F08AFE0028ECD04FF0E023C3
:105A40004FF08052C3F8042DBFF34F8FBFF36F8F19
:105A5000E1E704F11000FFF7FDFB04F12400FFF77C
:105A6000F9FBD8E738B51D46049C0B4649B92460BC
:105A7000E063236401212046FFF7B2FF84F84C5015
:105A800038BD2260F4E740B94FF0500383F311882A
:105A9000BFF36F8FBFF34F8FFEE710B584B01C4686
:105AA000844653B192B189B94FF0500383F3118802
:105AB000BFF36F8FBFF34F8FFEE74FF0500383F3B9
:105AC0001188BFF36F8FBFF34F8FFEE76AB150238A
:105AD0000393039B502B13D04FF0500383F3118893
